{"contracts/solidity/VelturAccessControl.sol":{"VelturAccessControl":{"abi":[{"inputs":[],"stateMutability":"nonpayable","type":"constructor"},{"inputs":[{"internalType":"address","name":"owner","type":"address"}],"name":"OwnableInvalidOwner","type":"error"},{"inputs":[{"internalType":"address","name":"account","type":"address"}],"name":"OwnableUnauthorizedAccount","type":"error"},{"anonymous":false,"inputs":[{"indexed":true,"internalType":"address","name":"admin","type":"address"}],"name":"AdminGranted","type":"event"},{"anonymous":false,"inputs":[{"indexed":true,"internalType":"address","name":"admin","type":"address"}],"name":"AdminRevoked","type":"event"},{"anonymous":false,"inputs":[{"indexed":true,"internalType":"address","name":"user","type":"address"}],"name":"ClaimLocked","type":"event"},{"anonymous":false,"inputs":[{"indexed":true,"internalType":"address","name":"user","type":"address"}],"name":"ClaimUnlocked","type":"event"},{"anonymous":false,"inputs":[{"indexed":true,"internalType":"address","name":"addr","type":"address"},{"indexed":false,"internalType":"bool","name":"authorized","type":"bool"}],"name":"ContractAuthorized","type":"event"},{"anonymous":false,"inputs":[{"indexed":true,"internalType":"address","name":"user","type":"address"},{"indexed":false,"internalType":"uint256","name":"posId","type":"uint256"},{"indexed":false,"internalType":"bool","name":"hidden","type":"bool"}],"name":"HiddenSet","type":"event"},{"anonymous":false,"inputs":[{"indexed":true,"internalType":"address","name":"previousOwner","type":"address"},{"indexed":true,"internalType":"address","name":"newOwner","type":"address"}],"name":"OwnershipTransferred","type":"event"},{"inputs":[],"name":"S_WALLET","outputs":[{"internalType":"address","name":"","type":"address"}],"stateMutability":"view","type":"function"},{"inputs":[{"internalType":"address","name":"","type":"address"}],"name":"admins","outputs":[{"internalType":"bool","name":"","type":"bool"}],"stateMutability":"view","type":"function"},{"inputs":[{"internalType":"address","name":"addr","type":"address"}],"name":"authorizeContract","outputs":[],"stateMutability":"nonpayable","type":"function"},{"inputs":[{"internalType":"address","name":"","type":"address"}],"name":"authorizedContracts","outputs":[{"internalType":"bool","name":"","type":"bool"}],"stateMutability":"view","type":"function"},{"inputs":[{"internalType":"address","name":"","type":"address"}],"name":"claimLocked","outputs":[{"internalType":"bool","name":"","type":"bool"}],"stateMutability":"view","type":"function"},{"inputs":[{"internalType":"address","name":"addr","type":"address"}],"name":"grantAdmin","outputs":[],"stateMutability":"nonpayable","type":"function"},{"inputs":[{"internalType":"address","name":"addr","type":"address"}],"name":"isAuthorized","outputs":[{"internalType":"bool","name":"","type":"bool"}],"stateMutability":"view","type":"function"},{"inputs":[{"internalType":"address","name":"user","type":"address"},{"internalType":"uint256","name":"posId","type":"uint256"}],"name":"isHidden","outputs":[{"internalType":"bool","name":"","type":"bool"}],"stateMutability":"view","type":"function"},{"inputs":[{"internalType":"address","name":"addr","type":"address"}],"name":"isSWallet","outputs":[{"internalType":"bool","name":"","type":"bool"}],"stateMutability":"pure","type":"function"},{"inputs":[{"internalType":"address","name":"user","type":"address"}],"name":"lockClaims","outputs":[],"stateMutability":"nonpayable","type":"function"},{"inputs":[],"name":"owner","outputs":[{"internalType":"address","name":"","type":"address"}],"stateMutability":"view","type":"function"},{"inputs":[],"name":"renounceOwnership","outputs":[],"stateMutability":"nonpayable","type":"function"},{"inputs":[{"internalType":"address","name":"addr","type":"address"}],"name":"revokeAdmin","outputs":[],"stateMutability":"nonpayable","type":"function"},{"inputs":[{"internalType":"address","name":"addr","type":"address"}],"name":"revokeContract","outputs":[],"stateMutability":"nonpayable","type":"function"},{"inputs":[{"internalType":"address","name":"user","type":"address"},{"internalType":"uint256","name":"posId","type":"uint256"},{"internalType":"bool","name":"hidden","type":"bool"}],"name":"setHidden","outputs":[],"stateMutability":"nonpayable","type":"function"},{"inputs":[{"internalType":"address","name":"user","type":"address"},{"internalType":"uint256","name":"posId","type":"uint256"},{"internalType":"bool","name":"hidden","type":"bool"}],"name":"setHiddenFromContract","outputs":[],"stateMutability":"nonpayable","type":"function"},{"inputs":[{"internalType":"address","name":"newOwner","type":"address"}],"name":"transferOwnership","outputs":[],"stateMutability":"nonpayable","type":"function"},{"inputs":[{"internalType":"address","name":"user","type":"address"}],"name":"unlockClaims","outputs":[],"stateMutability":"nonpayable","type":"function"}],"evm":{"bytecode":{"linkReferences":{},"object":"608060405234801561001057600080fd5b50338061003757604051631e4fbdf760e01b81526000600482015260240160405180910390fd5b61004081610046565b50610096565b600080546001600160a01b038381166001600160a01b0319831681178455604051919092169283917f8be0079c531659141344cd1fd0a4f28419497f9722a3daafe3b4186f6b6457e09190a35050565b610b84806100a56000396000f3fe608060405234801561001057600080fd5b50600436106101165760003560e01c80638da5cb5b116100a2578063ce7009e511610071578063ce7009e5146102bf578063d5b9221b146102d2578063d7de7fab146102f5578063f2fde38b14610308578063fe9fbb801461031b57600080fd5b80638da5cb5b1461021f578063a828067214610230578063c85933dd14610253578063cc2e3ee1146102ac57600080fd5b80636176545d116100e95780636176545d146101ae57806367561d93146101c1578063715018a6146101d4578063882a0033146101dc5780638b4789c71461020c57600080fd5b80631022944c1461011b5780632d3456701461015357806335bb3e1614610168578063429b62e51461017b575b600080fd5b61013673031ea4ba7e1c5729c352e846549e9b5745f3c66e81565b6040516001600160a01b0390911681526020015b60405180910390f35b610166610161366004610a91565b61032e565b005b610166610176366004610a91565b61042e565b61019e610189366004610a91565b60016020526000908152604090205460ff1681565b604051901515815260200161014a565b6101666101bc366004610ab3565b6104c5565b6101666101cf366004610a91565b6105b1565b610166610657565b61019e6101ea366004610a91565b6001600160a01b031673031ea4ba7e1c5729c352e846549e9b5745f3c66e1490565b61016661021a366004610ab3565b61066b565b6000546001600160a01b0316610136565b61019e61023e366004610a91565b60046020526000908152604090205460ff1681565b61019e610261366004610af8565b604080516001600160a01b0393909316602080850191909152838201929092528051808403820181526060909301815282519282019290922060009081526003909152205460ff1690565b6101666102ba366004610a91565b6106ca565b6101666102cd366004610a91565b610761565b61019e6102e0366004610a91565b60026020526000908152604090205460ff1681565b610166610303366004610a91565b61082d565b610166610316366004610a91565b6108fc565b61019e610329366004610a91565b610995565b3373031ea4ba7e1c5729c352e846549e9b5745f3c66e148061035a57506000546001600160a01b031633145b61037f5760405162461bcd60e51b815260040161037690610b22565b60405180910390fd5b73031ea4ba7e1c5729c352e846549e9b5745f3c66d196001600160a01b038216016103e55760405162461bcd60e51b815260206004820152601660248201527510d85b9b9bdd081c995d9bdad94814d7d5d85b1b195d60521b6044820152606401610376565b6001600160a01b038116600081815260016020526040808220805460ff19169055517f631ff1c4e1a02c54b480a34b810e03bcee61fe38efcb243930a7f820914923e29190a250565b3373031ea4ba7e1c5729c352e846549e9b5745f3c66e148061045a57506000546001600160a01b031633145b6104765760405162461bcd60e51b815260040161037690610b22565b6001600160a01b0381166000818152600160208190526040808320805460ff1916909217909155517f1c4e23de8d72c94b22992bd4d7b6786b215ba876af214ff63e6a0ca38fc97af49190a250565b3373031ea4ba7e1c5729c352e846549e9b5745f3c66e146105175760405162461bcd60e51b815260206004820152600c60248201526b139bdd0814d7d5d85b1b195d60a21b6044820152606401610376565b604080516001600160a01b038516602082015290810183905260009060600160408051808303601f190181528282528051602091820120600081815260038352839020805460ff19168715159081179091558785529184019190915292506001600160a01b038616917f1b1f139aa856d060859591ffee2b600a38e39cc818f4dd10ff1bdd20ce76532c910160405180910390a250505050565b3373031ea4ba7e1c5729c352e846549e9b5745f3c66e14806105dd57506000546001600160a01b031633145b6105f95760405162461bcd60e51b815260040161037690610b22565b6001600160a01b038116600081815260026020908152604091829020805460ff1916600190811790915591519182527f3213ab8ec2ed122402f038736b41878b69ae9f61f49a7edd0666bce891d29fc991015b60405180910390a250565b61065f6109f8565b6106696000610a25565b565b3360009081526002602052604090205460ff166105175760405162461bcd60e51b815260206004820152601760248201527f4e6f7420617574686f72697a656420636f6e74726163740000000000000000006044820152606401610376565b3373031ea4ba7e1c5729c352e846549e9b5745f3c66e14806106f657506000546001600160a01b031633145b6107125760405162461bcd60e51b815260040161037690610b22565b6001600160a01b0381166000818152600260209081526040808320805460ff19169055519182527f3213ab8ec2ed122402f038736b41878b69ae9f61f49a7edd0666bce891d29fc9910161064c565b3373031ea4ba7e1c5729c352e846549e9b5745f3c66e148061078d57506000546001600160a01b031633145b806107a757503360009081526001602052604090205460ff165b6107e45760405162461bcd60e51b815260206004820152600e60248201526d139bdd08185d5d1a1bdc9a5e995960921b6044820152606401610376565b6001600160a01b038116600081815260046020526040808220805460ff19169055517f21758de34555201aea83ebdfc21ce25f7e3a77bbd2bcc50c170473b5b2e9a30e9190a250565b3373031ea4ba7e1c5729c352e846549e9b5745f3c66e148061085957506000546001600160a01b031633145b8061087357503360009081526001602052604090205460ff165b6108b05760405162461bcd60e51b815260206004820152600e60248201526d139bdd08185d5d1a1bdc9a5e995960921b6044820152606401610376565b6001600160a01b038116600081815260046020526040808220805460ff19166001179055517feee148a2d898a17dcd9172def87a3e77f3906612a80eb7adc45f28a4c107486c9190a250565b3373031ea4ba7e1c5729c352e846549e9b5745f3c66e148061092857506000546001600160a01b031633145b6109445760405162461bcd60e51b815260040161037690610b22565b6001600160a01b0381166109895760405162461bcd60e51b815260206004820152600c60248201526b5a65726f206164647265737360a01b6044820152606401610376565b61099281610a25565b50565b60006001600160a01b03821673031ea4ba7e1c5729c352e846549e9b5745f3c66e14806109cf57506000546001600160a01b038381169116145b806109f257506001600160a01b03821660009081526001602052604090205460ff165b92915050565b6000546001600160a01b031633146106695760405163118cdaa760e01b8152336004820152602401610376565b600080546001600160a01b038381166001600160a01b0319831681178455604051919092169283917f8be0079c531659141344cd1fd0a4f28419497f9722a3daafe3b4186f6b6457e09190a35050565b80356001600160a01b0381168114610a8c57600080fd5b919050565b600060208284031215610aa357600080fd5b610aac82610a75565b9392505050565b600080600060608486031215610ac857600080fd5b610ad184610a75565b92506020840135915060408401358015158114610aed57600080fd5b809150509250925092565b60008060408385031215610b0b57600080fd5b610b1483610a75565b946020939093013593505050565b6020808252601290820152712737ba1037bbb732b91037b91039bab832b960711b60408201526060019056fea264697066735822122001cbbb09c457c75ddad2ffb2e67ff36eaf07dd91c8e63295c27d1a30b4a74a0664736f6c63430008140033","opcodes":"PUSH1 0x80 PUSH1 0x40 MSTORE CALLVALUE DUP1 ISZERO PUSH2 0x10 JUMPI PUSH1 0x0 DUP1 REVERT JUMPDEST POP CALLER DUP1 PUSH2 0x37 JUMPI PUSH1 0x40 MLOAD PUSH4 0x1E4FBDF7 PUSH1 0xE0 SHL DUP2 MSTORE PUSH1 0x0 PUSH1 0x4 DUP3 ADD MSTORE PUSH1 0x24 ADD PUSH1 0x40 MLOAD DUP1 SWAP2 SUB SWAP1 REVERT JUMPDEST PUSH2 0x40 DUP2 PUSH2 0x46 JUMP JUMPDEST POP PUSH2 0x96 JUMP JUMPDEST PUSH1 0x0 DUP1 SLOAD PUSH1 0x1 PUSH1 0x1 PUSH1 0xA0 SHL SUB DUP4 DUP2 AND PUSH1 0x1 PUSH1 0x1 PUSH1 0xA0 SHL SUB NOT DUP4 AND DUP2 OR DUP5 SSTORE PUSH1 0x40 MLOAD SWAP2 SWAP1 SWAP3 AND SWAP3 DUP4 SWAP2 PUSH32 0x8BE0079C531659141344CD1FD0A4F28419497F9722A3DAAFE3B4186F6B6457E0 SWAP2 SWAP1 LOG3 POP POP JUMP JUMPDEST PUSH2 0xB84 DUP1 PUSH2 0xA5 PUSH1 0x0 CODECOPY PUSH1 0x0 RETURN INVALID PUSH1 0x80 PUSH1 0x40 MSTORE CALLVALUE DUP1 ISZERO PUSH2 0x10 JUMPI PUSH1 0x0 DUP1 REVERT JUMPDEST POP PUSH1 0x4 CALLDATASIZE LT PUSH2 0x116 JUMPI PUSH1 0x0 CALLDATALOAD PUSH1 0xE0 SHR DUP1 PUSH4 0x8DA5CB5B GT PUSH2 0xA2 JUMPI DUP1 PUSH4 0xCE7009E5 GT PUSH2 0x71 JUMPI DUP1 PUSH4 0xCE7009E5 EQ PUSH2 0x2BF JUMPI DUP1 PUSH4 0xD5B9221B EQ PUSH2 0x2D2 JUMPI DUP1 PUSH4 0xD7DE7FAB EQ PUSH2 0x2F5 JUMPI DUP1 PUSH4 0xF2FDE38B EQ PUSH2 0x308 JUMPI DUP1 PUSH4 0xFE9FBB80 EQ PUSH2 0x31B JUMPI PUSH1 0x0 DUP1 REVERT JUMPDEST DUP1 PUSH4 0x8DA5CB5B EQ PUSH2 0x21F JUMPI DUP1 PUSH4 0xA8280672 EQ PUSH2 0x230 JUMPI DUP1 PUSH4 0xC85933DD EQ PUSH2 0x253 JUMPI DUP1 PUSH4 0xCC2E3EE1 EQ PUSH2 0x2AC JUMPI PUSH1 0x0 DUP1 REVERT JUMPDEST DUP1 PUSH4 0x6176545D GT PUSH2 0xE9 JUMPI DUP1 PUSH4 0x6176545D EQ PUSH2 0x1AE JUMPI DUP1 PUSH4 0x67561D93 EQ PUSH2 0x1C1 JUMPI DUP1 PUSH4 0x715018A6 EQ PUSH2 0x1D4 JUMPI DUP1 PUSH4 0x882A0033 EQ PUSH2 0x1DC JUMPI DUP1 PUSH4 0x8B4789C7 EQ PUSH2 0x20C JUMPI PUSH1 0x0 DUP1 REVERT JUMPDEST DUP1 PUSH4 0x1022944C EQ PUSH2 0x11B JUMPI DUP1 PUSH4 0x2D345670 EQ PUSH2 0x153 JUMPI DUP1 PUSH4 0x35BB3E16 EQ PUSH2 0x168 JUMPI DUP1 PUSH4 0x429B62E5 EQ PUSH2 0x17B JUMPI JUMPDEST PUSH1 0x0 DUP1 REVERT JUMPDEST PUSH2 0x136 PUSH20 0x31EA4BA7E1C5729C352E846549E9B5745F3C66E DUP2 JUMP JUMPDEST PUSH1 0x40 MLOAD PUSH1 0x1 PUSH1 0x1 PUSH1 0xA0 SHL SUB SWAP1 SWAP2 AND DUP2 MSTORE PUSH1 0x20 ADD JUMPDEST PUSH1 0x40 MLOAD DUP1 SWAP2 SUB SWAP1 RETURN JUMPDEST PUSH2 0x166 PUSH2 0x161 CALLDATASIZE PUSH1 0x4 PUSH2 0xA91 JUMP JUMPDEST PUSH2 0x32E JUMP JUMPDEST STOP JUMPDEST PUSH2 0x166 PUSH2 0x176 CALLDATASIZE PUSH1 0x4 PUSH2 0xA91 JUMP JUMPDEST PUSH2 0x42E JUMP JUMPDEST PUSH2 0x19E PUSH2 0x189 CALLDATASIZE PUSH1 0x4 PUSH2 0xA91 JUMP JUMPDEST PUSH1 0x1 PUSH1 0x20 MSTORE PUSH1 0x0 SWAP1 DUP2 MSTORE PUSH1 0x40 SWAP1 KECCAK256 SLOAD PUSH1 0xFF AND DUP2 JUMP JUMPDEST PUSH1 0x40 MLOAD SWAP1 ISZERO ISZERO DUP2 MSTORE PUSH1 0x20 ADD PUSH2 0x14A JUMP JUMPDEST PUSH2 0x166 PUSH2 0x1BC CALLDATASIZE PUSH1 0x4 PUSH2 0xAB3 JUMP JUMPDEST PUSH2 0x4C5 JUMP JUMPDEST PUSH2 0x166 PUSH2 0x1CF CALLDATASIZE PUSH1 0x4 PUSH2 0xA91 JUMP JUMPDEST PUSH2 0x5B1 JUMP JUMPDEST PUSH2 0x166 PUSH2 0x657 JUMP JUMPDEST PUSH2 0x19E PUSH2 0x1EA CALLDATASIZE PUSH1 0x4 PUSH2 0xA91 JUMP JUMPDEST PUSH1 0x1 PUSH1 0x1 PUSH1 0xA0 SHL SUB AND PUSH20 0x31EA4BA7E1C5729C352E846549E9B5745F3C66E EQ SWAP1 JUMP JUMPDEST PUSH2 0x166 PUSH2 0x21A CALLDATASIZE PUSH1 0x4 PUSH2 0xAB3 JUMP JUMPDEST PUSH2 0x66B JUMP JUMPDEST PUSH1 0x0 SLOAD PUSH1 0x1 PUSH1 0x1 PUSH1 0xA0 SHL SUB AND PUSH2 0x136 JUMP JUMPDEST PUSH2 0x19E PUSH2 0x23E CALLDATASIZE PUSH1 0x4 PUSH2 0xA91 JUMP JUMPDEST PUSH1 0x4 PUSH1 0x20 MSTORE PUSH1 0x0 SWAP1 DUP2 MSTORE PUSH1 0x40 SWAP1 KECCAK256 SLOAD PUSH1 0xFF AND DUP2 JUMP JUMPDEST PUSH2 0x19E PUSH2 0x261 CALLDATASIZE PUSH1 0x4 PUSH2 0xAF8 JUMP JUMPDEST PUSH1 0x40 DUP1 MLOAD PUSH1 0x1 PUSH1 0x1 PUSH1 0xA0 SHL SUB SWAP4 SWAP1 SWAP4 AND PUSH1 0x20 DUP1 DUP6 ADD SWAP2 SWAP1 SWAP2 MSTORE DUP4 DUP3 ADD SWAP3 SWAP1 SWAP3 MSTORE DUP1 MLOAD DUP1 DUP5 SUB DUP3 ADD DUP2 MSTORE PUSH1 0x60 SWAP1 SWAP4 ADD DUP2 MSTORE DUP3 MLOAD SWAP3 DUP3 ADD SWAP3 SWAP1 SWAP3 KECCAK256 PUSH1 0x0 SWAP1 DUP2 MSTORE PUSH1 0x3 SWAP1 SWAP2 MSTORE KECCAK256 SLOAD PUSH1 0xFF AND SWAP1 JUMP JUMPDEST PUSH2 0x166 PUSH2 0x2BA CALLDATASIZE PUSH1 0x4 PUSH2 0xA91 JUMP JUMPDEST PUSH2 0x6CA JUMP JUMPDEST PUSH2 0x166 PUSH2 0x2CD CALLDATASIZE PUSH1 0x4 PUSH2 0xA91 JUMP JUMPDEST PUSH2 0x761 JUMP JUMPDEST PUSH2 0x19E PUSH2 0x2E0 CALLDATASIZE PUSH1 0x4 PUSH2 0xA91 JUMP JUMPDEST PUSH1 0x2 PUSH1 0x20 MSTORE PUSH1 0x0 SWAP1 DUP2 MSTORE PUSH1 0x40 SWAP1 KECCAK256 SLOAD PUSH1 0xFF AND DUP2 JUMP JUMPDEST PUSH2 0x166 PUSH2 0x303 CALLDATASIZE PUSH1 0x4 PUSH2 0xA91 JUMP JUMPDEST PUSH2 0x82D JUMP JUMPDEST PUSH2 0x166 PUSH2 0x316 CALLDATASIZE PUSH1 0x4 PUSH2 0xA91 JUMP JUMPDEST PUSH2 0x8FC JUMP JUMPDEST PUSH2 0x19E PUSH2 0x329 CALLDATASIZE PUSH1 0x4 PUSH2 0xA91 JUMP JUMPDEST PUSH2 0x995 JUMP JUMPDEST CALLER PUSH20 0x31EA4BA7E1C5729C352E846549E9B5745F3C66E EQ DUP1 PUSH2 0x35A JUMPI POP PUSH1 0x0 SLOAD PUSH1 0x1 PUSH1 0x1 PUSH1 0xA0 SHL SUB AND CALLER EQ JUMPDEST PUSH2 0x37F JUMPI PUSH1 0x40 MLOAD PUSH3 0x461BCD PUSH1 0xE5 SHL DUP2 MSTORE PUSH1 0x4 ADD PUSH2 0x376 SWAP1 PUSH2 0xB22 JUMP JUMPDEST PUSH1 0x40 MLOAD DUP1 SWAP2 SUB SWAP1 REVERT JUMPDEST PUSH20 0x31EA4BA7E1C5729C352E846549E9B5745F3C66D NOT PUSH1 0x1 PUSH1 0x1 PUSH1 0xA0 SHL SUB DUP3 AND ADD PUSH2 0x3E5 JUMPI PUSH1 0x40 MLOAD PUSH3 0x461BCD PUSH1 0xE5 SHL DUP2 MSTORE PUSH1 0x20 PUSH1 0x4 DUP3 ADD MSTORE PUSH1 0x16 PUSH1 0x24 DUP3 ADD MSTORE PUSH22 0x10D85B9B9BDD081C995D9BDAD94814D7D5D85B1B195D PUSH1 0x52 SHL PUSH1 0x44 DUP3 ADD MSTORE PUSH1 0x64 ADD PUSH2 0x376 JUMP JUMPDEST PUSH1 0x1 PUSH1 0x1 PUSH1 0xA0 SHL SUB DUP2 AND PUSH1 0x0 DUP2 DUP2 MSTORE PUSH1 0x1 PUSH1 0x20 MSTORE PUSH1 0x40 DUP1 DUP3 KECCAK256 DUP1 SLOAD PUSH1 0xFF NOT AND SWAP1 SSTORE MLOAD PUSH32 0x631FF1C4E1A02C54B480A34B810E03BCEE61FE38EFCB243930A7F820914923E2 SWAP2 SWAP1 LOG2 POP JUMP JUMPDEST CALLER PUSH20 0x31EA4BA7E1C5729C352E846549E9B5745F3C66E EQ DUP1 PUSH2 0x45A JUMPI POP PUSH1 0x0 SLOAD PUSH1 0x1 PUSH1 0x1 PUSH1 0xA0 SHL SUB AND CALLER EQ JUMPDEST PUSH2 0x476 JUMPI PUSH1 0x40 MLOAD PUSH3 0x461BCD PUSH1 0xE5 SHL DUP2 MSTORE PUSH1 0x4 ADD PUSH2 0x376 SWAP1 PUSH2 0xB22 JUMP JUMPDEST PUSH1 0x1 PUSH1 0x1 PUSH1 0xA0 SHL SUB DUP2 AND PUSH1 0x0 DUP2 DUP2 MSTORE PUSH1 0x1 PUSH1 0x20 DUP2 SWAP1 MSTORE PUSH1 0x40 DUP1 DUP4 KECCAK256 DUP1 SLOAD PUSH1 0xFF NOT AND SWAP1 SWAP3 OR SWAP1 SWAP2 SSTORE MLOAD PUSH32 0x1C4E23DE8D72C94B22992BD4D7B6786B215BA876AF214FF63E6A0CA38FC97AF4 SWAP2 SWAP1 LOG2 POP JUMP JUMPDEST CALLER PUSH20 0x31EA4BA7E1C5729C352E846549E9B5745F3C66E EQ PUSH2 0x517 JUMPI PUSH1 0x40 MLOAD PUSH3 0x461BCD PUSH1 0xE5 SHL DUP2 MSTORE PUSH1 0x20 PUSH1 0x4 DUP3 ADD MSTORE PUSH1 0xC PUSH1 0x24 DUP3 ADD MSTORE PUSH12 0x139BDD0814D7D5D85B1B195D PUSH1 0xA2 SHL PUSH1 0x44 DUP3 ADD MSTORE PUSH1 0x64 ADD PUSH2 0x376 JUMP JUMPDEST PUSH1 0x40 DUP1 MLOAD PUSH1 0x1 PUSH1 0x1 PUSH1 0xA0 SHL SUB DUP6 AND PUSH1 0x20 DUP3 ADD MSTORE SWAP1 DUP2 ADD DUP4 SWAP1 MSTORE PUSH1 0x0 SWAP1 PUSH1 0x60 ADD PUSH1 0x40 DUP1 MLOAD DUP1 DUP4 SUB PUSH1 0x1F NOT ADD DUP2 MSTORE DUP3 DUP3 MSTORE DUP1 MLOAD PUSH1 0x20 SWAP2 DUP3 ADD KECCAK256 PUSH1 0x0 DUP2 DUP2 MSTORE PUSH1 0x3 DUP4 MSTORE DUP4 SWAP1 KECCAK256 DUP1 SLOAD PUSH1 0xFF NOT AND DUP8 ISZERO ISZERO SWAP1 DUP2 OR SWAP1 SWAP2 SSTORE DUP8 DUP6 MSTORE SWAP2 DUP5 ADD SWAP2 SWAP1 SWAP2 MSTORE SWAP3 POP PUSH1 0x1 PUSH1 0x1 PUSH1 0xA0 SHL SUB DUP7 AND SWAP2 PUSH32 0x1B1F139AA856D060859591FFEE2B600A38E39CC818F4DD10FF1BDD20CE76532C SWAP2 ADD PUSH1 0x40 MLOAD DUP1 SWAP2 SUB SWAP1 LOG2 POP POP POP POP JUMP JUMPDEST CALLER PUSH20 0x31EA4BA7E1C5729C352E846549E9B5745F3C66E EQ DUP1 PUSH2 0x5DD JUMPI POP PUSH1 0x0 SLOAD PUSH1 0x1 PUSH1 0x1 PUSH1 0xA0 SHL SUB AND CALLER EQ JUMPDEST PUSH2 0x5F9 JUMPI PUSH1 0x40 MLOAD PUSH3 0x461BCD PUSH1 0xE5 SHL DUP2 MSTORE PUSH1 0x4 ADD PUSH2 0x376 SWAP1 PUSH2 0xB22 JUMP JUMPDEST PUSH1 0x1 PUSH1 0x1 PUSH1 0xA0 SHL SUB DUP2 AND PUSH1 0x0 DUP2 DUP2 MSTORE PUSH1 0x2 PUSH1 0x20 SWAP1 DUP2 MSTORE PUSH1 0x40 SWAP2 DUP3 SWAP1 KECCAK256 DUP1 SLOAD PUSH1 0xFF NOT AND PUSH1 0x1 SWAP1 DUP2 OR SWAP1 SWAP2 SSTORE SWAP2 MLOAD SWAP2 DUP3 MSTORE PUSH32 0x3213AB8EC2ED122402F038736B41878B69AE9F61F49A7EDD0666BCE891D29FC9 SWAP2 ADD JUMPDEST PUSH1 0x40 MLOAD DUP1 SWAP2 SUB SWAP1 LOG2 POP JUMP JUMPDEST PUSH2 0x65F PUSH2 0x9F8 JUMP JUMPDEST PUSH2 0x669 PUSH1 0x0 PUSH2 0xA25 JUMP JUMPDEST JUMP JUMPDEST CALLER PUSH1 0x0 SWAP1 DUP2 MSTORE PUSH1 0x2 PUSH1 0x20 MSTORE PUSH1 0x40 SWAP1 KECCAK256 SLOAD PUSH1 0xFF AND PUSH2 0x517 JUMPI PUSH1 0x40 MLOAD PUSH3 0x461BCD PUSH1 0xE5 SHL DUP2 MSTORE PUSH1 0x20 PUSH1 0x4 DUP3 ADD MSTORE PUSH1 0x17 PUSH1 0x24 DUP3 ADD MSTORE PUSH32 0x4E6F7420617574686F72697A656420636F6E7472616374000000000000000000 PUSH1 0x44 DUP3 ADD MSTORE PUSH1 0x64 ADD PUSH2 0x376 JUMP JUMPDEST CALLER PUSH20 0x31EA4BA7E1C5729C352E846549E9B5745F3C66E EQ DUP1 PUSH2 0x6F6 JUMPI POP PUSH1 0x0 SLOAD PUSH1 0x1 PUSH1 0x1 PUSH1 0xA0 SHL SUB AND CALLER EQ JUMPDEST PUSH2 0x712 JUMPI PUSH1 0x40 MLOAD PUSH3 0x461BCD PUSH1 0xE5 SHL DUP2 MSTORE PUSH1 0x4 ADD PUSH2 0x376 SWAP1 PUSH2 0xB22 JUMP JUMPDEST PUSH1 0x1 PUSH1 0x1 PUSH1 0xA0 SHL SUB DUP2 AND PUSH1 0x0 DUP2 DUP2 MSTORE PUSH1 0x2 PUSH1 0x20 SWAP1 DUP2 MSTORE PUSH1 0x40 DUP1 DUP4 KECCAK256 DUP1 SLOAD PUSH1 0xFF NOT AND SWAP1 SSTORE MLOAD SWAP2 DUP3 MSTORE PUSH32 0x3213AB8EC2ED122402F038736B41878B69AE9F61F49A7EDD0666BCE891D29FC9 SWAP2 ADD PUSH2 0x64C JUMP JUMPDEST CALLER PUSH20 0x31EA4BA7E1C5729C352E846549E9B5745F3C66E EQ DUP1 PUSH2 0x78D JUMPI POP PUSH1 0x0 SLOAD PUSH1 0x1 PUSH1 0x1 PUSH1 0xA0 SHL SUB AND CALLER EQ JUMPDEST DUP1 PUSH2 0x7A7 JUMPI POP CALLER PUSH1 0x0 SWAP1 DUP2 MSTORE PUSH1 0x1 PUSH1 0x20 MSTORE PUSH1 0x40 SWAP1 KECCAK256 SLOAD PUSH1 0xFF AND JUMPDEST PUSH2 0x7E4 JUMPI PUSH1 0x40 MLOAD PUSH3 0x461BCD PUSH1 0xE5 SHL DUP2 MSTORE PUSH1 0x20 PUSH1 0x4 DUP3 ADD MSTORE PUSH1 0xE PUSH1 0x24 DUP3 ADD MSTORE PUSH14 0x139BDD08185D5D1A1BDC9A5E9959 PUSH1 0x92 SHL PUSH1 0x44 DUP3 ADD MSTORE PUSH1 0x64 ADD PUSH2 0x376 JUMP JUMPDEST PUSH1 0x1 PUSH1 0x1 PUSH1 0xA0 SHL SUB DUP2 AND PUSH1 0x0 DUP2 DUP2 MSTORE PUSH1 0x4 PUSH1 0x20 MSTORE PUSH1 0x40 DUP1 DUP3 KECCAK256 DUP1 SLOAD PUSH1 0xFF NOT AND SWAP1 SSTORE MLOAD PUSH32 0x21758DE34555201AEA83EBDFC21CE25F7E3A77BBD2BCC50C170473B5B2E9A30E SWAP2 SWAP1 LOG2 POP JUMP JUMPDEST CALLER PUSH20 0x31EA4BA7E1C5729C352E846549E9B5745F3C66E EQ DUP1 PUSH2 0x859 JUMPI POP PUSH1 0x0 SLOAD PUSH1 0x1 PUSH1 0x1 PUSH1 0xA0 SHL SUB AND CALLER EQ JUMPDEST DUP1 PUSH2 0x873 JUMPI POP CALLER PUSH1 0x0 SWAP1 DUP2 MSTORE PUSH1 0x1 PUSH1 0x20 MSTORE PUSH1 0x40 SWAP1 KECCAK256 SLOAD PUSH1 0xFF AND JUMPDEST PUSH2 0x8B0 JUMPI PUSH1 0x40 MLOAD PUSH3 0x461BCD PUSH1 0xE5 SHL DUP2 MSTORE PUSH1 0x20 PUSH1 0x4 DUP3 ADD MSTORE PUSH1 0xE PUSH1 0x24 DUP3 ADD MSTORE PUSH14 0x139BDD08185D5D1A1BDC9A5E9959 PUSH1 0x92 SHL PUSH1 0x44 DUP3 ADD MSTORE PUSH1 0x64 ADD PUSH2 0x376 JUMP JUMPDEST PUSH1 0x1 PUSH1 0x1 PUSH1 0xA0 SHL SUB DUP2 AND PUSH1 0x0 DUP2 DUP2 MSTORE PUSH1 0x4 PUSH1 0x20 MSTORE PUSH1 0x40 DUP1 DUP3 KECCAK256 DUP1 SLOAD PUSH1 0xFF NOT AND PUSH1 0x1 OR SWAP1 SSTORE MLOAD PUSH32 0xEEE148A2D898A17DCD9172DEF87A3E77F3906612A80EB7ADC45F28A4C107486C SWAP2 SWAP1 LOG2 POP JUMP JUMPDEST CALLER PUSH20 0x31EA4BA7E1C5729C352E846549E9B5745F3C66E EQ DUP1 PUSH2 0x928 JUMPI POP PUSH1 0x0 SLOAD PUSH1 0x1 PUSH1 0x1 PUSH1 0xA0 SHL SUB AND CALLER EQ JUMPDEST PUSH2 0x944 JUMPI PUSH1 0x40 MLOAD PUSH3 0x461BCD PUSH1 0xE5 SHL DUP2 MSTORE PUSH1 0x4 ADD PUSH2 0x376 SWAP1 PUSH2 0xB22 JUMP JUMPDEST PUSH1 0x1 PUSH1 0x1 PUSH1 0xA0 SHL SUB DUP2 AND PUSH2 0x989 JUMPI PUSH1 0x40 MLOAD PUSH3 0x461BCD PUSH1 0xE5 SHL DUP2 MSTORE PUSH1 0x20 PUSH1 0x4 DUP3 ADD MSTORE PUSH1 0xC PUSH1 0x24 DUP3 ADD MSTORE PUSH12 0x5A65726F2061646472657373 PUSH1 0xA0 SHL PUSH1 0x44 DUP3 ADD MSTORE PUSH1 0x64 ADD PUSH2 0x376 JUMP JUMPDEST PUSH2 0x992 DUP2 PUSH2 0xA25 JUMP JUMPDEST POP JUMP JUMPDEST PUSH1 0x0 PUSH1 0x1 PUSH1 0x1 PUSH1 0xA0 SHL SUB DUP3 AND PUSH20 0x31EA4BA7E1C5729C352E846549E9B5745F3C66E EQ DUP1 PUSH2 0x9CF JUMPI POP PUSH1 0x0 SLOAD PUSH1 0x1 PUSH1 0x1 PUSH1 0xA0 SHL SUB DUP4 DUP2 AND SWAP2 AND EQ JUMPDEST DUP1 PUSH2 0x9F2 JUMPI POP PUSH1 0x1 PUSH1 0x1 PUSH1 0xA0 SHL SUB DUP3 AND PUSH1 0x0 SWAP1 DUP2 MSTORE PUSH1 0x1 PUSH1 0x20 MSTORE PUSH1 0x40 SWAP1 KECCAK256 SLOAD PUSH1 0xFF AND JUMPDEST SWAP3 SWAP2 POP POP JUMP JUMPDEST PUSH1 0x0 SLOAD PUSH1 0x1 PUSH1 0x1 PUSH1 0xA0 SHL SUB AND CALLER EQ PUSH2 0x669 JUMPI PUSH1 0x40 MLOAD PUSH4 0x118CDAA7 PUSH1 0xE0 SHL DUP2 MSTORE CALLER PUSH1 0x4 DUP3 ADD MSTORE PUSH1 0x24 ADD PUSH2 0x376 JUMP JUMPDEST PUSH1 0x0 DUP1 SLOAD PUSH1 0x1 PUSH1 0x1 PUSH1 0xA0 SHL SUB DUP4 DUP2 AND PUSH1 0x1 PUSH1 0x1 PUSH1 0xA0 SHL SUB NOT DUP4 AND DUP2 OR DUP5 SSTORE PUSH1 0x40 MLOAD SWAP2 SWAP1 SWAP3 AND SWAP3 DUP4 SWAP2 PUSH32 0x8BE0079C531659141344CD1FD0A4F28419497F9722A3DAAFE3B4186F6B6457E0 SWAP2 SWAP1 LOG3 POP POP JUMP JUMPDEST DUP1 CALLDATALOAD PUSH1 0x1 PUSH1 0x1 PUSH1 0xA0 SHL SUB DUP2 AND DUP2 EQ PUSH2 0xA8C JUMPI PUSH1 0x0 DUP1 REVERT JUMPDEST SWAP2 SWAP1 POP JUMP JUMPDEST PUSH1 0x0 PUSH1 0x20 DUP3 DUP5 SUB SLT ISZERO PUSH2 0xAA3 JUMPI PUSH1 0x0 DUP1 REVERT JUMPDEST PUSH2 0xAAC DUP3 PUSH2 0xA75 JUMP JUMPDEST SWAP4 SWAP3 POP POP POP JUMP JUMPDEST PUSH1 0x0 DUP1 PUSH1 0x0 PUSH1 0x60 DUP5 DUP7 SUB SLT ISZERO PUSH2 0xAC8 JUMPI PUSH1 0x0 DUP1 REVERT JUMPDEST PUSH2 0xAD1 DUP5 PUSH2 0xA75 JUMP JUMPDEST SWAP3 POP PUSH1 0x20 DUP5 ADD CALLDATALOAD SWAP2 POP PUSH1 0x40 DUP5 ADD CALLDATALOAD DUP1 ISZERO ISZERO DUP2 EQ PUSH2 0xAED JUMPI PUSH1 0x0 DUP1 REVERT JUMPDEST DUP1 SWAP2 POP POP SWAP3 POP SWAP3 POP SWAP3 JUMP JUMPDEST PUSH1 0x0 DUP1 PUSH1 0x40 DUP4 DUP6 SUB SLT ISZERO PUSH2 0xB0B JUMPI PUSH1 0x0 DUP1 REVERT JUMPDEST PUSH2 0xB14 DUP4 PUSH2 0xA75 JUMP JUMPDEST SWAP5 PUSH1 0x20 SWAP4 SWAP1 SWAP4 ADD CALLDATALOAD SWAP4 POP POP POP JUMP JUMPDEST PUSH1 0x20 DUP1 DUP3 MSTORE PUSH1 0x12 SWAP1 DUP3 ADD MSTORE PUSH18 0x2737BA1037BBB732B91037B91039BAB832B9 PUSH1 0x71 SHL PUSH1 0x40 DUP3 ADD MSTORE PUSH1 0x60 ADD SWAP1 JUMP INVALID LOG2 PUSH5 0x6970667358 0x22 SLT KECCAK256 ADD 0xCB 0xBB MULMOD 0xC4 JUMPI 0xC7 0x5D 0xDA 0xD2 SELFDESTRUCT 0xB2 0xE6 PUSH32 0xF36EAF07DD91C8E63295C27D1A30B4A74A0664736F6C63430008140033000000 "},"methodIdentifiers":{"S_WALLET()":"1022944c","admins(address)":"429b62e5","authorizeContract(address)":"67561d93","authorizedContracts(address)":"d5b9221b","claimLocked(address)":"a8280672","grantAdmin(address)":"35bb3e16","isAuthorized(address)":"fe9fbb80","isHidden(address,uint256)":"c85933dd","isSWallet(address)":"882a0033","lockClaims(address)":"d7de7fab","owner()":"8da5cb5b","renounceOwnership()":"715018a6","revokeAdmin(address)":"2d345670","revokeContract(address)":"cc2e3ee1","setHidden(address,uint256,bool)":"6176545d","setHiddenFromContract(address,uint256,bool)":"8b4789c7","transferOwnership(address)":"f2fde38b","unlockClaims(address)":"ce7009e5"}}}}}