{"contracts/solidity/CommissionPayout.sol":{"CommissionPayout":{"abi":[{"inputs":[{"internalType":"address","name":"_usdt","type":"address"},{"internalType":"address","name":"_accessControl","type":"address"}],"stateMutability":"nonpayable","type":"constructor"},{"anonymous":false,"inputs":[{"indexed":false,"internalType":"uint256","name":"oldBps","type":"uint256"},{"indexed":false,"internalType":"uint256","name":"newBps","type":"uint256"}],"name":"ClaimFeeUpdated","type":"event"},{"anonymous":false,"inputs":[{"indexed":true,"internalType":"uint256","name":"epoch","type":"uint256"},{"indexed":false,"internalType":"uint256","name":"totalAmount","type":"uint256"},{"indexed":false,"internalType":"uint256","name":"entryCount","type":"uint256"}],"name":"CommissionsDistributed","type":"event"},{"anonymous":false,"inputs":[{"indexed":false,"internalType":"uint256","name":"oldMul","type":"uint256"},{"indexed":false,"internalType":"uint256","name":"newMul","type":"uint256"}],"name":"EarningsCapMultiplierUpdated","type":"event"},{"anonymous":false,"inputs":[{"indexed":true,"internalType":"address","name":"user","type":"address"},{"indexed":false,"internalType":"uint256","name":"requested","type":"uint256"},{"indexed":false,"internalType":"uint256","name":"credited","type":"uint256"}],"name":"EarningsCapped","type":"event"},{"anonymous":false,"inputs":[{"indexed":true,"internalType":"address","name":"user","type":"address"},{"indexed":false,"internalType":"uint256","name":"gross","type":"uint256"},{"indexed":false,"internalType":"uint256","name":"fee","type":"uint256"},{"indexed":false,"internalType":"uint256","name":"net","type":"uint256"}],"name":"EarningsClaimed","type":"event"},{"anonymous":false,"inputs":[{"indexed":true,"internalType":"address","name":"user","type":"address"},{"indexed":false,"internalType":"uint256","name":"amount","type":"uint256"}],"name":"VIPInvestmentSet","type":"event"},{"inputs":[],"name":"NUM_INCOME_TYPES","outputs":[{"internalType":"uint8","name":"","type":"uint8"}],"stateMutability":"view","type":"function"},{"inputs":[],"name":"S_WALLET","outputs":[{"internalType":"address","name":"","type":"address"}],"stateMutability":"view","type":"function"},{"inputs":[],"name":"accessControl","outputs":[{"internalType":"contract IAccessControl","name":"","type":"address"}],"stateMutability":"view","type":"function"},{"inputs":[],"name":"claimAllEarnings","outputs":[],"stateMutability":"nonpayable","type":"function"},{"inputs":[],"name":"claimFeeBps","outputs":[{"internalType":"uint256","name":"","type":"uint256"}],"stateMutability":"view","type":"function"},{"inputs":[{"internalType":"address[]","name":"users","type":"address[]"},{"internalType":"uint8[]","name":"types","type":"uint8[]"},{"internalType":"uint256[]","name":"amounts","type":"uint256[]"},{"internalType":"uint256","name":"epoch","type":"uint256"}],"name":"distributeCommissions","outputs":[],"stateMutability":"nonpayable","type":"function"},{"inputs":[],"name":"earningsCapMultiplier","outputs":[{"internalType":"uint256","name":"","type":"uint256"}],"stateMutability":"view","type":"function"},{"inputs":[{"internalType":"uint256","name":"","type":"uint256"}],"name":"epochProcessed","outputs":[{"internalType":"bool","name":"","type":"bool"}],"stateMutability":"view","type":"function"},{"inputs":[],"name":"getContractBalance","outputs":[{"internalType":"uint256","name":"","type":"uint256"}],"stateMutability":"view","type":"function"},{"inputs":[{"internalType":"address","name":"user","type":"address"}],"name":"getEarningsCapStatus","outputs":[{"internalType":"uint256","name":"investment","type":"uint256"},{"internalType":"uint256","name":"capLimit","type":"uint256"},{"internalType":"uint256","name":"earned","type":"uint256"},{"internalType":"uint256","name":"remaining","type":"uint256"}],"stateMutability":"view","type":"function"},{"inputs":[{"internalType":"address","name":"user","type":"address"}],"name":"getUnclaimedEarnings","outputs":[{"internalType":"uint256[5]","name":"amounts","type":"uint256[5]"},{"internalType":"uint256","name":"total","type":"uint256"}],"stateMutability":"view","type":"function"},{"inputs":[{"internalType":"uint256","name":"_bps","type":"uint256"}],"name":"setClaimFee","outputs":[],"stateMutability":"nonpayable","type":"function"},{"inputs":[{"internalType":"uint256","name":"_mul","type":"uint256"}],"name":"setEarningsCapMultiplier","outputs":[],"stateMutability":"nonpayable","type":"function"},{"inputs":[{"internalType":"address","name":"user","type":"address"},{"internalType":"uint256","name":"amount","type":"uint256"}],"name":"setVIPInvestment","outputs":[],"stateMutability":"nonpayable","type":"function"},{"inputs":[],"name":"totalClaimed","outputs":[{"internalType":"uint256","name":"","type":"uint256"}],"stateMutability":"view","type":"function"},{"inputs":[],"name":"totalDistributed","outputs":[{"internalType":"uint256","name":"","type":"uint256"}],"stateMutability":"view","type":"function"},{"inputs":[{"internalType":"address","name":"","type":"address"}],"name":"totalEarned","outputs":[{"internalType":"uint256","name":"","type":"uint256"}],"stateMutability":"view","type":"function"},{"inputs":[{"internalType":"address","name":"","type":"address"},{"internalType":"uint8","name":"","type":"uint8"}],"name":"unclaimed","outputs":[{"internalType":"uint256","name":"","type":"uint256"}],"stateMutability":"view","type":"function"},{"inputs":[],"name":"usdt","outputs":[{"internalType":"contract IERC20","name":"","type":"address"}],"stateMutability":"view","type":"function"},{"inputs":[{"internalType":"address","name":"","type":"address"}],"name":"vipInvestment","outputs":[{"internalType":"uint256","name":"","type":"uint256"}],"stateMutability":"view","type":"function"}],"evm":{"bytecode":{"linkReferences":{},"object":"6080604052600060025561012c60035534801561001b57600080fd5b5060405161153338038061153383398101604081905261003a91610091565b60008054610100600160a81b0319166101006001600160a01b0394851602179055600180546001600160a01b031916919092161790556100c4565b80516001600160a01b038116811461008c57600080fd5b919050565b600080604083850312156100a457600080fd5b6100ad83610075565b91506100bb60208401610075565b90509250929050565b611460806100d36000396000f3fe608060405234801561001057600080fd5b506004361061012c5760003560e01c80636f9fb98a116100ad578063ae030f2211610071578063ae030f22146102b8578063d54ad2a1146102cb578063dddb3c44146102d4578063e6a4e25214610307578063efca2eed1461032757600080fd5b80636f9fb98a1461024157806378f39661146102495780637a526f4e146102745780638612ccf81461027d57806395ddabfa1461028557600080fd5b80632f48ab7d116100f45780632f48ab7d146101c257806339d337af146101da578063507c398c146101fb57806361c232981461020e578063649aca4a1461022157600080fd5b80631022944c1461013157806313007d55146101695780631817182b1461017c578063219cb9a5146101965780632e75ab50146101ad575b600080fd5b61014c73031ea4ba7e1c5729c352e846549e9b5745f3c66e81565b6040516001600160a01b0390911681526020015b60405180910390f35b60015461014c906001600160a01b031681565b610184600581565b60405160ff9091168152602001610160565b61019f60035481565b604051908152602001610160565b6101c06101bb36600461110d565b610330565b005b60005461014c9061010090046001600160a01b031681565b6101ed6101e8366004611142565b610460565b60405161016092919061115d565b6101c06102093660046111e1565b610512565b6101c061021c366004611284565b610994565b61019f61022f366004611142565b60076020526000908152604090205481565b61019f610adb565b61019f6102573660046112bf565b600560209081526000928352604080842090915290825290205481565b61019f60025481565b6101c0610b51565b6102a861029336600461110d565b60046020526000908152604090205460ff1681565b6040519015158152602001610160565b6101c06102c636600461110d565b610f23565b61019f60095481565b6102e76102e2366004611142565b611041565b604080519485526020850193909352918301526060820152608001610160565b61019f610315366004611142565b60066020526000908152604090205481565b61019f60085481565b600154604051630935e01b60e21b81523360048201526001600160a01b03909116906324d7806c90602401602060405180830381865afa158015610378573d6000803e3d6000fd5b505050506040513d601f19601f8201168201806040525081019061039c91906112f2565b6103d95760405162461bcd60e51b81526020600482015260096024820152682737ba1030b236b4b760b91b60448201526064015b60405180910390fd5b61138881111561041a5760405162461bcd60e51b815260206004820152600c60248201526b08ccaca40e8dede40d0d2ced60a31b60448201526064016103d0565b600280549082905560408051828152602081018490527f3c4e14c3f450a320de9683e5ffeec6e95e4e02755f862e36ff6f8f6c21086f6091015b60405180910390a15050565b6104686110ef565b600060015b600560ff82161161050c576001600160a01b038416600090815260056020908152604080832060ff85168452909152902054836104ab60018461132a565b60ff16600581106104be576104be611349565b602090810291909101919091526001600160a01b038516600090815260058252604080822060ff8516835290925220546104f8908361135f565b91508061050481611372565b91505061046d565b50915091565b6001546040516301fd3f7760e71b81523360048201526001600160a01b039091169063fe9fbb8090602401602060405180830381865afa15801561055a573d6000803e3d6000fd5b505050506040513d601f19601f8201168201806040525081019061057e91906112f2565b6105bb5760405162461bcd60e51b815260206004820152600e60248201526d139bdd08185d5d1a1bdc9a5e995960921b60448201526064016103d0565b85841480156105c957508382145b6106075760405162461bcd60e51b815260206004820152600f60248201526e098cadccee8d040dad2e6dac2e8c6d608b1b60448201526064016103d0565b856106435760405162461bcd60e51b815260206004820152600c60248201526b456d7074792061727261797360a01b60448201526064016103d0565b60008181526004602052604090205460ff16156106a25760405162461bcd60e51b815260206004820152601760248201527f45706f636820616c72656164792070726f63657373656400000000000000000060448201526064016103d0565b6000818152600460205260408120805460ff19166001179055805b878110156109375760008989838181106106d9576106d9611349565b90506020020160208101906106ee9190611142565b9050600088888481811061070457610704611349565b90506020020160208101906107199190611391565b9050600087878581811061072f5761072f611349565b90506020020135905060018260ff16101580156107505750600560ff831611155b61078b5760405162461bcd60e51b815260206004820152600c60248201526b496e76616c6964207479706560a01b60448201526064016103d0565b6001600160a01b038316158061079f575080155b156107ac57505050610925565b60006107b7846110a5565b9050818115610807576001600160a01b0385166000908152600760205260409020548281106107e95760009150610805565b60006107f582856113ac565b905080851115610803578092505b505b505b80156108d4576001600160a01b038516600090815260056020908152604080832060ff881684529091528120805483929061084390849061135f565b90915550506001600160a01b0385166000908152600760205260408120805483929061087090849061135f565b909155506108809050818861135f565b9650828110156108cf5760408051848152602081018390526001600160a01b038716917f37da3507ed568b4786a62e731099245f3a611b84737c0e9415bccd7f2c708c40910160405180910390a25b61091f565b821561091f5760408051848152600060208201526001600160a01b038716917f37da3507ed568b4786a62e731099245f3a611b84737c0e9415bccd7f2c708c40910160405180910390a25b50505050505b8061092f816113bf565b9150506106bd565b50806008600082825461094a919061135f565b9091555050604080518281526020810189905283917f42f49c983fd70fd8bf72331732aa9b36d97e6b2e918c86e01185dc8c11ce5ed4910160405180910390a25050505050505050565b6001546040516301fd3f7760e71b81523360048201526001600160a01b039091169063fe9fbb8090602401602060405180830381865afa1580156109dc573d6000803e3d6000fd5b505050506040513d601f19601f82011682018060405250810190610a0091906112f2565b610a3d5760405162461bcd60e51b815260206004820152600e60248201526d139bdd08185d5d1a1bdc9a5e995960921b60448201526064016103d0565b6001600160a01b038216610a825760405162461bcd60e51b815260206004820152600c60248201526b5a65726f206164647265737360a01b60448201526064016103d0565b6001600160a01b03821660008181526006602052604090819020839055517f80d77f5375690528bfca7285ec6a99c381b5413a71bf676afa412f6b839a9cd890610acf9084815260200190565b60405180910390a25050565b600080546040516370a0823160e01b81523060048201526101009091046001600160a01b0316906370a0823190602401602060405180830381865afa158015610b28573d6000803e3d6000fd5b505050506040513d601f19601f82011682018060405250810190610b4c91906113d8565b905090565b60005460ff1615610b965760405162461bcd60e51b815260206004820152600f60248201526e1499595b9d1c985b98de51dd585c99608a1b60448201526064016103d0565b6000805460ff1916600190811790915554604051630bd4611b60e31b81523360048201526001600160a01b0390911690635ea308d890602401602060405180830381865afa158015610bec573d6000803e3d6000fd5b505050506040513d601f19601f82011682018060405250810190610c1091906112f2565b15610c4d5760405162461bcd60e51b815260206004820152600d60248201526c10db185a5b5cc81b1bd8dad959609a1b60448201526064016103d0565b600060015b600560ff821611610cb75733600090815260056020908152604080832060ff85168452909152902054610c85908361135f565b33600090815260056020908152604080832060ff86168452909152812055915080610caf81611372565b915050610c52565b5060008111610cfb5760405162461bcd60e51b815260206004820152601060248201526f4e6f7468696e6720746f20636c61696d60801b60448201526064016103d0565b600061271060025483610d0e91906113f1565b610d189190611408565b90506000610d2682846113ac565b90508115610dfd5760005460405163a9059cbb60e01b815273031ea4ba7e1c5729c352e846549e9b5745f3c66e6004820152602481018490526101009091046001600160a01b03169063a9059cbb906044016020604051808303816000875af1158015610d97573d6000803e3d6000fd5b505050506040513d601f19601f82011682018060405250810190610dbb91906112f2565b610dfd5760405162461bcd60e51b8152602060048201526013602482015272119959481d1c985b9cd9995c8819985a5b1959606a1b60448201526064016103d0565b60005460405163a9059cbb60e01b8152336004820152602481018390526101009091046001600160a01b03169063a9059cbb906044016020604051808303816000875af1158015610e52573d6000803e3d6000fd5b505050506040513d601f19601f82011682018060405250810190610e7691906112f2565b610eba5760405162461bcd60e51b815260206004820152601560248201527410db185a5b481d1c985b9cd9995c8819985a5b1959605a1b60448201526064016103d0565b8260096000828254610ecc919061135f565b9091555050604080518481526020810184905290810182905233907f06f39318c760ad4d630f57ba8f8d3c21b8e1deb076e19476d1dece4e3d737e7a9060600160405180910390a250506000805460ff1916905550565b600154604051630935e01b60e21b81523360048201526001600160a01b03909116906324d7806c90602401602060405180830381865afa158015610f6b573d6000803e3d6000fd5b505050506040513d601f19601f82011682018060405250810190610f8f91906112f2565b610fc75760405162461bcd60e51b81526020600482015260096024820152682737ba1030b236b4b760b91b60448201526064016103d0565b60648110156110035760405162461bcd60e51b81526020600482015260086024820152674d696e203130302560c01b60448201526064016103d0565b600380549082905560408051828152602081018490527fc42711600709b842092d47328f8993780bb1944ce9df5d1507d9b773193ec3869101610454565b6001600160a01b038116600090815260066020526040812054908080611066856110a5565b6001600160a01b038616600090815260076020526040902054909350915081831161109257600061109c565b61109c82846113ac565b90509193509193565b6001600160a01b0381166000908152600660205260408120548082036110ce5750600092915050565b6064600354826110de91906113f1565b6110e89190611408565b9392505050565b6040518060a001604052806005906020820280368337509192915050565b60006020828403121561111f57600080fd5b5035919050565b80356001600160a01b038116811461113d57600080fd5b919050565b60006020828403121561115457600080fd5b6110e882611126565b60c08101818460005b6005811015611185578151835260209283019290910190600101611166565b5050508260a08301529392505050565b60008083601f8401126111a757600080fd5b50813567ffffffffffffffff8111156111bf57600080fd5b6020830191508360208260051b85010111156111da57600080fd5b9250929050565b60008060008060008060006080888a0312156111fc57600080fd5b873567ffffffffffffffff8082111561121457600080fd5b6112208b838c01611195565b909950975060208a013591508082111561123957600080fd5b6112458b838c01611195565b909750955060408a013591508082111561125e57600080fd5b5061126b8a828b01611195565b989b979a50959894979596606090950135949350505050565b6000806040838503121561129757600080fd5b6112a083611126565b946020939093013593505050565b803560ff8116811461113d57600080fd5b600080604083850312156112d257600080fd5b6112db83611126565b91506112e9602084016112ae565b90509250929050565b60006020828403121561130457600080fd5b815180151581146110e857600080fd5b634e487b7160e01b600052601160045260246000fd5b60ff828116828216039081111561134357611343611314565b92915050565b634e487b7160e01b600052603260045260246000fd5b8082018082111561134357611343611314565b600060ff821660ff810361138857611388611314565b60010192915050565b6000602082840312156113a357600080fd5b6110e8826112ae565b8181038181111561134357611343611314565b6000600182016113d1576113d1611314565b5060010190565b6000602082840312156113ea57600080fd5b5051919050565b808202811582820484141761134357611343611314565b60008261142557634e487b7160e01b600052601260045260246000fd5b50049056fea26469706673582212206565e101872bd386c5589d2a2a73d97c376cc97f9d8dc7c3fe46f85de29cc36a64736f6c63430008140033","opcodes":"PUSH1 0x80 PUSH1 0x40 MSTORE PUSH1 0x0 PUSH1 0x2 SSTORE PUSH2 0x12C PUSH1 0x3 SSTORE CALLVALUE DUP1 ISZERO PUSH2 0x1B JUMPI PUSH1 0x0 DUP1 REVERT JUMPDEST POP PUSH1 0x40 MLOAD PUSH2 0x1533 CODESIZE SUB DUP1 PUSH2 0x1533 DUP4 CODECOPY DUP2 ADD PUSH1 0x40 DUP2 SWAP1 MSTORE PUSH2 0x3A SWAP2 PUSH2 0x91 JUMP JUMPDEST PUSH1 0x0 DUP1 SLOAD PUSH2 0x100 PUSH1 0x1 PUSH1 0xA8 SHL SUB NOT AND PUSH2 0x100 PUSH1 0x1 PUSH1 0x1 PUSH1 0xA0 SHL SUB SWAP5 DUP6 AND MUL OR SWAP1 SSTORE PUSH1 0x1 DUP1 SLOAD PUSH1 0x1 PUSH1 0x1 PUSH1 0xA0 SHL SUB NOT AND SWAP2 SWAP1 SWAP3 AND OR SWAP1 SSTORE PUSH2 0xC4 JUMP JUMPDEST DUP1 MLOAD PUSH1 0x1 PUSH1 0x1 PUSH1 0xA0 SHL SUB DUP2 AND DUP2 EQ PUSH2 0x8C JUMPI PUSH1 0x0 DUP1 REVERT JUMPDEST SWAP2 SWAP1 POP JUMP JUMPDEST PUSH1 0x0 DUP1 PUSH1 0x40 DUP4 DUP6 SUB SLT ISZERO PUSH2 0xA4 JUMPI PUSH1 0x0 DUP1 REVERT JUMPDEST PUSH2 0xAD DUP4 PUSH2 0x75 JUMP JUMPDEST SWAP2 POP PUSH2 0xBB PUSH1 0x20 DUP5 ADD PUSH2 0x75 JUMP JUMPDEST SWAP1 POP SWAP3 POP SWAP3 SWAP1 POP JUMP JUMPDEST PUSH2 0x1460 DUP1 PUSH2 0xD3 PUSH1 0x0 CODECOPY PUSH1 0x0 RETURN INVALID PUSH1 0x80 PUSH1 0x40 MSTORE CALLVALUE DUP1 ISZERO PUSH2 0x10 JUMPI PUSH1 0x0 DUP1 REVERT JUMPDEST POP PUSH1 0x4 CALLDATASIZE LT PUSH2 0x12C JUMPI PUSH1 0x0 CALLDATALOAD PUSH1 0xE0 SHR DUP1 PUSH4 0x6F9FB98A GT PUSH2 0xAD JUMPI DUP1 PUSH4 0xAE030F22 GT PUSH2 0x71 JUMPI DUP1 PUSH4 0xAE030F22 EQ PUSH2 0x2B8 JUMPI DUP1 PUSH4 0xD54AD2A1 EQ PUSH2 0x2CB JUMPI DUP1 PUSH4 0xDDDB3C44 EQ PUSH2 0x2D4 JUMPI DUP1 PUSH4 0xE6A4E252 EQ PUSH2 0x307 JUMPI DUP1 PUSH4 0xEFCA2EED EQ PUSH2 0x327 JUMPI PUSH1 0x0 DUP1 REVERT JUMPDEST DUP1 PUSH4 0x6F9FB98A EQ PUSH2 0x241 JUMPI DUP1 PUSH4 0x78F39661 EQ PUSH2 0x249 JUMPI DUP1 PUSH4 0x7A526F4E EQ PUSH2 0x274 JUMPI DUP1 PUSH4 0x8612CCF8 EQ PUSH2 0x27D JUMPI DUP1 PUSH4 0x95DDABFA EQ PUSH2 0x285 JUMPI PUSH1 0x0 DUP1 REVERT JUMPDEST DUP1 PUSH4 0x2F48AB7D GT PUSH2 0xF4 JUMPI DUP1 PUSH4 0x2F48AB7D EQ PUSH2 0x1C2 JUMPI DUP1 PUSH4 0x39D337AF EQ PUSH2 0x1DA JUMPI DUP1 PUSH4 0x507C398C EQ PUSH2 0x1FB JUMPI DUP1 PUSH4 0x61C23298 EQ PUSH2 0x20E JUMPI DUP1 PUSH4 0x649ACA4A EQ PUSH2 0x221 JUMPI PUSH1 0x0 DUP1 REVERT JUMPDEST DUP1 PUSH4 0x1022944C EQ PUSH2 0x131 JUMPI DUP1 PUSH4 0x13007D55 EQ PUSH2 0x169 JUMPI DUP1 PUSH4 0x1817182B EQ PUSH2 0x17C JUMPI DUP1 PUSH4 0x219CB9A5 EQ PUSH2 0x196 JUMPI DUP1 PUSH4 0x2E75AB50 EQ PUSH2 0x1AD JUMPI JUMPDEST PUSH1 0x0 DUP1 REVERT JUMPDEST PUSH2 0x14C PUSH20 0x31EA4BA7E1C5729C352E846549E9B5745F3C66E DUP2 JUMP JUMPDEST PUSH1 0x40 MLOAD PUSH1 0x1 PUSH1 0x1 PUSH1 0xA0 SHL SUB SWAP1 SWAP2 AND DUP2 MSTORE PUSH1 0x20 ADD JUMPDEST PUSH1 0x40 MLOAD DUP1 SWAP2 SUB SWAP1 RETURN JUMPDEST PUSH1 0x1 SLOAD PUSH2 0x14C SWAP1 PUSH1 0x1 PUSH1 0x1 PUSH1 0xA0 SHL SUB AND DUP2 JUMP JUMPDEST PUSH2 0x184 PUSH1 0x5 DUP2 JUMP JUMPDEST PUSH1 0x40 MLOAD PUSH1 0xFF SWAP1 SWAP2 AND DUP2 MSTORE PUSH1 0x20 ADD PUSH2 0x160 JUMP JUMPDEST PUSH2 0x19F PUSH1 0x3 SLOAD DUP2 JUMP JUMPDEST PUSH1 0x40 MLOAD SWAP1 DUP2 MSTORE PUSH1 0x20 ADD PUSH2 0x160 JUMP JUMPDEST PUSH2 0x1C0 PUSH2 0x1BB CALLDATASIZE PUSH1 0x4 PUSH2 0x110D JUMP JUMPDEST PUSH2 0x330 JUMP JUMPDEST STOP JUMPDEST PUSH1 0x0 SLOAD PUSH2 0x14C SWAP1 PUSH2 0x100 SWAP1 DIV PUSH1 0x1 PUSH1 0x1 PUSH1 0xA0 SHL SUB AND DUP2 JUMP JUMPDEST PUSH2 0x1ED PUSH2 0x1E8 CALLDATASIZE PUSH1 0x4 PUSH2 0x1142 JUMP JUMPDEST PUSH2 0x460 JUMP JUMPDEST PUSH1 0x40 MLOAD PUSH2 0x160 SWAP3 SWAP2 SWAP1 PUSH2 0x115D JUMP JUMPDEST PUSH2 0x1C0 PUSH2 0x209 CALLDATASIZE PUSH1 0x4 PUSH2 0x11E1 JUMP JUMPDEST PUSH2 0x512 JUMP JUMPDEST PUSH2 0x1C0 PUSH2 0x21C CALLDATASIZE PUSH1 0x4 PUSH2 0x1284 JUMP JUMPDEST PUSH2 0x994 JUMP JUMPDEST PUSH2 0x19F PUSH2 0x22F CALLDATASIZE PUSH1 0x4 PUSH2 0x1142 JUMP JUMPDEST PUSH1 0x7 PUSH1 0x20 MSTORE PUSH1 0x0 SWAP1 DUP2 MSTORE PUSH1 0x40 SWAP1 KECCAK256 SLOAD DUP2 JUMP JUMPDEST PUSH2 0x19F PUSH2 0xADB JUMP JUMPDEST PUSH2 0x19F PUSH2 0x257 CALLDATASIZE PUSH1 0x4 PUSH2 0x12BF JUMP JUMPDEST PUSH1 0x5 PUSH1 0x20 SWAP1 DUP2 MSTORE PUSH1 0x0 SWAP3 DUP4 MSTORE PUSH1 0x40 DUP1 DUP5 KECCAK256 SWAP1 SWAP2 MSTORE SWAP1 DUP3 MSTORE SWAP1 KECCAK256 SLOAD DUP2 JUMP JUMPDEST PUSH2 0x19F PUSH1 0x2 SLOAD DUP2 JUMP JUMPDEST PUSH2 0x1C0 PUSH2 0xB51 JUMP JUMPDEST PUSH2 0x2A8 PUSH2 0x293 CALLDATASIZE PUSH1 0x4 PUSH2 0x110D JUMP JUMPDEST PUSH1 0x4 PUSH1 0x20 MSTORE PUSH1 0x0 SWAP1 DUP2 MSTORE PUSH1 0x40 SWAP1 KECCAK256 SLOAD PUSH1 0xFF AND DUP2 JUMP JUMPDEST PUSH1 0x40 MLOAD SWAP1 ISZERO ISZERO DUP2 MSTORE PUSH1 0x20 ADD PUSH2 0x160 JUMP JUMPDEST PUSH2 0x1C0 PUSH2 0x2C6 CALLDATASIZE PUSH1 0x4 PUSH2 0x110D JUMP JUMPDEST PUSH2 0xF23 JUMP JUMPDEST PUSH2 0x19F PUSH1 0x9 SLOAD DUP2 JUMP JUMPDEST PUSH2 0x2E7 PUSH2 0x2E2 CALLDATASIZE PUSH1 0x4 PUSH2 0x1142 JUMP JUMPDEST PUSH2 0x1041 JUMP JUMPDEST PUSH1 0x40 DUP1 MLOAD SWAP5 DUP6 MSTORE PUSH1 0x20 DUP6 ADD SWAP4 SWAP1 SWAP4 MSTORE SWAP2 DUP4 ADD MSTORE PUSH1 0x60 DUP3 ADD MSTORE PUSH1 0x80 ADD PUSH2 0x160 JUMP JUMPDEST PUSH2 0x19F PUSH2 0x315 CALLDATASIZE PUSH1 0x4 PUSH2 0x1142 JUMP JUMPDEST PUSH1 0x6 PUSH1 0x20 MSTORE PUSH1 0x0 SWAP1 DUP2 MSTORE PUSH1 0x40 SWAP1 KECCAK256 SLOAD DUP2 JUMP JUMPDEST PUSH2 0x19F PUSH1 0x8 SLOAD DUP2 JUMP JUMPDEST PUSH1 0x1 SLOAD PUSH1 0x40 MLOAD PUSH4 0x935E01B PUSH1 0xE2 SHL DUP2 MSTORE CALLER PUSH1 0x4 DUP3 ADD MSTORE PUSH1 0x1 PUSH1 0x1 PUSH1 0xA0 SHL SUB SWAP1 SWAP2 AND SWAP1 PUSH4 0x24D7806C SWAP1 PUSH1 0x24 ADD PUSH1 0x20 PUSH1 0x40 MLOAD DUP1 DUP4 SUB DUP2 DUP7 GAS STATICCALL ISZERO DUP1 ISZERO PUSH2 0x378 JUMPI RETURNDATASIZE PUSH1 0x0 DUP1 RETURNDATACOPY RETURNDATASIZE PUSH1 0x0 REVERT JUMPDEST POP POP POP POP PUSH1 0x40 MLOAD RETURNDATASIZE PUSH1 0x1F NOT PUSH1 0x1F DUP3 ADD AND DUP3 ADD DUP1 PUSH1 0x40 MSTORE POP DUP2 ADD SWAP1 PUSH2 0x39C SWAP2 SWAP1 PUSH2 0x12F2 JUMP JUMPDEST PUSH2 0x3D9 JUMPI PUSH1 0x40 MLOAD PUSH3 0x461BCD PUSH1 0xE5 SHL DUP2 MSTORE PUSH1 0x20 PUSH1 0x4 DUP3 ADD MSTORE PUSH1 0x9 PUSH1 0x24 DUP3 ADD MSTORE PUSH9 0x2737BA1030B236B4B7 PUSH1 0xB9 SHL PUSH1 0x44 DUP3 ADD MSTORE PUSH1 0x64 ADD JUMPDEST PUSH1 0x40 MLOAD DUP1 SWAP2 SUB SWAP1 REVERT JUMPDEST PUSH2 0x1388 DUP2 GT ISZERO PUSH2 0x41A JUMPI PUSH1 0x40 MLOAD PUSH3 0x461BCD PUSH1 0xE5 SHL DUP2 MSTORE PUSH1 0x20 PUSH1 0x4 DUP3 ADD MSTORE PUSH1 0xC PUSH1 0x24 DUP3 ADD MSTORE PUSH12 0x8CCACA40E8DEDE40D0D2CED PUSH1 0xA3 SHL PUSH1 0x44 DUP3 ADD MSTORE PUSH1 0x64 ADD PUSH2 0x3D0 JUMP JUMPDEST PUSH1 0x2 DUP1 SLOAD SWAP1 DUP3 SWAP1 SSTORE PUSH1 0x40 DUP1 MLOAD DUP3 DUP2 MSTORE PUSH1 0x20 DUP2 ADD DUP5 SWAP1 MSTORE PUSH32 0x3C4E14C3F450A320DE9683E5FFEEC6E95E4E02755F862E36FF6F8F6C21086F60 SWAP2 ADD JUMPDEST PUSH1 0x40 MLOAD DUP1 SWAP2 SUB SWAP1 LOG1 POP POP JUMP JUMPDEST PUSH2 0x468 PUSH2 0x10EF JUMP JUMPDEST PUSH1 0x0 PUSH1 0x1 JUMPDEST PUSH1 0x5 PUSH1 0xFF DUP3 AND GT PUSH2 0x50C JUMPI PUSH1 0x1 PUSH1 0x1 PUSH1 0xA0 SHL SUB DUP5 AND PUSH1 0x0 SWAP1 DUP2 MSTORE PUSH1 0x5 PUSH1 0x20 SWAP1 DUP2 MSTORE PUSH1 0x40 DUP1 DUP4 KECCAK256 PUSH1 0xFF DUP6 AND DUP5 MSTORE SWAP1 SWAP2 MSTORE SWAP1 KECCAK256 SLOAD DUP4 PUSH2 0x4AB PUSH1 0x1 DUP5 PUSH2 0x132A JUMP JUMPDEST PUSH1 0xFF AND PUSH1 0x5 DUP2 LT PUSH2 0x4BE JUMPI PUSH2 0x4BE PUSH2 0x1349 JUMP JUMPDEST PUSH1 0x20 SWAP1 DUP2 MUL SWAP2 SWAP1 SWAP2 ADD SWAP2 SWAP1 SWAP2 MSTORE PUSH1 0x1 PUSH1 0x1 PUSH1 0xA0 SHL SUB DUP6 AND PUSH1 0x0 SWAP1 DUP2 MSTORE PUSH1 0x5 DUP3 MSTORE PUSH1 0x40 DUP1 DUP3 KECCAK256 PUSH1 0xFF DUP6 AND DUP4 MSTORE SWAP1 SWAP3 MSTORE KECCAK256 SLOAD PUSH2 0x4F8 SWAP1 DUP4 PUSH2 0x135F JUMP JUMPDEST SWAP2 POP DUP1 PUSH2 0x504 DUP2 PUSH2 0x1372 JUMP JUMPDEST SWAP2 POP POP PUSH2 0x46D JUMP JUMPDEST POP SWAP2 POP SWAP2 JUMP JUMPDEST PUSH1 0x1 SLOAD PUSH1 0x40 MLOAD PUSH4 0x1FD3F77 PUSH1 0xE7 SHL DUP2 MSTORE CALLER PUSH1 0x4 DUP3 ADD MSTORE PUSH1 0x1 PUSH1 0x1 PUSH1 0xA0 SHL SUB SWAP1 SWAP2 AND SWAP1 PUSH4 0xFE9FBB80 SWAP1 PUSH1 0x24 ADD PUSH1 0x20 PUSH1 0x40 MLOAD DUP1 DUP4 SUB DUP2 DUP7 GAS STATICCALL ISZERO DUP1 ISZERO PUSH2 0x55A JUMPI RETURNDATASIZE PUSH1 0x0 DUP1 RETURNDATACOPY RETURNDATASIZE PUSH1 0x0 REVERT JUMPDEST POP POP POP POP PUSH1 0x40 MLOAD RETURNDATASIZE PUSH1 0x1F NOT PUSH1 0x1F DUP3 ADD AND DUP3 ADD DUP1 PUSH1 0x40 MSTORE POP DUP2 ADD SWAP1 PUSH2 0x57E SWAP2 SWAP1 PUSH2 0x12F2 JUMP JUMPDEST PUSH2 0x5BB JUMPI PUSH1 0x40 MLOAD PUSH3 0x461BCD PUSH1 0xE5 SHL DUP2 MSTORE PUSH1 0x20 PUSH1 0x4 DUP3 ADD MSTORE PUSH1 0xE PUSH1 0x24 DUP3 ADD MSTORE PUSH14 0x139BDD08185D5D1A1BDC9A5E9959 PUSH1 0x92 SHL PUSH1 0x44 DUP3 ADD MSTORE PUSH1 0x64 ADD PUSH2 0x3D0 JUMP JUMPDEST DUP6 DUP5 EQ DUP1 ISZERO PUSH2 0x5C9 JUMPI POP DUP4 DUP3 EQ JUMPDEST PUSH2 0x607 JUMPI PUSH1 0x40 MLOAD PUSH3 0x461BCD PUSH1 0xE5 SHL DUP2 MSTORE PUSH1 0x20 PUSH1 0x4 DUP3 ADD MSTORE PUSH1 0xF PUSH1 0x24 DUP3 ADD MSTORE PUSH15 0x98CADCCEE8D040DAD2E6DAC2E8C6D PUSH1 0x8B SHL PUSH1 0x44 DUP3 ADD MSTORE PUSH1 0x64 ADD PUSH2 0x3D0 JUMP JUMPDEST DUP6 PUSH2 0x643 JUMPI PUSH1 0x40 MLOAD PUSH3 0x461BCD PUSH1 0xE5 SHL DUP2 MSTORE PUSH1 0x20 PUSH1 0x4 DUP3 ADD MSTORE PUSH1 0xC PUSH1 0x24 DUP3 ADD MSTORE PUSH12 0x456D70747920617272617973 PUSH1 0xA0 SHL PUSH1 0x44 DUP3 ADD MSTORE PUSH1 0x64 ADD PUSH2 0x3D0 JUMP JUMPDEST PUSH1 0x0 DUP2 DUP2 MSTORE PUSH1 0x4 PUSH1 0x20 MSTORE PUSH1 0x40 SWAP1 KECCAK256 SLOAD PUSH1 0xFF AND ISZERO PUSH2 0x6A2 JUMPI PUSH1 0x40 MLOAD PUSH3 0x461BCD PUSH1 0xE5 SHL DUP2 MSTORE PUSH1 0x20 PUSH1 0x4 DUP3 ADD MSTORE PUSH1 0x17 PUSH1 0x24 DUP3 ADD MSTORE PUSH32 0x45706F636820616C72656164792070726F636573736564000000000000000000 PUSH1 0x44 DUP3 ADD MSTORE PUSH1 0x64 ADD PUSH2 0x3D0 JUMP JUMPDEST PUSH1 0x0 DUP2 DUP2 MSTORE PUSH1 0x4 PUSH1 0x20 MSTORE PUSH1 0x40 DUP2 KECCAK256 DUP1 SLOAD PUSH1 0xFF NOT AND PUSH1 0x1 OR SWAP1 SSTORE DUP1 JUMPDEST DUP8 DUP2 LT ISZERO PUSH2 0x937 JUMPI PUSH1 0x0 DUP10 DUP10 DUP4 DUP2 DUP2 LT PUSH2 0x6D9 JUMPI PUSH2 0x6D9 PUSH2 0x1349 JUMP JUMPDEST SWAP1 POP PUSH1 0x20 MUL ADD PUSH1 0x20 DUP2 ADD SWAP1 PUSH2 0x6EE SWAP2 SWAP1 PUSH2 0x1142 JUMP JUMPDEST SWAP1 POP PUSH1 0x0 DUP9 DUP9 DUP5 DUP2 DUP2 LT PUSH2 0x704 JUMPI PUSH2 0x704 PUSH2 0x1349 JUMP JUMPDEST SWAP1 POP PUSH1 0x20 MUL ADD PUSH1 0x20 DUP2 ADD SWAP1 PUSH2 0x719 SWAP2 SWAP1 PUSH2 0x1391 JUMP JUMPDEST SWAP1 POP PUSH1 0x0 DUP8 DUP8 DUP6 DUP2 DUP2 LT PUSH2 0x72F JUMPI PUSH2 0x72F PUSH2 0x1349 JUMP JUMPDEST SWAP1 POP PUSH1 0x20 MUL ADD CALLDATALOAD SWAP1 POP PUSH1 0x1 DUP3 PUSH1 0xFF AND LT ISZERO DUP1 ISZERO PUSH2 0x750 JUMPI POP PUSH1 0x5 PUSH1 0xFF DUP4 AND GT ISZERO JUMPDEST PUSH2 0x78B JUMPI PUSH1 0x40 MLOAD PUSH3 0x461BCD PUSH1 0xE5 SHL DUP2 MSTORE PUSH1 0x20 PUSH1 0x4 DUP3 ADD MSTORE PUSH1 0xC PUSH1 0x24 DUP3 ADD MSTORE PUSH12 0x496E76616C69642074797065 PUSH1 0xA0 SHL PUSH1 0x44 DUP3 ADD MSTORE PUSH1 0x64 ADD PUSH2 0x3D0 JUMP JUMPDEST PUSH1 0x1 PUSH1 0x1 PUSH1 0xA0 SHL SUB DUP4 AND ISZERO DUP1 PUSH2 0x79F JUMPI POP DUP1 ISZERO JUMPDEST ISZERO PUSH2 0x7AC JUMPI POP POP POP PUSH2 0x925 JUMP JUMPDEST PUSH1 0x0 PUSH2 0x7B7 DUP5 PUSH2 0x10A5 JUMP JUMPDEST SWAP1 POP DUP2 DUP2 ISZERO PUSH2 0x807 JUMPI PUSH1 0x1 PUSH1 0x1 PUSH1 0xA0 SHL SUB DUP6 AND PUSH1 0x0 SWAP1 DUP2 MSTORE PUSH1 0x7 PUSH1 0x20 MSTORE PUSH1 0x40 SWAP1 KECCAK256 SLOAD DUP3 DUP2 LT PUSH2 0x7E9 JUMPI PUSH1 0x0 SWAP2 POP PUSH2 0x805 JUMP JUMPDEST PUSH1 0x0 PUSH2 0x7F5 DUP3 DUP6 PUSH2 0x13AC JUMP JUMPDEST SWAP1 POP DUP1 DUP6 GT ISZERO PUSH2 0x803 JUMPI DUP1 SWAP3 POP JUMPDEST POP JUMPDEST POP JUMPDEST DUP1 ISZERO PUSH2 0x8D4 JUMPI PUSH1 0x1 PUSH1 0x1 PUSH1 0xA0 SHL SUB DUP6 AND PUSH1 0x0 SWAP1 DUP2 MSTORE PUSH1 0x5 PUSH1 0x20 SWAP1 DUP2 MSTORE PUSH1 0x40 DUP1 DUP4 KECCAK256 PUSH1 0xFF DUP9 AND DUP5 MSTORE SWAP1 SWAP2 MSTORE DUP2 KECCAK256 DUP1 SLOAD DUP4 SWAP3 SWAP1 PUSH2 0x843 SWAP1 DUP5 SWAP1 PUSH2 0x135F JUMP JUMPDEST SWAP1 SWAP2 SSTORE POP POP PUSH1 0x1 PUSH1 0x1 PUSH1 0xA0 SHL SUB DUP6 AND PUSH1 0x0 SWAP1 DUP2 MSTORE PUSH1 0x7 PUSH1 0x20 MSTORE PUSH1 0x40 DUP2 KECCAK256 DUP1 SLOAD DUP4 SWAP3 SWAP1 PUSH2 0x870 SWAP1 DUP5 SWAP1 PUSH2 0x135F JUMP JUMPDEST SWAP1 SWAP2 SSTORE POP PUSH2 0x880 SWAP1 POP DUP2 DUP9 PUSH2 0x135F JUMP JUMPDEST SWAP7 POP DUP3 DUP2 LT ISZERO PUSH2 0x8CF JUMPI PUSH1 0x40 DUP1 MLOAD DUP5 DUP2 MSTORE PUSH1 0x20 DUP2 ADD DUP4 SWAP1 MSTORE PUSH1 0x1 PUSH1 0x1 PUSH1 0xA0 SHL SUB DUP8 AND SWAP2 PUSH32 0x37DA3507ED568B4786A62E731099245F3A611B84737C0E9415BCCD7F2C708C40 SWAP2 ADD PUSH1 0x40 MLOAD DUP1 SWAP2 SUB SWAP1 LOG2 JUMPDEST PUSH2 0x91F JUMP JUMPDEST DUP3 ISZERO PUSH2 0x91F JUMPI PUSH1 0x40 DUP1 MLOAD DUP5 DUP2 MSTORE PUSH1 0x0 PUSH1 0x20 DUP3 ADD MSTORE PUSH1 0x1 PUSH1 0x1 PUSH1 0xA0 SHL SUB DUP8 AND SWAP2 PUSH32 0x37DA3507ED568B4786A62E731099245F3A611B84737C0E9415BCCD7F2C708C40 SWAP2 ADD PUSH1 0x40 MLOAD DUP1 SWAP2 SUB SWAP1 LOG2 JUMPDEST POP POP POP POP POP JUMPDEST DUP1 PUSH2 0x92F DUP2 PUSH2 0x13BF JUMP JUMPDEST SWAP2 POP POP PUSH2 0x6BD JUMP JUMPDEST POP DUP1 PUSH1 0x8 PUSH1 0x0 DUP3 DUP3 SLOAD PUSH2 0x94A SWAP2 SWAP1 PUSH2 0x135F JUMP JUMPDEST SWAP1 SWAP2 SSTORE POP POP PUSH1 0x40 DUP1 MLOAD DUP3 DUP2 MSTORE PUSH1 0x20 DUP2 ADD DUP10 SWAP1 MSTORE DUP4 SWAP2 PUSH32 0x42F49C983FD70FD8BF72331732AA9B36D97E6B2E918C86E01185DC8C11CE5ED4 SWAP2 ADD PUSH1 0x40 MLOAD DUP1 SWAP2 SUB SWAP1 LOG2 POP POP POP POP POP POP POP POP JUMP JUMPDEST PUSH1 0x1 SLOAD PUSH1 0x40 MLOAD PUSH4 0x1FD3F77 PUSH1 0xE7 SHL DUP2 MSTORE CALLER PUSH1 0x4 DUP3 ADD MSTORE PUSH1 0x1 PUSH1 0x1 PUSH1 0xA0 SHL SUB SWAP1 SWAP2 AND SWAP1 PUSH4 0xFE9FBB80 SWAP1 PUSH1 0x24 ADD PUSH1 0x20 PUSH1 0x40 MLOAD DUP1 DUP4 SUB DUP2 DUP7 GAS STATICCALL ISZERO DUP1 ISZERO PUSH2 0x9DC JUMPI RETURNDATASIZE PUSH1 0x0 DUP1 RETURNDATACOPY RETURNDATASIZE PUSH1 0x0 REVERT JUMPDEST POP POP POP POP PUSH1 0x40 MLOAD RETURNDATASIZE PUSH1 0x1F NOT PUSH1 0x1F DUP3 ADD AND DUP3 ADD DUP1 PUSH1 0x40 MSTORE POP DUP2 ADD SWAP1 PUSH2 0xA00 SWAP2 SWAP1 PUSH2 0x12F2 JUMP JUMPDEST PUSH2 0xA3D JUMPI PUSH1 0x40 MLOAD PUSH3 0x461BCD PUSH1 0xE5 SHL DUP2 MSTORE PUSH1 0x20 PUSH1 0x4 DUP3 ADD MSTORE PUSH1 0xE PUSH1 0x24 DUP3 ADD MSTORE PUSH14 0x139BDD08185D5D1A1BDC9A5E9959 PUSH1 0x92 SHL PUSH1 0x44 DUP3 ADD MSTORE PUSH1 0x64 ADD PUSH2 0x3D0 JUMP JUMPDEST PUSH1 0x1 PUSH1 0x1 PUSH1 0xA0 SHL SUB DUP3 AND PUSH2 0xA82 JUMPI PUSH1 0x40 MLOAD PUSH3 0x461BCD PUSH1 0xE5 SHL DUP2 MSTORE PUSH1 0x20 PUSH1 0x4 DUP3 ADD MSTORE PUSH1 0xC PUSH1 0x24 DUP3 ADD MSTORE PUSH12 0x5A65726F2061646472657373 PUSH1 0xA0 SHL PUSH1 0x44 DUP3 ADD MSTORE PUSH1 0x64 ADD PUSH2 0x3D0 JUMP JUMPDEST PUSH1 0x1 PUSH1 0x1 PUSH1 0xA0 SHL SUB DUP3 AND PUSH1 0x0 DUP2 DUP2 MSTORE PUSH1 0x6 PUSH1 0x20 MSTORE PUSH1 0x40 SWAP1 DUP2 SWAP1 KECCAK256 DUP4 SWAP1 SSTORE MLOAD PUSH32 0x80D77F5375690528BFCA7285EC6A99C381B5413A71BF676AFA412F6B839A9CD8 SWAP1 PUSH2 0xACF SWAP1 DUP5 DUP2 MSTORE PUSH1 0x20 ADD SWAP1 JUMP JUMPDEST PUSH1 0x40 MLOAD DUP1 SWAP2 SUB SWAP1 LOG2 POP POP JUMP JUMPDEST PUSH1 0x0 DUP1 SLOAD PUSH1 0x40 MLOAD PUSH4 0x70A08231 PUSH1 0xE0 SHL DUP2 MSTORE ADDRESS PUSH1 0x4 DUP3 ADD MSTORE PUSH2 0x100 SWAP1 SWAP2 DIV PUSH1 0x1 PUSH1 0x1 PUSH1 0xA0 SHL SUB AND SWAP1 PUSH4 0x70A08231 SWAP1 PUSH1 0x24 ADD PUSH1 0x20 PUSH1 0x40 MLOAD DUP1 DUP4 SUB DUP2 DUP7 GAS STATICCALL ISZERO DUP1 ISZERO PUSH2 0xB28 JUMPI RETURNDATASIZE PUSH1 0x0 DUP1 RETURNDATACOPY RETURNDATASIZE PUSH1 0x0 REVERT JUMPDEST POP POP POP POP PUSH1 0x40 MLOAD RETURNDATASIZE PUSH1 0x1F NOT PUSH1 0x1F DUP3 ADD AND DUP3 ADD DUP1 PUSH1 0x40 MSTORE POP DUP2 ADD SWAP1 PUSH2 0xB4C SWAP2 SWAP1 PUSH2 0x13D8 JUMP JUMPDEST SWAP1 POP SWAP1 JUMP JUMPDEST PUSH1 0x0 SLOAD PUSH1 0xFF AND ISZERO PUSH2 0xB96 JUMPI PUSH1 0x40 MLOAD PUSH3 0x461BCD PUSH1 0xE5 SHL DUP2 MSTORE PUSH1 0x20 PUSH1 0x4 DUP3 ADD MSTORE PUSH1 0xF PUSH1 0x24 DUP3 ADD MSTORE PUSH15 0x1499595B9D1C985B98DE51DD585C99 PUSH1 0x8A SHL PUSH1 0x44 DUP3 ADD MSTORE PUSH1 0x64 ADD PUSH2 0x3D0 JUMP JUMPDEST PUSH1 0x0 DUP1 SLOAD PUSH1 0xFF NOT AND PUSH1 0x1 SWAP1 DUP2 OR SWAP1 SWAP2 SSTORE SLOAD PUSH1 0x40 MLOAD PUSH4 0xBD4611B PUSH1 0xE3 SHL DUP2 MSTORE CALLER PUSH1 0x4 DUP3 ADD MSTORE PUSH1 0x1 PUSH1 0x1 PUSH1 0xA0 SHL SUB SWAP1 SWAP2 AND SWAP1 PUSH4 0x5EA308D8 SWAP1 PUSH1 0x24 ADD PUSH1 0x20 PUSH1 0x40 MLOAD DUP1 DUP4 SUB DUP2 DUP7 GAS STATICCALL ISZERO DUP1 ISZERO PUSH2 0xBEC JUMPI RETURNDATASIZE PUSH1 0x0 DUP1 RETURNDATACOPY RETURNDATASIZE PUSH1 0x0 REVERT JUMPDEST POP POP POP POP PUSH1 0x40 MLOAD RETURNDATASIZE PUSH1 0x1F NOT PUSH1 0x1F DUP3 ADD AND DUP3 ADD DUP1 PUSH1 0x40 MSTORE POP DUP2 ADD SWAP1 PUSH2 0xC10 SWAP2 SWAP1 PUSH2 0x12F2 JUMP JUMPDEST ISZERO PUSH2 0xC4D JUMPI PUSH1 0x40 MLOAD PUSH3 0x461BCD PUSH1 0xE5 SHL DUP2 MSTORE PUSH1 0x20 PUSH1 0x4 DUP3 ADD MSTORE PUSH1 0xD PUSH1 0x24 DUP3 ADD MSTORE PUSH13 0x10DB185A5B5CC81B1BD8DAD959 PUSH1 0x9A SHL PUSH1 0x44 DUP3 ADD MSTORE PUSH1 0x64 ADD PUSH2 0x3D0 JUMP JUMPDEST PUSH1 0x0 PUSH1 0x1 JUMPDEST PUSH1 0x5 PUSH1 0xFF DUP3 AND GT PUSH2 0xCB7 JUMPI CALLER PUSH1 0x0 SWAP1 DUP2 MSTORE PUSH1 0x5 PUSH1 0x20 SWAP1 DUP2 MSTORE PUSH1 0x40 DUP1 DUP4 KECCAK256 PUSH1 0xFF DUP6 AND DUP5 MSTORE SWAP1 SWAP2 MSTORE SWAP1 KECCAK256 SLOAD PUSH2 0xC85 SWAP1 DUP4 PUSH2 0x135F JUMP JUMPDEST CALLER PUSH1 0x0 SWAP1 DUP2 MSTORE PUSH1 0x5 PUSH1 0x20 SWAP1 DUP2 MSTORE PUSH1 0x40 DUP1 DUP4 KECCAK256 PUSH1 0xFF DUP7 AND DUP5 MSTORE SWAP1 SWAP2 MSTORE DUP2 KECCAK256 SSTORE SWAP2 POP DUP1 PUSH2 0xCAF DUP2 PUSH2 0x1372 JUMP JUMPDEST SWAP2 POP POP PUSH2 0xC52 JUMP JUMPDEST POP PUSH1 0x0 DUP2 GT PUSH2 0xCFB JUMPI PUSH1 0x40 MLOAD PUSH3 0x461BCD PUSH1 0xE5 SHL DUP2 MSTORE PUSH1 0x20 PUSH1 0x4 DUP3 ADD MSTORE PUSH1 0x10 PUSH1 0x24 DUP3 ADD MSTORE PUSH16 0x4E6F7468696E6720746F20636C61696D PUSH1 0x80 SHL PUSH1 0x44 DUP3 ADD MSTORE PUSH1 0x64 ADD PUSH2 0x3D0 JUMP JUMPDEST PUSH1 0x0 PUSH2 0x2710 PUSH1 0x2 SLOAD DUP4 PUSH2 0xD0E SWAP2 SWAP1 PUSH2 0x13F1 JUMP JUMPDEST PUSH2 0xD18 SWAP2 SWAP1 PUSH2 0x1408 JUMP JUMPDEST SWAP1 POP PUSH1 0x0 PUSH2 0xD26 DUP3 DUP5 PUSH2 0x13AC JUMP JUMPDEST SWAP1 POP DUP2 ISZERO PUSH2 0xDFD JUMPI PUSH1 0x0 SLOAD PUSH1 0x40 MLOAD PUSH4 0xA9059CBB PUSH1 0xE0 SHL DUP2 MSTORE PUSH20 0x31EA4BA7E1C5729C352E846549E9B5745F3C66E PUSH1 0x4 DUP3 ADD MSTORE PUSH1 0x24 DUP2 ADD DUP5 SWAP1 MSTORE PUSH2 0x100 SWAP1 SWAP2 DIV PUSH1 0x1 PUSH1 0x1 PUSH1 0xA0 SHL SUB AND SWAP1 PUSH4 0xA9059CBB SWAP1 PUSH1 0x44 ADD PUSH1 0x20 PUSH1 0x40 MLOAD DUP1 DUP4 SUB DUP2 PUSH1 0x0 DUP8 GAS CALL ISZERO DUP1 ISZERO PUSH2 0xD97 JUMPI RETURNDATASIZE PUSH1 0x0 DUP1 RETURNDATACOPY RETURNDATASIZE PUSH1 0x0 REVERT JUMPDEST POP POP POP POP PUSH1 0x40 MLOAD RETURNDATASIZE PUSH1 0x1F NOT PUSH1 0x1F DUP3 ADD AND DUP3 ADD DUP1 PUSH1 0x40 MSTORE POP DUP2 ADD SWAP1 PUSH2 0xDBB SWAP2 SWAP1 PUSH2 0x12F2 JUMP JUMPDEST PUSH2 0xDFD JUMPI PUSH1 0x40 MLOAD PUSH3 0x461BCD PUSH1 0xE5 SHL DUP2 MSTORE PUSH1 0x20 PUSH1 0x4 DUP3 ADD MSTORE PUSH1 0x13 PUSH1 0x24 DUP3 ADD MSTORE PUSH19 0x119959481D1C985B9CD9995C8819985A5B1959 PUSH1 0x6A SHL PUSH1 0x44 DUP3 ADD MSTORE PUSH1 0x64 ADD PUSH2 0x3D0 JUMP JUMPDEST PUSH1 0x0 SLOAD PUSH1 0x40 MLOAD PUSH4 0xA9059CBB PUSH1 0xE0 SHL DUP2 MSTORE CALLER PUSH1 0x4 DUP3 ADD MSTORE PUSH1 0x24 DUP2 ADD DUP4 SWAP1 MSTORE PUSH2 0x100 SWAP1 SWAP2 DIV PUSH1 0x1 PUSH1 0x1 PUSH1 0xA0 SHL SUB AND SWAP1 PUSH4 0xA9059CBB SWAP1 PUSH1 0x44 ADD PUSH1 0x20 PUSH1 0x40 MLOAD DUP1 DUP4 SUB DUP2 PUSH1 0x0 DUP8 GAS CALL ISZERO DUP1 ISZERO PUSH2 0xE52 JUMPI RETURNDATASIZE PUSH1 0x0 DUP1 RETURNDATACOPY RETURNDATASIZE PUSH1 0x0 REVERT JUMPDEST POP POP POP POP PUSH1 0x40 MLOAD RETURNDATASIZE PUSH1 0x1F NOT PUSH1 0x1F DUP3 ADD AND DUP3 ADD DUP1 PUSH1 0x40 MSTORE POP DUP2 ADD SWAP1 PUSH2 0xE76 SWAP2 SWAP1 PUSH2 0x12F2 JUMP JUMPDEST PUSH2 0xEBA JUMPI PUSH1 0x40 MLOAD PUSH3 0x461BCD PUSH1 0xE5 SHL DUP2 MSTORE PUSH1 0x20 PUSH1 0x4 DUP3 ADD MSTORE PUSH1 0x15 PUSH1 0x24 DUP3 ADD MSTORE PUSH21 0x10DB185A5B481D1C985B9CD9995C8819985A5B1959 PUSH1 0x5A SHL PUSH1 0x44 DUP3 ADD MSTORE PUSH1 0x64 ADD PUSH2 0x3D0 JUMP JUMPDEST DUP3 PUSH1 0x9 PUSH1 0x0 DUP3 DUP3 SLOAD PUSH2 0xECC SWAP2 SWAP1 PUSH2 0x135F JUMP JUMPDEST SWAP1 SWAP2 SSTORE POP POP PUSH1 0x40 DUP1 MLOAD DUP5 DUP2 MSTORE PUSH1 0x20 DUP2 ADD DUP5 SWAP1 MSTORE SWAP1 DUP2 ADD DUP3 SWAP1 MSTORE CALLER SWAP1 PUSH32 0x6F39318C760AD4D630F57BA8F8D3C21B8E1DEB076E19476D1DECE4E3D737E7A SWAP1 PUSH1 0x60 ADD PUSH1 0x40 MLOAD DUP1 SWAP2 SUB SWAP1 LOG2 POP POP PUSH1 0x0 DUP1 SLOAD PUSH1 0xFF NOT AND SWAP1 SSTORE POP JUMP JUMPDEST PUSH1 0x1 SLOAD PUSH1 0x40 MLOAD PUSH4 0x935E01B PUSH1 0xE2 SHL DUP2 MSTORE CALLER PUSH1 0x4 DUP3 ADD MSTORE PUSH1 0x1 PUSH1 0x1 PUSH1 0xA0 SHL SUB SWAP1 SWAP2 AND SWAP1 PUSH4 0x24D7806C SWAP1 PUSH1 0x24 ADD PUSH1 0x20 PUSH1 0x40 MLOAD DUP1 DUP4 SUB DUP2 DUP7 GAS STATICCALL ISZERO DUP1 ISZERO PUSH2 0xF6B JUMPI RETURNDATASIZE PUSH1 0x0 DUP1 RETURNDATACOPY RETURNDATASIZE PUSH1 0x0 REVERT JUMPDEST POP POP POP POP PUSH1 0x40 MLOAD RETURNDATASIZE PUSH1 0x1F NOT PUSH1 0x1F DUP3 ADD AND DUP3 ADD DUP1 PUSH1 0x40 MSTORE POP DUP2 ADD SWAP1 PUSH2 0xF8F SWAP2 SWAP1 PUSH2 0x12F2 JUMP JUMPDEST PUSH2 0xFC7 JUMPI PUSH1 0x40 MLOAD PUSH3 0x461BCD PUSH1 0xE5 SHL DUP2 MSTORE PUSH1 0x20 PUSH1 0x4 DUP3 ADD MSTORE PUSH1 0x9 PUSH1 0x24 DUP3 ADD MSTORE PUSH9 0x2737BA1030B236B4B7 PUSH1 0xB9 SHL PUSH1 0x44 DUP3 ADD MSTORE PUSH1 0x64 ADD PUSH2 0x3D0 JUMP JUMPDEST PUSH1 0x64 DUP2 LT ISZERO PUSH2 0x1003 JUMPI PUSH1 0x40 MLOAD PUSH3 0x461BCD PUSH1 0xE5 SHL DUP2 MSTORE PUSH1 0x20 PUSH1 0x4 DUP3 ADD MSTORE PUSH1 0x8 PUSH1 0x24 DUP3 ADD MSTORE PUSH8 0x4D696E2031303025 PUSH1 0xC0 SHL PUSH1 0x44 DUP3 ADD MSTORE PUSH1 0x64 ADD PUSH2 0x3D0 JUMP JUMPDEST PUSH1 0x3 DUP1 SLOAD SWAP1 DUP3 SWAP1 SSTORE PUSH1 0x40 DUP1 MLOAD DUP3 DUP2 MSTORE PUSH1 0x20 DUP2 ADD DUP5 SWAP1 MSTORE PUSH32 0xC42711600709B842092D47328F8993780BB1944CE9DF5D1507D9B773193EC386 SWAP2 ADD PUSH2 0x454 JUMP JUMPDEST PUSH1 0x1 PUSH1 0x1 PUSH1 0xA0 SHL SUB DUP2 AND PUSH1 0x0 SWAP1 DUP2 MSTORE PUSH1 0x6 PUSH1 0x20 MSTORE PUSH1 0x40 DUP2 KECCAK256 SLOAD SWAP1 DUP1 DUP1 PUSH2 0x1066 DUP6 PUSH2 0x10A5 JUMP JUMPDEST PUSH1 0x1 PUSH1 0x1 PUSH1 0xA0 SHL SUB DUP7 AND PUSH1 0x0 SWAP1 DUP2 MSTORE PUSH1 0x7 PUSH1 0x20 MSTORE PUSH1 0x40 SWAP1 KECCAK256 SLOAD SWAP1 SWAP4 POP SWAP2 POP DUP2 DUP4 GT PUSH2 0x1092 JUMPI PUSH1 0x0 PUSH2 0x109C JUMP JUMPDEST PUSH2 0x109C DUP3 DUP5 PUSH2 0x13AC JUMP JUMPDEST SWAP1 POP SWAP2 SWAP4 POP SWAP2 SWAP4 JUMP JUMPDEST PUSH1 0x1 PUSH1 0x1 PUSH1 0xA0 SHL SUB DUP2 AND PUSH1 0x0 SWAP1 DUP2 MSTORE PUSH1 0x6 PUSH1 0x20 MSTORE PUSH1 0x40 DUP2 KECCAK256 SLOAD DUP1 DUP3 SUB PUSH2 0x10CE JUMPI POP PUSH1 0x0 SWAP3 SWAP2 POP POP JUMP JUMPDEST PUSH1 0x64 PUSH1 0x3 SLOAD DUP3 PUSH2 0x10DE SWAP2 SWAP1 PUSH2 0x13F1 JUMP JUMPDEST PUSH2 0x10E8 SWAP2 SWAP1 PUSH2 0x1408 JUMP JUMPDEST SWAP4 SWAP3 POP POP POP JUMP JUMPDEST PUSH1 0x40 MLOAD DUP1 PUSH1 0xA0 ADD PUSH1 0x40 MSTORE DUP1 PUSH1 0x5 SWAP1 PUSH1 0x20 DUP3 MUL DUP1 CALLDATASIZE DUP4 CALLDATACOPY POP SWAP2 SWAP3 SWAP2 POP POP JUMP JUMPDEST PUSH1 0x0 PUSH1 0x20 DUP3 DUP5 SUB SLT ISZERO PUSH2 0x111F JUMPI PUSH1 0x0 DUP1 REVERT JUMPDEST POP CALLDATALOAD SWAP2 SWAP1 POP JUMP JUMPDEST DUP1 CALLDATALOAD PUSH1 0x1 PUSH1 0x1 PUSH1 0xA0 SHL SUB DUP2 AND DUP2 EQ PUSH2 0x113D JUMPI PUSH1 0x0 DUP1 REVERT JUMPDEST SWAP2 SWAP1 POP JUMP JUMPDEST PUSH1 0x0 PUSH1 0x20 DUP3 DUP5 SUB SLT ISZERO PUSH2 0x1154 JUMPI PUSH1 0x0 DUP1 REVERT JUMPDEST PUSH2 0x10E8 DUP3 PUSH2 0x1126 JUMP JUMPDEST PUSH1 0xC0 DUP2 ADD DUP2 DUP5 PUSH1 0x0 JUMPDEST PUSH1 0x5 DUP2 LT ISZERO PUSH2 0x1185 JUMPI DUP2 MLOAD DUP4 MSTORE PUSH1 0x20 SWAP3 DUP4 ADD SWAP3 SWAP1 SWAP2 ADD SWAP1 PUSH1 0x1 ADD PUSH2 0x1166 JUMP JUMPDEST POP POP POP DUP3 PUSH1 0xA0 DUP4 ADD MSTORE SWAP4 SWAP3 POP POP POP JUMP JUMPDEST PUSH1 0x0 DUP1 DUP4 PUSH1 0x1F DUP5 ADD SLT PUSH2 0x11A7 JUMPI PUSH1 0x0 DUP1 REVERT JUMPDEST POP DUP2 CALLDATALOAD PUSH8 0xFFFFFFFFFFFFFFFF DUP2 GT ISZERO PUSH2 0x11BF JUMPI PUSH1 0x0 DUP1 REVERT JUMPDEST PUSH1 0x20 DUP4 ADD SWAP2 POP DUP4 PUSH1 0x20 DUP3 PUSH1 0x5 SHL DUP6 ADD ADD GT ISZERO PUSH2 0x11DA JUMPI PUSH1 0x0 DUP1 REVERT JUMPDEST SWAP3 POP SWAP3 SWAP1 POP JUMP JUMPDEST PUSH1 0x0 DUP1 PUSH1 0x0 DUP1 PUSH1 0x0 DUP1 PUSH1 0x0 PUSH1 0x80 DUP9 DUP11 SUB SLT ISZERO PUSH2 0x11FC JUMPI PUSH1 0x0 DUP1 REVERT JUMPDEST DUP8 CALLDATALOAD PUSH8 0xFFFFFFFFFFFFFFFF DUP1 DUP3 GT ISZERO PUSH2 0x1214 JUMPI PUSH1 0x0 DUP1 REVERT JUMPDEST PUSH2 0x1220 DUP12 DUP4 DUP13 ADD PUSH2 0x1195 JUMP JUMPDEST SWAP1 SWAP10 POP SWAP8 POP PUSH1 0x20 DUP11 ADD CALLDATALOAD SWAP2 POP DUP1 DUP3 GT ISZERO PUSH2 0x1239 JUMPI PUSH1 0x0 DUP1 REVERT JUMPDEST PUSH2 0x1245 DUP12 DUP4 DUP13 ADD PUSH2 0x1195 JUMP JUMPDEST SWAP1 SWAP8 POP SWAP6 POP PUSH1 0x40 DUP11 ADD CALLDATALOAD SWAP2 POP DUP1 DUP3 GT ISZERO PUSH2 0x125E JUMPI PUSH1 0x0 DUP1 REVERT JUMPDEST POP PUSH2 0x126B DUP11 DUP3 DUP12 ADD PUSH2 0x1195 JUMP JUMPDEST SWAP9 SWAP12 SWAP8 SWAP11 POP SWAP6 SWAP9 SWAP5 SWAP8 SWAP6 SWAP7 PUSH1 0x60 SWAP1 SWAP6 ADD CALLDATALOAD SWAP5 SWAP4 POP POP POP POP JUMP JUMPDEST PUSH1 0x0 DUP1 PUSH1 0x40 DUP4 DUP6 SUB SLT ISZERO PUSH2 0x1297 JUMPI PUSH1 0x0 DUP1 REVERT JUMPDEST PUSH2 0x12A0 DUP4 PUSH2 0x1126 JUMP JUMPDEST SWAP5 PUSH1 0x20 SWAP4 SWAP1 SWAP4 ADD CALLDATALOAD SWAP4 POP POP POP JUMP JUMPDEST DUP1 CALLDATALOAD PUSH1 0xFF DUP2 AND DUP2 EQ PUSH2 0x113D JUMPI PUSH1 0x0 DUP1 REVERT JUMPDEST PUSH1 0x0 DUP1 PUSH1 0x40 DUP4 DUP6 SUB SLT ISZERO PUSH2 0x12D2 JUMPI PUSH1 0x0 DUP1 REVERT JUMPDEST PUSH2 0x12DB DUP4 PUSH2 0x1126 JUMP JUMPDEST SWAP2 POP PUSH2 0x12E9 PUSH1 0x20 DUP5 ADD PUSH2 0x12AE JUMP JUMPDEST SWAP1 POP SWAP3 POP SWAP3 SWAP1 POP JUMP JUMPDEST PUSH1 0x0 PUSH1 0x20 DUP3 DUP5 SUB SLT ISZERO PUSH2 0x1304 JUMPI PUSH1 0x0 DUP1 REVERT JUMPDEST DUP2 MLOAD DUP1 ISZERO ISZERO DUP2 EQ PUSH2 0x10E8 JUMPI PUSH1 0x0 DUP1 REVERT JUMPDEST PUSH4 0x4E487B71 PUSH1 0xE0 SHL PUSH1 0x0 MSTORE PUSH1 0x11 PUSH1 0x4 MSTORE PUSH1 0x24 PUSH1 0x0 REVERT JUMPDEST PUSH1 0xFF DUP3 DUP2 AND DUP3 DUP3 AND SUB SWAP1 DUP2 GT ISZERO PUSH2 0x1343 JUMPI PUSH2 0x1343 PUSH2 0x1314 JUMP JUMPDEST SWAP3 SWAP2 POP POP JUMP JUMPDEST PUSH4 0x4E487B71 PUSH1 0xE0 SHL PUSH1 0x0 MSTORE PUSH1 0x32 PUSH1 0x4 MSTORE PUSH1 0x24 PUSH1 0x0 REVERT JUMPDEST DUP1 DUP3 ADD DUP1 DUP3 GT ISZERO PUSH2 0x1343 JUMPI PUSH2 0x1343 PUSH2 0x1314 JUMP JUMPDEST PUSH1 0x0 PUSH1 0xFF DUP3 AND PUSH1 0xFF DUP2 SUB PUSH2 0x1388 JUMPI PUSH2 0x1388 PUSH2 0x1314 JUMP JUMPDEST PUSH1 0x1 ADD SWAP3 SWAP2 POP POP JUMP JUMPDEST PUSH1 0x0 PUSH1 0x20 DUP3 DUP5 SUB SLT ISZERO PUSH2 0x13A3 JUMPI PUSH1 0x0 DUP1 REVERT JUMPDEST PUSH2 0x10E8 DUP3 PUSH2 0x12AE JUMP JUMPDEST DUP2 DUP2 SUB DUP2 DUP2 GT ISZERO PUSH2 0x1343 JUMPI PUSH2 0x1343 PUSH2 0x1314 JUMP JUMPDEST PUSH1 0x0 PUSH1 0x1 DUP3 ADD PUSH2 0x13D1 JUMPI PUSH2 0x13D1 PUSH2 0x1314 JUMP JUMPDEST POP PUSH1 0x1 ADD SWAP1 JUMP JUMPDEST PUSH1 0x0 PUSH1 0x20 DUP3 DUP5 SUB SLT ISZERO PUSH2 0x13EA JUMPI PUSH1 0x0 DUP1 REVERT JUMPDEST POP MLOAD SWAP2 SWAP1 POP JUMP JUMPDEST DUP1 DUP3 MUL DUP2 ISZERO DUP3 DUP3 DIV DUP5 EQ OR PUSH2 0x1343 JUMPI PUSH2 0x1343 PUSH2 0x1314 JUMP JUMPDEST PUSH1 0x0 DUP3 PUSH2 0x1425 JUMPI PUSH4 0x4E487B71 PUSH1 0xE0 SHL PUSH1 0x0 MSTORE PUSH1 0x12 PUSH1 0x4 MSTORE PUSH1 0x24 PUSH1 0x0 REVERT JUMPDEST POP DIV SWAP1 JUMP INVALID LOG2 PUSH5 0x6970667358 0x22 SLT KECCAK256 PUSH6 0x65E101872BD3 DUP7 0xC5 PC SWAP14 0x2A 0x2A PUSH20 0xD97C376CC97F9D8DC7C3FE46F85DE29CC36A6473 PUSH16 0x6C634300081400330000000000000000 "},"methodIdentifiers":{"NUM_INCOME_TYPES()":"1817182b","S_WALLET()":"1022944c","accessControl()":"13007d55","claimAllEarnings()":"8612ccf8","claimFeeBps()":"7a526f4e","distributeCommissions(address[],uint8[],uint256[],uint256)":"507c398c","earningsCapMultiplier()":"219cb9a5","epochProcessed(uint256)":"95ddabfa","getContractBalance()":"6f9fb98a","getEarningsCapStatus(address)":"dddb3c44","getUnclaimedEarnings(address)":"39d337af","setClaimFee(uint256)":"2e75ab50","setEarningsCapMultiplier(uint256)":"ae030f22","setVIPInvestment(address,uint256)":"61c23298","totalClaimed()":"d54ad2a1","totalDistributed()":"efca2eed","totalEarned(address)":"649aca4a","unclaimed(address,uint8)":"78f39661","usdt()":"2f48ab7d","vipInvestment(address)":"e6a4e252"}}}}}