{
  "_format": "hh-sol-artifact-1",
  "contractName": "CommissionPayout",
  "sourceName": "contracts/solidity/CommissionPayout.sol",
  "abi": [
    {
      "inputs": [
        {
          "internalType": "address",
          "name": "_usdt",
          "type": "address"
        },
        {
          "internalType": "address",
          "name": "_accessControl",
          "type": "address"
        },
        {
          "internalType": "address",
          "name": "_vault",
          "type": "address"
        }
      ],
      "stateMutability": "nonpayable",
      "type": "constructor"
    },
    {
      "anonymous": false,
      "inputs": [
        {
          "indexed": false,
          "internalType": "uint256",
          "name": "oldBps",
          "type": "uint256"
        },
        {
          "indexed": false,
          "internalType": "uint256",
          "name": "newBps",
          "type": "uint256"
        }
      ],
      "name": "ClaimFeeUpdated",
      "type": "event"
    },
    {
      "anonymous": false,
      "inputs": [
        {
          "indexed": true,
          "internalType": "uint256",
          "name": "epoch",
          "type": "uint256"
        },
        {
          "indexed": false,
          "internalType": "uint256",
          "name": "totalAmount",
          "type": "uint256"
        },
        {
          "indexed": false,
          "internalType": "uint256",
          "name": "entryCount",
          "type": "uint256"
        }
      ],
      "name": "CommissionsDistributed",
      "type": "event"
    },
    {
      "anonymous": false,
      "inputs": [
        {
          "indexed": false,
          "internalType": "uint256",
          "name": "oldMul",
          "type": "uint256"
        },
        {
          "indexed": false,
          "internalType": "uint256",
          "name": "newMul",
          "type": "uint256"
        }
      ],
      "name": "EarningsCapMultiplierUpdated",
      "type": "event"
    },
    {
      "anonymous": false,
      "inputs": [
        {
          "indexed": true,
          "internalType": "address",
          "name": "user",
          "type": "address"
        },
        {
          "indexed": false,
          "internalType": "uint256",
          "name": "requested",
          "type": "uint256"
        },
        {
          "indexed": false,
          "internalType": "uint256",
          "name": "credited",
          "type": "uint256"
        }
      ],
      "name": "EarningsCapped",
      "type": "event"
    },
    {
      "anonymous": false,
      "inputs": [
        {
          "indexed": true,
          "internalType": "address",
          "name": "user",
          "type": "address"
        },
        {
          "indexed": false,
          "internalType": "uint256",
          "name": "gross",
          "type": "uint256"
        },
        {
          "indexed": false,
          "internalType": "uint256",
          "name": "fee",
          "type": "uint256"
        },
        {
          "indexed": false,
          "internalType": "uint256",
          "name": "net",
          "type": "uint256"
        }
      ],
      "name": "EarningsClaimed",
      "type": "event"
    },
    {
      "anonymous": false,
      "inputs": [
        {
          "indexed": true,
          "internalType": "address",
          "name": "user",
          "type": "address"
        },
        {
          "indexed": false,
          "internalType": "uint256",
          "name": "amount",
          "type": "uint256"
        }
      ],
      "name": "VIPInvestmentSet",
      "type": "event"
    },
    {
      "inputs": [],
      "name": "NUM_INCOME_TYPES",
      "outputs": [
        {
          "internalType": "uint8",
          "name": "",
          "type": "uint8"
        }
      ],
      "stateMutability": "view",
      "type": "function"
    },
    {
      "inputs": [],
      "name": "S_WALLET",
      "outputs": [
        {
          "internalType": "address",
          "name": "",
          "type": "address"
        }
      ],
      "stateMutability": "view",
      "type": "function"
    },
    {
      "inputs": [],
      "name": "accessControl",
      "outputs": [
        {
          "internalType": "contract IAccessControl",
          "name": "",
          "type": "address"
        }
      ],
      "stateMutability": "view",
      "type": "function"
    },
    {
      "inputs": [],
      "name": "claimAllEarnings",
      "outputs": [],
      "stateMutability": "nonpayable",
      "type": "function"
    },
    {
      "inputs": [],
      "name": "claimFeeBps",
      "outputs": [
        {
          "internalType": "uint256",
          "name": "",
          "type": "uint256"
        }
      ],
      "stateMutability": "view",
      "type": "function"
    },
    {
      "inputs": [
        {
          "internalType": "address[]",
          "name": "users",
          "type": "address[]"
        },
        {
          "internalType": "uint8[]",
          "name": "types",
          "type": "uint8[]"
        },
        {
          "internalType": "uint256[]",
          "name": "amounts",
          "type": "uint256[]"
        },
        {
          "internalType": "uint256",
          "name": "epoch",
          "type": "uint256"
        }
      ],
      "name": "distributeCommissions",
      "outputs": [],
      "stateMutability": "nonpayable",
      "type": "function"
    },
    {
      "inputs": [],
      "name": "earningsCapMultiplier",
      "outputs": [
        {
          "internalType": "uint256",
          "name": "",
          "type": "uint256"
        }
      ],
      "stateMutability": "view",
      "type": "function"
    },
    {
      "inputs": [
        {
          "internalType": "uint256",
          "name": "",
          "type": "uint256"
        }
      ],
      "name": "epochProcessed",
      "outputs": [
        {
          "internalType": "bool",
          "name": "",
          "type": "bool"
        }
      ],
      "stateMutability": "view",
      "type": "function"
    },
    {
      "inputs": [],
      "name": "getContractBalance",
      "outputs": [
        {
          "internalType": "uint256",
          "name": "",
          "type": "uint256"
        }
      ],
      "stateMutability": "view",
      "type": "function"
    },
    {
      "inputs": [
        {
          "internalType": "address",
          "name": "user",
          "type": "address"
        }
      ],
      "name": "getEarningsCapStatus",
      "outputs": [
        {
          "internalType": "uint256",
          "name": "investment",
          "type": "uint256"
        },
        {
          "internalType": "uint256",
          "name": "capLimit",
          "type": "uint256"
        },
        {
          "internalType": "uint256",
          "name": "earned",
          "type": "uint256"
        },
        {
          "internalType": "uint256",
          "name": "remaining",
          "type": "uint256"
        }
      ],
      "stateMutability": "view",
      "type": "function"
    },
    {
      "inputs": [
        {
          "internalType": "address",
          "name": "user",
          "type": "address"
        }
      ],
      "name": "getUnclaimedEarnings",
      "outputs": [
        {
          "internalType": "uint256[5]",
          "name": "amounts",
          "type": "uint256[5]"
        },
        {
          "internalType": "uint256",
          "name": "total",
          "type": "uint256"
        }
      ],
      "stateMutability": "view",
      "type": "function"
    },
    {
      "inputs": [
        {
          "internalType": "uint256",
          "name": "_bps",
          "type": "uint256"
        }
      ],
      "name": "setClaimFee",
      "outputs": [],
      "stateMutability": "nonpayable",
      "type": "function"
    },
    {
      "inputs": [
        {
          "internalType": "uint256",
          "name": "_mul",
          "type": "uint256"
        }
      ],
      "name": "setEarningsCapMultiplier",
      "outputs": [],
      "stateMutability": "nonpayable",
      "type": "function"
    },
    {
      "inputs": [
        {
          "internalType": "address",
          "name": "user",
          "type": "address"
        },
        {
          "internalType": "uint256",
          "name": "amount",
          "type": "uint256"
        }
      ],
      "name": "setVIPInvestment",
      "outputs": [],
      "stateMutability": "nonpayable",
      "type": "function"
    },
    {
      "inputs": [
        {
          "internalType": "address",
          "name": "_vault",
          "type": "address"
        }
      ],
      "name": "setVault",
      "outputs": [],
      "stateMutability": "nonpayable",
      "type": "function"
    },
    {
      "inputs": [],
      "name": "totalClaimed",
      "outputs": [
        {
          "internalType": "uint256",
          "name": "",
          "type": "uint256"
        }
      ],
      "stateMutability": "view",
      "type": "function"
    },
    {
      "inputs": [],
      "name": "totalDistributed",
      "outputs": [
        {
          "internalType": "uint256",
          "name": "",
          "type": "uint256"
        }
      ],
      "stateMutability": "view",
      "type": "function"
    },
    {
      "inputs": [
        {
          "internalType": "address",
          "name": "",
          "type": "address"
        }
      ],
      "name": "totalEarned",
      "outputs": [
        {
          "internalType": "uint256",
          "name": "",
          "type": "uint256"
        }
      ],
      "stateMutability": "view",
      "type": "function"
    },
    {
      "inputs": [
        {
          "internalType": "address",
          "name": "",
          "type": "address"
        },
        {
          "internalType": "uint8",
          "name": "",
          "type": "uint8"
        }
      ],
      "name": "unclaimed",
      "outputs": [
        {
          "internalType": "uint256",
          "name": "",
          "type": "uint256"
        }
      ],
      "stateMutability": "view",
      "type": "function"
    },
    {
      "inputs": [],
      "name": "usdt",
      "outputs": [
        {
          "internalType": "contract IERC20",
          "name": "",
          "type": "address"
        }
      ],
      "stateMutability": "view",
      "type": "function"
    },
    {
      "inputs": [],
      "name": "vault",
      "outputs": [
        {
          "internalType": "address",
          "name": "",
          "type": "address"
        }
      ],
      "stateMutability": "view",
      "type": "function"
    },
    {
      "inputs": [
        {
          "internalType": "address",
          "name": "",
          "type": "address"
        }
      ],
      "name": "vipInvestment",
      "outputs": [
        {
          "internalType": "uint256",
          "name": "",
          "type": "uint256"
        }
      ],
      "stateMutability": "view",
      "type": "function"
    }
  ],
  "bytecode": "0x6080604052600060035561012c6004553480156200001c57600080fd5b5060405162001692380380620016928339810160408190526200003f91620000a8565b600080546001600160a01b0394851661010002610100600160a81b0319909116179055600180549284166001600160a01b031993841617905560028054919093169116179055620000f2565b80516001600160a01b0381168114620000a357600080fd5b919050565b600080600060608486031215620000be57600080fd5b620000c9846200008b565b9250620000d9602085016200008b565b9150620000e9604085016200008b565b90509250925092565b61159080620001026000396000f3fe608060405234801561001057600080fd5b50600436106101425760003560e01c80636f9fb98a116100b8578063ae030f221161007c578063ae030f22146102e1578063d54ad2a1146102f4578063dddb3c44146102fd578063e6a4e25214610330578063efca2eed14610350578063fbfa77cf1461035957600080fd5b80636f9fb98a1461026a57806378f39661146102725780637a526f4e1461029d5780638612ccf8146102a657806395ddabfa146102ae57600080fd5b80632f48ab7d1161010a5780632f48ab7d146101d857806339d337af146101f0578063507c398c1461021157806361c2329814610224578063649aca4a146102375780636817031b1461025757600080fd5b80631022944c1461014757806313007d551461017f5780631817182b14610192578063219cb9a5146101ac5780632e75ab50146101c3575b600080fd5b61016273031ea4ba7e1c5729c352e846549e9b5745f3c66e81565b6040516001600160a01b0390911681526020015b60405180910390f35b600154610162906001600160a01b031681565b61019a600581565b60405160ff9091168152602001610176565b6101b560045481565b604051908152602001610176565b6101d66101d136600461121a565b61036c565b005b6000546101629061010090046001600160a01b031681565b6102036101fe36600461124f565b610484565b60405161017692919061126a565b6101d661021f3660046112ee565b610536565b6101d6610232366004611391565b6109b8565b6101b561024536600461124f565b60086020526000908152604090205481565b6101d661026536600461124f565b610aff565b6101b5610bee565b6101b56102803660046113cc565b600660209081526000928352604080842090915290825290205481565b6101b560035481565b6101d6610c64565b6102d16102bc36600461121a565b60056020526000908152604090205460ff1681565b6040519015158152602001610176565b6101d66102ef36600461121a565b61104c565b6101b5600a5481565b61031061030b36600461124f565b61114e565b604080519485526020850193909352918301526060820152608001610176565b6101b561033e36600461124f565b60076020526000908152604090205481565b6101b560095481565b600254610162906001600160a01b031681565b600154604051630935e01b60e21b81523360048201526001600160a01b03909116906324d7806c90602401602060405180830381865afa1580156103b4573d6000803e3d6000fd5b505050506040513d601f19601f820116820180604052508101906103d891906113ff565b6103fd5760405162461bcd60e51b81526004016103f490611421565b60405180910390fd5b61138881111561043e5760405162461bcd60e51b815260206004820152600c60248201526b08ccaca40e8dede40d0d2ced60a31b60448201526064016103f4565b600380549082905560408051828152602081018490527f3c4e14c3f450a320de9683e5ffeec6e95e4e02755f862e36ff6f8f6c21086f6091015b60405180910390a15050565b61048c6111fc565b600060015b600560ff821611610530576001600160a01b038416600090815260066020908152604080832060ff85168452909152902054836104cf60018461145a565b60ff16600581106104e2576104e2611479565b602090810291909101919091526001600160a01b038516600090815260068252604080822060ff85168352909252205461051c908361148f565b915080610528816114a2565b915050610491565b50915091565b6001546040516301fd3f7760e71b81523360048201526001600160a01b039091169063fe9fbb8090602401602060405180830381865afa15801561057e573d6000803e3d6000fd5b505050506040513d601f19601f820116820180604052508101906105a291906113ff565b6105df5760405162461bcd60e51b815260206004820152600e60248201526d139bdd08185d5d1a1bdc9a5e995960921b60448201526064016103f4565b85841480156105ed57508382145b61062b5760405162461bcd60e51b815260206004820152600f60248201526e098cadccee8d040dad2e6dac2e8c6d608b1b60448201526064016103f4565b856106675760405162461bcd60e51b815260206004820152600c60248201526b456d7074792061727261797360a01b60448201526064016103f4565b60008181526005602052604090205460ff16156106c65760405162461bcd60e51b815260206004820152601760248201527f45706f636820616c72656164792070726f63657373656400000000000000000060448201526064016103f4565b6000818152600560205260408120805460ff19166001179055805b8781101561095b5760008989838181106106fd576106fd611479565b9050602002016020810190610712919061124f565b9050600088888481811061072857610728611479565b905060200201602081019061073d91906114c1565b9050600087878581811061075357610753611479565b90506020020135905060018260ff16101580156107745750600560ff831611155b6107af5760405162461bcd60e51b815260206004820152600c60248201526b496e76616c6964207479706560a01b60448201526064016103f4565b6001600160a01b03831615806107c3575080155b156107d057505050610949565b60006107db846111b2565b905081811561082b576001600160a01b03851660009081526008602052604090205482811061080d5760009150610829565b600061081982856114dc565b905080851115610827578092505b505b505b80156108f8576001600160a01b038516600090815260066020908152604080832060ff881684529091528120805483929061086790849061148f565b90915550506001600160a01b0385166000908152600860205260408120805483929061089490849061148f565b909155506108a49050818861148f565b9650828110156108f35760408051848152602081018390526001600160a01b038716917f37da3507ed568b4786a62e731099245f3a611b84737c0e9415bccd7f2c708c40910160405180910390a25b610943565b82156109435760408051848152600060208201526001600160a01b038716917f37da3507ed568b4786a62e731099245f3a611b84737c0e9415bccd7f2c708c40910160405180910390a25b50505050505b80610953816114ef565b9150506106e1565b50806009600082825461096e919061148f565b9091555050604080518281526020810189905283917f42f49c983fd70fd8bf72331732aa9b36d97e6b2e918c86e01185dc8c11ce5ed4910160405180910390a25050505050505050565b6001546040516301fd3f7760e71b81523360048201526001600160a01b039091169063fe9fbb8090602401602060405180830381865afa158015610a00573d6000803e3d6000fd5b505050506040513d601f19601f82011682018060405250810190610a2491906113ff565b610a615760405162461bcd60e51b815260206004820152600e60248201526d139bdd08185d5d1a1bdc9a5e995960921b60448201526064016103f4565b6001600160a01b038216610aa65760405162461bcd60e51b815260206004820152600c60248201526b5a65726f206164647265737360a01b60448201526064016103f4565b6001600160a01b03821660008181526007602052604090819020839055517f80d77f5375690528bfca7285ec6a99c381b5413a71bf676afa412f6b839a9cd890610af39084815260200190565b60405180910390a25050565b600154604051630935e01b60e21b81523360048201526001600160a01b03909116906324d7806c90602401602060405180830381865afa158015610b47573d6000803e3d6000fd5b505050506040513d601f19601f82011682018060405250810190610b6b91906113ff565b610b875760405162461bcd60e51b81526004016103f490611421565b6001600160a01b038116610bcc5760405162461bcd60e51b815260206004820152600c60248201526b5a65726f206164647265737360a01b60448201526064016103f4565b600280546001600160a01b0319166001600160a01b0392909216919091179055565b600080546040516370a0823160e01b81523060048201526101009091046001600160a01b0316906370a0823190602401602060405180830381865afa158015610c3b573d6000803e3d6000fd5b505050506040513d601f19601f82011682018060405250810190610c5f9190611508565b905090565b60005460ff1615610ca95760405162461bcd60e51b815260206004820152600f60248201526e1499595b9d1c985b98de51dd585c99608a1b60448201526064016103f4565b6000805460ff1916600190811790915554604051630bd4611b60e31b81523360048201526001600160a01b0390911690635ea308d890602401602060405180830381865afa158015610cff573d6000803e3d6000fd5b505050506040513d601f19601f82011682018060405250810190610d2391906113ff565b15610d605760405162461bcd60e51b815260206004820152600d60248201526c10db185a5b5cc81b1bd8dad959609a1b60448201526064016103f4565b600060015b600560ff821611610dca5733600090815260066020908152604080832060ff85168452909152902054610d98908361148f565b33600090815260066020908152604080832060ff86168452909152812055915080610dc2816114a2565b915050610d65565b5060008111610e0e5760405162461bcd60e51b815260206004820152601060248201526f4e6f7468696e6720746f20636c61696d60801b60448201526064016103f4565b600061271060035483610e219190611521565b610e2b9190611538565b90506000610e3982846114dc565b90508115610f1b576000546002546040516323b872dd60e01b81526001600160a01b03918216600482015273031ea4ba7e1c5729c352e846549e9b5745f3c66e60248201526044810185905261010090920416906323b872dd906064016020604051808303816000875af1158015610eb5573d6000803e3d6000fd5b505050506040513d601f19601f82011682018060405250810190610ed991906113ff565b610f1b5760405162461bcd60e51b8152602060048201526013602482015272119959481d1c985b9cd9995c8819985a5b1959606a1b60448201526064016103f4565b6000546002546040516323b872dd60e01b81526001600160a01b0391821660048201523360248201526044810184905261010090920416906323b872dd906064016020604051808303816000875af1158015610f7b573d6000803e3d6000fd5b505050506040513d601f19601f82011682018060405250810190610f9f91906113ff565b610fe35760405162461bcd60e51b815260206004820152601560248201527410db185a5b481d1c985b9cd9995c8819985a5b1959605a1b60448201526064016103f4565b82600a6000828254610ff5919061148f565b9091555050604080518481526020810184905290810182905233907f06f39318c760ad4d630f57ba8f8d3c21b8e1deb076e19476d1dece4e3d737e7a9060600160405180910390a250506000805460ff1916905550565b600154604051630935e01b60e21b81523360048201526001600160a01b03909116906324d7806c90602401602060405180830381865afa158015611094573d6000803e3d6000fd5b505050506040513d601f19601f820116820180604052508101906110b891906113ff565b6110d45760405162461bcd60e51b81526004016103f490611421565b60648110156111105760405162461bcd60e51b81526020600482015260086024820152674d696e203130302560c01b60448201526064016103f4565b600480549082905560408051828152602081018490527fc42711600709b842092d47328f8993780bb1944ce9df5d1507d9b773193ec3869101610478565b6001600160a01b038116600090815260076020526040812054908080611173856111b2565b6001600160a01b038616600090815260086020526040902054909350915081831161119f5760006111a9565b6111a982846114dc565b90509193509193565b6001600160a01b0381166000908152600760205260408120548082036111db5750600092915050565b6064600454826111eb9190611521565b6111f59190611538565b9392505050565b6040518060a001604052806005906020820280368337509192915050565b60006020828403121561122c57600080fd5b5035919050565b80356001600160a01b038116811461124a57600080fd5b919050565b60006020828403121561126157600080fd5b6111f582611233565b60c08101818460005b6005811015611292578151835260209283019290910190600101611273565b5050508260a08301529392505050565b60008083601f8401126112b457600080fd5b50813567ffffffffffffffff8111156112cc57600080fd5b6020830191508360208260051b85010111156112e757600080fd5b9250929050565b60008060008060008060006080888a03121561130957600080fd5b873567ffffffffffffffff8082111561132157600080fd5b61132d8b838c016112a2565b909950975060208a013591508082111561134657600080fd5b6113528b838c016112a2565b909750955060408a013591508082111561136b57600080fd5b506113788a828b016112a2565b989b979a50959894979596606090950135949350505050565b600080604083850312156113a457600080fd5b6113ad83611233565b946020939093013593505050565b803560ff8116811461124a57600080fd5b600080604083850312156113df57600080fd5b6113e883611233565b91506113f6602084016113bb565b90509250929050565b60006020828403121561141157600080fd5b815180151581146111f557600080fd5b6020808252600990820152682737ba1030b236b4b760b91b604082015260600190565b634e487b7160e01b600052601160045260246000fd5b60ff828116828216039081111561147357611473611444565b92915050565b634e487b7160e01b600052603260045260246000fd5b8082018082111561147357611473611444565b600060ff821660ff81036114b8576114b8611444565b60010192915050565b6000602082840312156114d357600080fd5b6111f5826113bb565b8181038181111561147357611473611444565b60006001820161150157611501611444565b5060010190565b60006020828403121561151a57600080fd5b5051919050565b808202811582820484141761147357611473611444565b60008261155557634e487b7160e01b600052601260045260246000fd5b50049056fea26469706673582212207c5229825b058cf754daf0b70d5819ffea3a622bf3e3db11962737b4cba2eb9f64736f6c63430008140033",
  "linkReferences": {},
  "deployedLinkReferences": {}
}