{
  "_format": "hh-sol-artifact-1",
  "contractName": "CommissionPayout",
  "sourceName": "contracts/solidity/CommissionPayout.sol",
  "abi": [
    {
      "inputs": [
        {
          "internalType": "address",
          "name": "_usdt",
          "type": "address"
        },
        {
          "internalType": "address",
          "name": "_accessControl",
          "type": "address"
        }
      ],
      "stateMutability": "nonpayable",
      "type": "constructor"
    },
    {
      "inputs": [],
      "name": "EnforcedPause",
      "type": "error"
    },
    {
      "inputs": [],
      "name": "ExpectedPause",
      "type": "error"
    },
    {
      "inputs": [],
      "name": "ReentrancyGuardReentrantCall",
      "type": "error"
    },
    {
      "inputs": [
        {
          "internalType": "address",
          "name": "token",
          "type": "address"
        }
      ],
      "name": "SafeERC20FailedOperation",
      "type": "error"
    },
    {
      "anonymous": false,
      "inputs": [
        {
          "indexed": true,
          "internalType": "address",
          "name": "user",
          "type": "address"
        },
        {
          "indexed": false,
          "internalType": "uint256",
          "name": "gross",
          "type": "uint256"
        },
        {
          "indexed": false,
          "internalType": "uint256",
          "name": "fee",
          "type": "uint256"
        },
        {
          "indexed": false,
          "internalType": "uint256",
          "name": "net",
          "type": "uint256"
        }
      ],
      "name": "AllEarningsClaimed",
      "type": "event"
    },
    {
      "anonymous": false,
      "inputs": [
        {
          "indexed": true,
          "internalType": "address",
          "name": "user",
          "type": "address"
        },
        {
          "indexed": false,
          "internalType": "uint8",
          "name": "incomeType",
          "type": "uint8"
        },
        {
          "indexed": false,
          "internalType": "uint256",
          "name": "amount",
          "type": "uint256"
        }
      ],
      "name": "CommissionDistributed",
      "type": "event"
    },
    {
      "anonymous": false,
      "inputs": [
        {
          "indexed": false,
          "internalType": "uint256",
          "name": "oldMultiplier",
          "type": "uint256"
        },
        {
          "indexed": false,
          "internalType": "uint256",
          "name": "newMultiplier",
          "type": "uint256"
        }
      ],
      "name": "EarningsCapMultiplierUpdated",
      "type": "event"
    },
    {
      "anonymous": false,
      "inputs": [
        {
          "indexed": false,
          "internalType": "address",
          "name": "account",
          "type": "address"
        }
      ],
      "name": "Paused",
      "type": "event"
    },
    {
      "anonymous": false,
      "inputs": [
        {
          "indexed": false,
          "internalType": "address",
          "name": "account",
          "type": "address"
        }
      ],
      "name": "Unpaused",
      "type": "event"
    },
    {
      "anonymous": false,
      "inputs": [
        {
          "indexed": true,
          "internalType": "address",
          "name": "user",
          "type": "address"
        },
        {
          "indexed": false,
          "internalType": "uint256",
          "name": "amount",
          "type": "uint256"
        }
      ],
      "name": "VIPInvestmentUpdated",
      "type": "event"
    },
    {
      "inputs": [],
      "name": "MAX_BATCH",
      "outputs": [
        {
          "internalType": "uint256",
          "name": "",
          "type": "uint256"
        }
      ],
      "stateMutability": "view",
      "type": "function"
    },
    {
      "inputs": [],
      "name": "accessControl",
      "outputs": [
        {
          "internalType": "contract VelturAccessControl",
          "name": "",
          "type": "address"
        }
      ],
      "stateMutability": "view",
      "type": "function"
    },
    {
      "inputs": [],
      "name": "claimAllEarnings",
      "outputs": [],
      "stateMutability": "nonpayable",
      "type": "function"
    },
    {
      "inputs": [],
      "name": "claimFeeBps",
      "outputs": [
        {
          "internalType": "uint256",
          "name": "",
          "type": "uint256"
        }
      ],
      "stateMutability": "view",
      "type": "function"
    },
    {
      "inputs": [
        {
          "internalType": "address",
          "name": "",
          "type": "address"
        },
        {
          "internalType": "uint8",
          "name": "",
          "type": "uint8"
        }
      ],
      "name": "claimed",
      "outputs": [
        {
          "internalType": "uint256",
          "name": "",
          "type": "uint256"
        }
      ],
      "stateMutability": "view",
      "type": "function"
    },
    {
      "inputs": [
        {
          "internalType": "address[]",
          "name": "users",
          "type": "address[]"
        },
        {
          "internalType": "uint8[]",
          "name": "types",
          "type": "uint8[]"
        },
        {
          "internalType": "uint256[]",
          "name": "amounts",
          "type": "uint256[]"
        },
        {
          "internalType": "uint256",
          "name": "epoch",
          "type": "uint256"
        }
      ],
      "name": "distributeCommissions",
      "outputs": [],
      "stateMutability": "nonpayable",
      "type": "function"
    },
    {
      "inputs": [
        {
          "internalType": "uint256",
          "name": "",
          "type": "uint256"
        }
      ],
      "name": "distributedEpochs",
      "outputs": [
        {
          "internalType": "bool",
          "name": "",
          "type": "bool"
        }
      ],
      "stateMutability": "view",
      "type": "function"
    },
    {
      "inputs": [
        {
          "internalType": "address",
          "name": "",
          "type": "address"
        },
        {
          "internalType": "uint8",
          "name": "",
          "type": "uint8"
        }
      ],
      "name": "earned",
      "outputs": [
        {
          "internalType": "uint256",
          "name": "",
          "type": "uint256"
        }
      ],
      "stateMutability": "view",
      "type": "function"
    },
    {
      "inputs": [],
      "name": "earningsCapMultiplier",
      "outputs": [
        {
          "internalType": "uint256",
          "name": "",
          "type": "uint256"
        }
      ],
      "stateMutability": "view",
      "type": "function"
    },
    {
      "inputs": [
        {
          "internalType": "address",
          "name": "user",
          "type": "address"
        }
      ],
      "name": "getEarningsCapStatus",
      "outputs": [
        {
          "internalType": "uint256",
          "name": "investment",
          "type": "uint256"
        },
        {
          "internalType": "uint256",
          "name": "capLimit",
          "type": "uint256"
        },
        {
          "internalType": "uint256",
          "name": "totalEarned_",
          "type": "uint256"
        },
        {
          "internalType": "uint256",
          "name": "remaining",
          "type": "uint256"
        }
      ],
      "stateMutability": "view",
      "type": "function"
    },
    {
      "inputs": [
        {
          "internalType": "address",
          "name": "user",
          "type": "address"
        }
      ],
      "name": "getUnclaimedEarnings",
      "outputs": [
        {
          "internalType": "uint256[5]",
          "name": "unclaimed_",
          "type": "uint256[5]"
        },
        {
          "internalType": "uint256",
          "name": "total",
          "type": "uint256"
        }
      ],
      "stateMutability": "view",
      "type": "function"
    },
    {
      "inputs": [],
      "name": "pause",
      "outputs": [],
      "stateMutability": "nonpayable",
      "type": "function"
    },
    {
      "inputs": [],
      "name": "paused",
      "outputs": [
        {
          "internalType": "bool",
          "name": "",
          "type": "bool"
        }
      ],
      "stateMutability": "view",
      "type": "function"
    },
    {
      "inputs": [
        {
          "internalType": "uint256",
          "name": "bps",
          "type": "uint256"
        }
      ],
      "name": "setClaimFee",
      "outputs": [],
      "stateMutability": "nonpayable",
      "type": "function"
    },
    {
      "inputs": [
        {
          "internalType": "uint256",
          "name": "multi",
          "type": "uint256"
        }
      ],
      "name": "setEarningsCapMultiplier",
      "outputs": [],
      "stateMutability": "nonpayable",
      "type": "function"
    },
    {
      "inputs": [
        {
          "internalType": "address",
          "name": "user",
          "type": "address"
        },
        {
          "internalType": "uint256",
          "name": "amount",
          "type": "uint256"
        }
      ],
      "name": "setVIPInvestment",
      "outputs": [],
      "stateMutability": "nonpayable",
      "type": "function"
    },
    {
      "inputs": [],
      "name": "unpause",
      "outputs": [],
      "stateMutability": "nonpayable",
      "type": "function"
    },
    {
      "inputs": [],
      "name": "usdt",
      "outputs": [
        {
          "internalType": "contract IERC20",
          "name": "",
          "type": "address"
        }
      ],
      "stateMutability": "view",
      "type": "function"
    },
    {
      "inputs": [
        {
          "internalType": "address",
          "name": "",
          "type": "address"
        }
      ],
      "name": "vipInvestment",
      "outputs": [
        {
          "internalType": "uint256",
          "name": "",
          "type": "uint256"
        }
      ],
      "stateMutability": "view",
      "type": "function"
    },
    {
      "inputs": [
        {
          "internalType": "address",
          "name": "to",
          "type": "address"
        },
        {
          "internalType": "uint256",
          "name": "amount",
          "type": "uint256"
        }
      ],
      "name": "withdrawFees",
      "outputs": [],
      "stateMutability": "nonpayable",
      "type": "function"
    }
  ],
  "bytecode": "0x60c060405261012c60045560fa6005553480156200001c57600080fd5b5060405162001e8538038062001e858339810160408190526200003f9162000098565b60017f9b779b17422d0df92223018b32b4d1fa46e071723d6817e2486d003becc55f00556001600160a01b0391821660a05216608052620000d0565b80516001600160a01b03811681146200009357600080fd5b919050565b60008060408385031215620000ac57600080fd5b620000b7836200007b565b9150620000c7602084016200007b565b90509250929050565b60805160a051611d1f62000166600039600081816101a6015281816111b00152818161126d01526114a401526000818161013601528181610343015281816103df015281816105a6015281816106420152818161071201528181610d4101528181610e4c01528181610ee801528181610fc601528181611305015281816113a1015281816114d1015261156d0152611d1f6000f3fe608060405234801561001057600080fd5b506004361061012c5760003560e01c80637a526f4e116100ad578063ae030f2211610071578063ae030f221461028d578063dddb3c44146102a0578063e6a4e252146102d3578063fb833da3146102f3578063fbb905e31461031657600080fd5b80637a526f4e146102595780638456cb59146102625780638612ccf81461026a578063950bff9f14610272578063ad3b1b471461027a57600080fd5b80633f4ba83a116100f45780633f4ba83a146101e9578063507c398c146101f15780635c975abb146102045780635d11dff31461021b57806361c232981461024657600080fd5b806313007d5514610131578063219cb9a5146101755780632e75ab501461018c5780632f48ab7d146101a157806339d337af146101c8575b600080fd5b6101587f000000000000000000000000000000000000000000000000000000000000000081565b6040516001600160a01b0390911681526020015b60405180910390f35b61017e60045481565b60405190815260200161016c565b61019f61019a366004611975565b610341565b005b6101587f000000000000000000000000000000000000000000000000000000000000000081565b6101db6101d63660046119a6565b6104da565b60405161016c9291906119ca565b61019f6105a4565b61019f6101ff366004611a4e565b6106fd565b60005460ff165b604051901515815260200161016c565b61017e610229366004611b07565b600160209081526000928352604080842090915290825290205481565b61019f610254366004611b3c565b610d2c565b61017e60055481565b61019f610e4a565b61019f610fa1565b61017e60c881565b61019f610288366004611b3c565b611303565b61019f61029b366004611975565b6114cf565b6102b36102ae3660046119a6565b6116ae565b60408051948552602085019390935291830152606082015260800161016c565b61017e6102e13660046119a6565b60036020526000908152604090205481565b61020b610301366004611975565b60066020526000908152604090205460ff1681565b61017e610324366004611b07565b600260209081526000928352604080842090915290825290205481565b7f00000000000000000000000000000000000000000000000000000000000000006001600160a01b0316631022944c6040518163ffffffff1660e01b8152600401602060405180830381865afa15801561039f573d6000803e3d6000fd5b505050506040513d601f19601f820116820180604052508101906103c39190611b68565b6001600160a01b0316336001600160a01b0316148061047457507f00000000000000000000000000000000000000000000000000000000000000006001600160a01b0316638da5cb5b6040518163ffffffff1660e01b8152600401602060405180830381865afa15801561043b573d6000803e3d6000fd5b505050506040513d601f19601f8201168201806040525081019061045f9190611b68565b6001600160a01b0316336001600160a01b0316145b6104995760405162461bcd60e51b815260040161049090611b85565b60405180910390fd5b6103e88111156104d55760405162461bcd60e51b81526020600482015260076024820152664d61782031302560c81b6044820152606401610490565b600555565b6104e2611957565b600060015b60058160ff161161059e576001600160a01b038416600081815260026020908152604080832060ff861680855290835281842054948452600183528184209084529091529020546105389190611bc7565b83610544600184611be0565b60ff166005811061055757610557611bf9565b602002015282610568600183611be0565b60ff166005811061057b5761057b611bf9565b602002015161058a9083611c0f565b91508061059681611c22565b9150506104e7565b50915091565b7f00000000000000000000000000000000000000000000000000000000000000006001600160a01b0316631022944c6040518163ffffffff1660e01b8152600401602060405180830381865afa158015610602573d6000803e3d6000fd5b505050506040513d601f19601f820116820180604052508101906106269190611b68565b6001600160a01b0316336001600160a01b031614806106d757507f00000000000000000000000000000000000000000000000000000000000000006001600160a01b0316638da5cb5b6040518163ffffffff1660e01b8152600401602060405180830381865afa15801561069e573d6000803e3d6000fd5b505050506040513d601f19601f820116820180604052508101906106c29190611b68565b6001600160a01b0316336001600160a01b0316145b6106f35760405162461bcd60e51b815260040161049090611b85565b6106fb611716565b565b6040516301fd3f7760e71b81523360048201527f00000000000000000000000000000000000000000000000000000000000000006001600160a01b03169063fe9fbb8090602401602060405180830381865afa158015610761573d6000803e3d6000fd5b505050506040513d601f19601f820116820180604052508101906107859190611c41565b6107c25760405162461bcd60e51b815260206004820152600e60248201526d139bdd08185d5d1a1bdc9a5e995960921b6044820152606401610490565b6107ca611768565b85841480156107d857508382145b6108165760405162461bcd60e51b815260206004820152600f60248201526e098cadccee8d040dad2e6dac2e8c6d608b1b6044820152606401610490565b60c88611156108605760405162461bcd60e51b815260206004820152601660248201527545786365656473206d61782062617463682073697a6560501b6044820152606401610490565b60008181526006602052604090205460ff16156108bf5760405162461bcd60e51b815260206004820152601960248201527f45706f636820616c7265616479206469737472696275746564000000000000006044820152606401610490565b6000818152600660205260408120805460ff191660011790555b86811015610d225760018686838181106108f5576108f5611bf9565b905060200201602081019061090a9190611c63565b60ff16101580156109455750600586868381811061092a5761092a611bf9565b905060200201602081019061093f9190611c63565b60ff1611155b6109805760405162461bcd60e51b815260206004820152600c60248201526b496e76616c6964207479706560a01b6044820152606401610490565b60006064600454600360008c8c8781811061099d5761099d611bf9565b90506020020160208101906109b291906119a6565b6001600160a01b03166001600160a01b03168152602001908152602001600020546109dd9190611c7e565b6109e79190611c95565b9050806000036109f75750610d10565b6000610a288a8a85818110610a0e57610a0e611bf9565b9050602002016020810190610a2391906119a6565b61178c565b9050818110610a38575050610d10565b81868685818110610a4b57610a4b611bf9565b9050602002013582610a5d9190611c0f565b1115610baa576000610a6f8284611bc7565b905080600160008d8d88818110610a8857610a88611bf9565b9050602002016020810190610a9d91906119a6565b6001600160a01b03166001600160a01b0316815260200190815260200160002060008b8b88818110610ad157610ad1611bf9565b9050602002016020810190610ae69190611c63565b60ff1660ff1681526020019081526020016000206000828254610b099190611c0f565b909155508b90508a85818110610b2157610b21611bf9565b9050602002016020810190610b3691906119a6565b6001600160a01b03167fd736b4b27b016e0f05ffaaccf4840d7f372c5040925ef0a14360f2537d466bf08a8a87818110610b7257610b72611bf9565b9050602002016020810190610b879190611c63565b6040805160ff9092168252602082018590520160405180910390a2505050610d10565b858584818110610bbc57610bbc611bf9565b90506020020135600160008c8c87818110610bd957610bd9611bf9565b9050602002016020810190610bee91906119a6565b6001600160a01b03166001600160a01b0316815260200190815260200160002060008a8a87818110610c2257610c22611bf9565b9050602002016020810190610c379190611c63565b60ff1660ff1681526020019081526020016000206000828254610c5a9190611c0f565b909155508a90508984818110610c7257610c72611bf9565b9050602002016020810190610c8791906119a6565b6001600160a01b03167fd736b4b27b016e0f05ffaaccf4840d7f372c5040925ef0a14360f2537d466bf0898986818110610cc357610cc3611bf9565b9050602002016020810190610cd89190611c63565b888887818110610cea57610cea611bf9565b6040805160ff90951685526020918202939093013590840152500160405180910390a250505b80610d1a81611cb7565b9150506108d9565b5050505050505050565b6040516301fd3f7760e71b81523360048201527f00000000000000000000000000000000000000000000000000000000000000006001600160a01b03169063fe9fbb8090602401602060405180830381865afa158015610d90573d6000803e3d6000fd5b505050506040513d601f19601f82011682018060405250810190610db49190611c41565b610df15760405162461bcd60e51b815260206004820152600e60248201526d139bdd08185d5d1a1bdc9a5e995960921b6044820152606401610490565b6001600160a01b03821660008181526003602052604090819020839055517f81e60520724fd66752b8654b00e6759ba1b3e794eb654749e880051467a568af90610e3e9084815260200190565b60405180910390a25050565b7f00000000000000000000000000000000000000000000000000000000000000006001600160a01b0316631022944c6040518163ffffffff1660e01b8152600401602060405180830381865afa158015610ea8573d6000803e3d6000fd5b505050506040513d601f19601f82011682018060405250810190610ecc9190611b68565b6001600160a01b0316336001600160a01b03161480610f7d57507f00000000000000000000000000000000000000000000000000000000000000006001600160a01b0316638da5cb5b6040518163ffffffff1660e01b8152600401602060405180830381865afa158015610f44573d6000803e3d6000fd5b505050506040513d601f19601f82011682018060405250810190610f689190611b68565b6001600160a01b0316336001600160a01b0316145b610f995760405162461bcd60e51b815260040161049090611b85565b6106fb6117e7565b610fa9611824565b610fb1611768565b604051635414033960e11b81523360048201527f00000000000000000000000000000000000000000000000000000000000000006001600160a01b03169063a828067290602401602060405180830381865afa158015611015573d6000803e3d6000fd5b505050506040513d601f19601f820116820180604052508101906110399190611c41565b156110765760405162461bcd60e51b815260206004820152600d60248201526c10db185a5b5cc81b1bd8dad959609a1b6044820152606401610490565b600060015b60058160ff161161111f5733600081815260026020908152604080832060ff8616808552908352818420549484526001835281842090845290915281205490916110c491611bc7565b9050801561110c5733600081815260016020908152604080832060ff871680855290835281842054948452600283528184209084529091529020556111098184611c0f565b92505b508061111781611c22565b91505061107b565b50600081116111635760405162461bcd60e51b815260206004820152601060248201526f4e6f7468696e6720746f20636c61696d60801b6044820152606401610490565b6000612710600554836111769190611c7e565b6111809190611c95565b9050600061118e8284611bc7565b6040516370a0823160e01b815230600482015290915081906001600160a01b037f000000000000000000000000000000000000000000000000000000000000000016906370a0823190602401602060405180830381865afa1580156111f7573d6000803e3d6000fd5b505050506040513d601f19601f8201168201806040525081019061121b9190611cd0565b10156112605760405162461bcd60e51b8152602060048201526014602482015273496e73756666696369656e742062616c616e636560601b6044820152606401610490565b6112946001600160a01b037f0000000000000000000000000000000000000000000000000000000000000000163383611852565b604080518481526020810184905290810182905233907f18366a41e3e4141993a88fefff9598f66cbdf2bee90c790400331c0381eea5ae9060600160405180910390a25050506106fb60017f9b779b17422d0df92223018b32b4d1fa46e071723d6817e2486d003becc55f0055565b7f00000000000000000000000000000000000000000000000000000000000000006001600160a01b0316631022944c6040518163ffffffff1660e01b8152600401602060405180830381865afa158015611361573d6000803e3d6000fd5b505050506040513d601f19601f820116820180604052508101906113859190611b68565b6001600160a01b0316336001600160a01b0316148061143657507f00000000000000000000000000000000000000000000000000000000000000006001600160a01b0316638da5cb5b6040518163ffffffff1660e01b8152600401602060405180830381865afa1580156113fd573d6000803e3d6000fd5b505050506040513d601f19601f820116820180604052508101906114219190611b68565b6001600160a01b0316336001600160a01b0316145b6114525760405162461bcd60e51b815260040161049090611b85565b6001600160a01b0382166114975760405162461bcd60e51b815260206004820152600c60248201526b5a65726f206164647265737360a01b6044820152606401610490565b6114cb6001600160a01b037f0000000000000000000000000000000000000000000000000000000000000000168383611852565b5050565b7f00000000000000000000000000000000000000000000000000000000000000006001600160a01b0316631022944c6040518163ffffffff1660e01b8152600401602060405180830381865afa15801561152d573d6000803e3d6000fd5b505050506040513d601f19601f820116820180604052508101906115519190611b68565b6001600160a01b0316336001600160a01b0316148061160257507f00000000000000000000000000000000000000000000000000000000000000006001600160a01b0316638da5cb5b6040518163ffffffff1660e01b8152600401602060405180830381865afa1580156115c9573d6000803e3d6000fd5b505050506040513d601f19601f820116820180604052508101906115ed9190611b68565b6001600160a01b0316336001600160a01b0316145b61161e5760405162461bcd60e51b815260040161049090611b85565b6064811015801561163157506103e88111155b6116695760405162461bcd60e51b81526020600482015260096024820152683130302d313030302560b81b6044820152606401610490565b600480549082905560408051828152602081018490527fc42711600709b842092d47328f8993780bb1944ce9df5d1507d9b773193ec386910160405180910390a15050565b6001600160a01b038116600090815260036020526040812054600454909190819081906064906116de9086611c7e565b6116e89190611c95565b92506116f38561178c565b915081831161170357600061170d565b61170d8284611bc7565b90509193509193565b61171e61188c565b6000805460ff191690557f5db9ee0a495bf2e6ff9c91a7834c1ba4fdd244a5e8aa4e537bd38aeae4b073aa335b6040516001600160a01b03909116815260200160405180910390a1565b60005460ff16156106fb5760405163d93c066560e01b815260040160405180910390fd5b600060015b60058160ff16116117e1576001600160a01b038316600090815260016020908152604080832060ff851684529091529020546117cd9083611c0f565b9150806117d981611c22565b915050611791565b50919050565b6117ef611768565b6000805460ff191660011790557f62e78cea01bee320cd4e420270b5ea74000d11b0c9f74754ebdbfc544b05a25861174b3390565b61182c6118af565b60027f9b779b17422d0df92223018b32b4d1fa46e071723d6817e2486d003becc55f0055565b61185f83838360016118f1565b61188757604051635274afe760e01b81526001600160a01b0384166004820152602401610490565b505050565b60005460ff166106fb57604051638dfc202b60e01b815260040160405180910390fd5b7f9b779b17422d0df92223018b32b4d1fa46e071723d6817e2486d003becc55f00546002036106fb57604051633ee5aeb560e01b815260040160405180910390fd5b60405163a9059cbb60e01b60008181526001600160a01b038616600452602485905291602083604481808b5af19250600160005114831661194b57838315161561193e573d6000823e3d81fd5b6000873b113d1516831692505b60405250949350505050565b6040518060a001604052806005906020820280368337509192915050565b60006020828403121561198757600080fd5b5035919050565b6001600160a01b03811681146119a357600080fd5b50565b6000602082840312156119b857600080fd5b81356119c38161198e565b9392505050565b60c08101818460005b60058110156119f25781518352602092830192909101906001016119d3565b5050508260a08301529392505050565b60008083601f840112611a1457600080fd5b50813567ffffffffffffffff811115611a2c57600080fd5b6020830191508360208260051b8501011115611a4757600080fd5b9250929050565b60008060008060008060006080888a031215611a6957600080fd5b873567ffffffffffffffff80821115611a8157600080fd5b611a8d8b838c01611a02565b909950975060208a0135915080821115611aa657600080fd5b611ab28b838c01611a02565b909750955060408a0135915080821115611acb57600080fd5b50611ad88a828b01611a02565b989b979a50959894979596606090950135949350505050565b803560ff81168114611b0257600080fd5b919050565b60008060408385031215611b1a57600080fd5b8235611b258161198e565b9150611b3360208401611af1565b90509250929050565b60008060408385031215611b4f57600080fd5b8235611b5a8161198e565b946020939093013593505050565b600060208284031215611b7a57600080fd5b81516119c38161198e565b6020808252601290820152712737ba1037bbb732b91037b91039bab832b960711b604082015260600190565b634e487b7160e01b600052601160045260246000fd5b81810381811115611bda57611bda611bb1565b92915050565b60ff8281168282160390811115611bda57611bda611bb1565b634e487b7160e01b600052603260045260246000fd5b80820180821115611bda57611bda611bb1565b600060ff821660ff8103611c3857611c38611bb1565b60010192915050565b600060208284031215611c5357600080fd5b815180151581146119c357600080fd5b600060208284031215611c7557600080fd5b6119c382611af1565b8082028115828204841417611bda57611bda611bb1565b600082611cb257634e487b7160e01b600052601260045260246000fd5b500490565b600060018201611cc957611cc9611bb1565b5060010190565b600060208284031215611ce257600080fd5b505191905056fea26469706673582212204049497d39dba4fc1a5753bbc5d081131bfaf5ea0fe4c677f6ed419ce426ff6364736f6c63430008140033",
  "linkReferences": {},
  "deployedLinkReferences": {}
}