{
  "_format": "hh-sol-artifact-1",
  "contractName": "VelturVault",
  "sourceName": "contracts/solidity/VelturVault.sol",
  "abi": [
    {
      "inputs": [
        {
          "internalType": "address",
          "name": "_usdt",
          "type": "address"
        },
        {
          "internalType": "address",
          "name": "_accessControl",
          "type": "address"
        }
      ],
      "stateMutability": "nonpayable",
      "type": "constructor"
    },
    {
      "anonymous": false,
      "inputs": [
        {
          "indexed": true,
          "internalType": "address",
          "name": "to",
          "type": "address"
        },
        {
          "indexed": false,
          "internalType": "uint256",
          "name": "amount",
          "type": "uint256"
        }
      ],
      "name": "AdminWithdraw",
      "type": "event"
    },
    {
      "anonymous": false,
      "inputs": [
        {
          "indexed": true,
          "internalType": "address",
          "name": "user",
          "type": "address"
        },
        {
          "indexed": false,
          "internalType": "uint256",
          "name": "amount",
          "type": "uint256"
        },
        {
          "indexed": false,
          "internalType": "uint8",
          "name": "packageType",
          "type": "uint8"
        },
        {
          "indexed": false,
          "internalType": "uint8",
          "name": "tier",
          "type": "uint8"
        }
      ],
      "name": "Deposited",
      "type": "event"
    },
    {
      "anonymous": false,
      "inputs": [
        {
          "indexed": true,
          "internalType": "address",
          "name": "user",
          "type": "address"
        },
        {
          "indexed": false,
          "internalType": "uint256",
          "name": "amount",
          "type": "uint256"
        },
        {
          "indexed": false,
          "internalType": "bool",
          "name": "hidden",
          "type": "bool"
        }
      ],
      "name": "LeaderGranted",
      "type": "event"
    },
    {
      "anonymous": false,
      "inputs": [
        {
          "indexed": true,
          "internalType": "address",
          "name": "user",
          "type": "address"
        },
        {
          "indexed": false,
          "internalType": "uint256",
          "name": "posId",
          "type": "uint256"
        }
      ],
      "name": "RedemptionRequested",
      "type": "event"
    },
    {
      "anonymous": false,
      "inputs": [
        {
          "indexed": true,
          "internalType": "address",
          "name": "newAddr",
          "type": "address"
        }
      ],
      "name": "TradingFundAddressSet",
      "type": "event"
    },
    {
      "anonymous": false,
      "inputs": [
        {
          "indexed": false,
          "internalType": "uint256",
          "name": "amount",
          "type": "uint256"
        }
      ],
      "name": "WithdrawnToTradingFund",
      "type": "event"
    },
    {
      "inputs": [],
      "name": "accessControl",
      "outputs": [
        {
          "internalType": "contract IAccessControl",
          "name": "",
          "type": "address"
        }
      ],
      "stateMutability": "view",
      "type": "function"
    },
    {
      "inputs": [
        {
          "internalType": "address",
          "name": "contractAddr",
          "type": "address"
        },
        {
          "internalType": "uint256",
          "name": "amount",
          "type": "uint256"
        }
      ],
      "name": "approvePayoutContract",
      "outputs": [],
      "stateMutability": "nonpayable",
      "type": "function"
    },
    {
      "inputs": [
        {
          "internalType": "uint256",
          "name": "amount",
          "type": "uint256"
        },
        {
          "internalType": "uint256",
          "name": "lockDays",
          "type": "uint256"
        },
        {
          "internalType": "uint8",
          "name": "tier",
          "type": "uint8"
        },
        {
          "internalType": "uint8",
          "name": "packageType",
          "type": "uint8"
        }
      ],
      "name": "deposit",
      "outputs": [],
      "stateMutability": "nonpayable",
      "type": "function"
    },
    {
      "inputs": [
        {
          "internalType": "address",
          "name": "user",
          "type": "address"
        },
        {
          "internalType": "uint256",
          "name": "posId",
          "type": "uint256"
        }
      ],
      "name": "getPosition",
      "outputs": [
        {
          "internalType": "uint256",
          "name": "amount",
          "type": "uint256"
        },
        {
          "internalType": "uint256",
          "name": "startTime",
          "type": "uint256"
        },
        {
          "internalType": "uint256",
          "name": "lockDays",
          "type": "uint256"
        },
        {
          "internalType": "uint8",
          "name": "tier",
          "type": "uint8"
        },
        {
          "internalType": "uint8",
          "name": "packageType",
          "type": "uint8"
        },
        {
          "internalType": "bool",
          "name": "active",
          "type": "bool"
        },
        {
          "internalType": "bool",
          "name": "isGranted",
          "type": "bool"
        }
      ],
      "stateMutability": "view",
      "type": "function"
    },
    {
      "inputs": [
        {
          "internalType": "address",
          "name": "user",
          "type": "address"
        }
      ],
      "name": "getUserPositionCount",
      "outputs": [
        {
          "internalType": "uint256",
          "name": "",
          "type": "uint256"
        }
      ],
      "stateMutability": "view",
      "type": "function"
    },
    {
      "inputs": [],
      "name": "getVaultBalance",
      "outputs": [
        {
          "internalType": "uint256",
          "name": "",
          "type": "uint256"
        }
      ],
      "stateMutability": "view",
      "type": "function"
    },
    {
      "inputs": [
        {
          "internalType": "address",
          "name": "user",
          "type": "address"
        },
        {
          "internalType": "uint256",
          "name": "amount",
          "type": "uint256"
        },
        {
          "internalType": "bool",
          "name": "hidden",
          "type": "bool"
        }
      ],
      "name": "grantLeaderPackage",
      "outputs": [],
      "stateMutability": "nonpayable",
      "type": "function"
    },
    {
      "inputs": [],
      "name": "owner",
      "outputs": [
        {
          "internalType": "address",
          "name": "",
          "type": "address"
        }
      ],
      "stateMutability": "view",
      "type": "function"
    },
    {
      "inputs": [
        {
          "internalType": "address",
          "name": "",
          "type": "address"
        }
      ],
      "name": "positionCount",
      "outputs": [
        {
          "internalType": "uint256",
          "name": "",
          "type": "uint256"
        }
      ],
      "stateMutability": "view",
      "type": "function"
    },
    {
      "inputs": [
        {
          "internalType": "address",
          "name": "",
          "type": "address"
        },
        {
          "internalType": "uint256",
          "name": "",
          "type": "uint256"
        }
      ],
      "name": "positions",
      "outputs": [
        {
          "internalType": "uint256",
          "name": "amount",
          "type": "uint256"
        },
        {
          "internalType": "uint256",
          "name": "startTime",
          "type": "uint256"
        },
        {
          "internalType": "uint256",
          "name": "lockDays",
          "type": "uint256"
        },
        {
          "internalType": "uint8",
          "name": "tier",
          "type": "uint8"
        },
        {
          "internalType": "uint8",
          "name": "packageType",
          "type": "uint8"
        },
        {
          "internalType": "bool",
          "name": "active",
          "type": "bool"
        },
        {
          "internalType": "bool",
          "name": "isGranted",
          "type": "bool"
        }
      ],
      "stateMutability": "view",
      "type": "function"
    },
    {
      "inputs": [
        {
          "internalType": "address",
          "name": "user",
          "type": "address"
        },
        {
          "internalType": "uint256",
          "name": "posId",
          "type": "uint256"
        }
      ],
      "name": "requestRedemption",
      "outputs": [],
      "stateMutability": "nonpayable",
      "type": "function"
    },
    {
      "inputs": [
        {
          "internalType": "address",
          "name": "_new",
          "type": "address"
        }
      ],
      "name": "setTradingFundAddress",
      "outputs": [],
      "stateMutability": "nonpayable",
      "type": "function"
    },
    {
      "inputs": [],
      "name": "totalDeposited",
      "outputs": [
        {
          "internalType": "uint256",
          "name": "",
          "type": "uint256"
        }
      ],
      "stateMutability": "view",
      "type": "function"
    },
    {
      "inputs": [],
      "name": "totalValueLocked",
      "outputs": [
        {
          "internalType": "uint256",
          "name": "",
          "type": "uint256"
        }
      ],
      "stateMutability": "view",
      "type": "function"
    },
    {
      "inputs": [],
      "name": "tradingFundAddress",
      "outputs": [
        {
          "internalType": "address",
          "name": "",
          "type": "address"
        }
      ],
      "stateMutability": "view",
      "type": "function"
    },
    {
      "inputs": [],
      "name": "usdt",
      "outputs": [
        {
          "internalType": "contract IERC20",
          "name": "",
          "type": "address"
        }
      ],
      "stateMutability": "view",
      "type": "function"
    },
    {
      "inputs": [
        {
          "internalType": "address",
          "name": "to",
          "type": "address"
        },
        {
          "internalType": "uint256",
          "name": "amount",
          "type": "uint256"
        }
      ],
      "name": "withdrawAdmin",
      "outputs": [],
      "stateMutability": "nonpayable",
      "type": "function"
    },
    {
      "inputs": [
        {
          "internalType": "uint256",
          "name": "amount",
          "type": "uint256"
        }
      ],
      "name": "withdrawToTradingFund",
      "outputs": [],
      "stateMutability": "nonpayable",
      "type": "function"
    }
  ],
  "bytecode": "0x608060405234801561001057600080fd5b5060405161145538038061145583398101604081905261002f91610096565b600080546001600160a01b0393841661010002610100600160a81b031990911617905560018054919092166001600160a01b03199182161790915560028054909116331790556100c9565b80516001600160a01b038116811461009157600080fd5b919050565b600080604083850312156100a957600080fd5b6100b28361007a565b91506100c06020840161007a565b90509250929050565b61137d806100d86000396000f3fe608060405234801561001057600080fd5b50600436106101165760003560e01c80638da5cb5b116100a2578063e052d84d11610071578063e052d84d14610348578063e63bb8291461035b578063ec18154e1461036e578063ed12e8ef14610377578063ff50abdc1461037f57600080fd5b80638da5cb5b146102b0578063911bebac146102c35780639b84c53b146102d6578063c1be6677146102e957600080fd5b806342fd3880116100e957806342fd38801461024257806345a9ae41146102625780635fb34a5d1461027557806365d8480b1461028a5780636747fc131461029d57600080fd5b806313007d551461011b5780632f48ab7d1461014b57806331e8a7ef146101635780633adbb5af1461019a575b600080fd5b60015461012e906001600160a01b031681565b6040516001600160a01b0390911681526020015b60405180910390f35b60005461012e9061010090046001600160a01b031681565b61018c6101713660046110e9565b6001600160a01b031660009081526007602052604090205490565b604051908152602001610142565b6102066101a836600461110b565b6001600160a01b0391909116600090815260066020908152604080832093835292905220805460018201546002830154600390930154919390929160ff80821692610100830482169262010000810483169263010000009091041690565b6040805197885260208801969096529486019390935260ff9182166060860152166080840152151560a0830152151560c082015260e001610142565b61018c6102503660046110e9565b60076020526000908152604090205481565b60035461012e906001600160a01b031681565b610288610283366004611146565b610388565b005b61028861029836600461110b565b610577565b6102886102ab36600461110b565b61070f565b60025461012e906001600160a01b031681565b6102886102d136600461110b565b6108f7565b6102886102e43660046110e9565b610a51565b6102066102f736600461110b565b600660209081526000928352604080842090915290825290208054600182015460028301546003909301549192909160ff808216916101008104821691620100008204811691630100000090041687565b610288610356366004611197565b610b49565b6102886103693660046111dd565b610e35565b61018c60055481565b61018c611057565b61018c60045481565b600154604051630935e01b60e21b81523360048201526001600160a01b03909116906324d7806c90602401602060405180830381865afa1580156103d0573d6000803e3d6000fd5b505050506040513d601f19601f820116820180604052508101906103f491906111f6565b6104195760405162461bcd60e51b815260040161041090611213565b60405180910390fd5b6001600160a01b03831661043f5760405162461bcd60e51b815260040161041090611236565b6001600160a01b03831660008181526007602081815260408084208054825160e0810184528981524281860190815281850188815260608301898152600660808501818152600160a0870181815260c088018281528f8f52938c528a8e20898f528c52998d2096518755945194860194909455915160028501555160039093018054925196519151151563010000000263ff0000001992151562010000029290921663ffff00001960ff9889166101000261ffff1990951695909816949094179290921795909516919091179390931790925594845291905282549092909161052783611272565b90915550506040805184815283151560208201526001600160a01b038616917f92846aca9dd1c057997966844baa16360278a8d15bdb3e1100c2abf1588d9753910160405180910390a250505050565b6001546040516301fd3f7760e71b81523360048201526001600160a01b039091169063fe9fbb8090602401602060405180830381865afa1580156105bf573d6000803e3d6000fd5b505050506040513d601f19601f820116820180604052508101906105e391906111f6565b6106205760405162461bcd60e51b815260206004820152600e60248201526d139bdd08185d5d1a1bdc9a5e995960921b6044820152606401610410565b6001600160a01b03821660009081526006602090815260408083208484529091529020600381015462010000900460ff1661068a5760405162461bcd60e51b815260206004820152600a6024820152694e6f742061637469766560b01b6044820152606401610410565b60038101805462ff0000191690556005548154116106c1578054600580546000906106b690849061128b565b909155506106c79050565b60006005555b826001600160a01b03167f3779310b71beb93dce3cb4f282d1ee00e2a6c89891587b17c1842ba12f7d52a48360405161070291815260200190565b60405180910390a2505050565b600154604051630935e01b60e21b81523360048201526001600160a01b03909116906324d7806c90602401602060405180830381865afa158015610757573d6000803e3d6000fd5b505050506040513d601f19601f8201168201806040525081019061077b91906111f6565b6107975760405162461bcd60e51b815260040161041090611213565b60005460ff16156107ba5760405162461bcd60e51b8152600401610410906112a4565b6000805460ff191660011790556001600160a01b0382166107ed5760405162461bcd60e51b815260040161041090611236565b6000811161080d5760405162461bcd60e51b8152600401610410906112cd565b60005460405163a9059cbb60e01b81526001600160a01b038481166004830152602482018490526101009092049091169063a9059cbb906044016020604051808303816000875af1158015610866573d6000803e3d6000fd5b505050506040513d601f19601f8201168201806040525081019061088a91906111f6565b6108a65760405162461bcd60e51b8152600401610410906112f2565b816001600160a01b03167fba443e8671971c36cdeb74f87321041daff421230cbc5e36cb835269ed1d8b7e826040516108e191815260200190565b60405180910390a250506000805460ff19169055565b6002546001600160a01b03163314806109775750600154604051630935e01b60e21b81523360048201526001600160a01b03909116906324d7806c90602401602060405180830381865afa158015610953573d6000803e3d6000fd5b505050506040513d601f19601f8201168201806040525081019061097791906111f6565b6109935760405162461bcd60e51b815260040161041090611213565b60005460405163095ea7b360e01b81526001600160a01b038481166004830152602482018490526101009092049091169063095ea7b3906044016020604051808303816000875af11580156109ec573d6000803e3d6000fd5b505050506040513d601f19601f82011682018060405250810190610a1091906111f6565b610a4d5760405162461bcd60e51b815260206004820152600e60248201526d105c1c1c9bdd994819985a5b195960921b6044820152606401610410565b5050565b600154604051630935e01b60e21b81523360048201526001600160a01b03909116906324d7806c90602401602060405180830381865afa158015610a99573d6000803e3d6000fd5b505050506040513d601f19601f82011682018060405250810190610abd91906111f6565b610ad95760405162461bcd60e51b815260040161041090611213565b6001600160a01b038116610aff5760405162461bcd60e51b815260040161041090611236565b600380546001600160a01b0319166001600160a01b0383169081179091556040517fe4d73c93c4d2ff84af19dec2ea8445842b8f881271b26ea7efac00c8c455167090600090a250565b60005460ff1615610b6c5760405162461bcd60e51b8152600401610410906112a4565b6000805460ff1916600117905583610b965760405162461bcd60e51b8152600401610410906112cd565b6000546040516323b872dd60e01b8152336004820152306024820152604481018690526101009091046001600160a01b0316906323b872dd906064016020604051808303816000875af1158015610bf1573d6000803e3d6000fd5b505050506040513d601f19601f82011682018060405250810190610c1591906111f6565b610c315760405162461bcd60e51b8152600401610410906112f2565b600060076000336001600160a01b03166001600160a01b031681526020019081526020016000205490506040518060e001604052808681526020014281526020018581526020018460ff1681526020018360ff1681526020016001151581526020016000151581525060066000336001600160a01b03166001600160a01b03168152602001908152602001600020600083815260200190815260200160002060008201518160000155602082015181600101556040820151816002015560608201518160030160006101000a81548160ff021916908360ff16021790555060808201518160030160016101000a81548160ff021916908360ff16021790555060a08201518160030160026101000a81548160ff02191690831515021790555060c08201518160030160036101000a81548160ff02191690831515021790555090505060076000336001600160a01b03166001600160a01b031681526020019081526020016000206000815480929190610da990611272565b91905055508460046000828254610dc0919061131b565b925050819055508460056000828254610dd9919061131b565b90915550506040805186815260ff8481166020830152851681830152905133917f053b40f6eaff82aa5548be1e957cd8de50c227a60595ae0cc7e78c65cabdbfef919081900360600190a250506000805460ff19169055505050565b6001546040516301fd3f7760e71b81523360048201526001600160a01b039091169063fe9fbb8090602401602060405180830381865afa158015610e7d573d6000803e3d6000fd5b505050506040513d601f19601f82011682018060405250810190610ea191906111f6565b610ede5760405162461bcd60e51b815260206004820152600e60248201526d139bdd08185d5d1a1bdc9a5e995960921b6044820152606401610410565b60005460ff1615610f015760405162461bcd60e51b8152600401610410906112a4565b6000805460ff191660011790556003546001600160a01b0316610f5d5760405162461bcd60e51b8152602060048201526014602482015273151c98591a5b99c8199d5b99081b9bdd081cd95d60621b6044820152606401610410565b60008111610f7d5760405162461bcd60e51b8152600401610410906112cd565b60005460035460405163a9059cbb60e01b81526001600160a01b03918216600482015260248101849052610100909204169063a9059cbb906044016020604051808303816000875af1158015610fd7573d6000803e3d6000fd5b505050506040513d601f19601f82011682018060405250810190610ffb91906111f6565b6110175760405162461bcd60e51b8152600401610410906112f2565b6040518181527f24ef7b624f8dded3c117e54d077c3616878a0ca0460b23c4420017b98a3dd0b29060200160405180910390a1506000805460ff19169055565b600080546040516370a0823160e01b81523060048201526101009091046001600160a01b0316906370a0823190602401602060405180830381865afa1580156110a4573d6000803e3d6000fd5b505050506040513d601f19601f820116820180604052508101906110c8919061132e565b905090565b80356001600160a01b03811681146110e457600080fd5b919050565b6000602082840312156110fb57600080fd5b611104826110cd565b9392505050565b6000806040838503121561111e57600080fd5b611127836110cd565b946020939093013593505050565b801515811461114357600080fd5b50565b60008060006060848603121561115b57600080fd5b611164846110cd565b925060208401359150604084013561117b81611135565b809150509250925092565b803560ff811681146110e457600080fd5b600080600080608085870312156111ad57600080fd5b84359350602085013592506111c460408601611186565b91506111d260608601611186565b905092959194509250565b6000602082840312156111ef57600080fd5b5035919050565b60006020828403121561120857600080fd5b815161110481611135565b6020808252600990820152682737ba1030b236b4b760b91b604082015260600190565b6020808252600c908201526b5a65726f206164647265737360a01b604082015260600190565b634e487b7160e01b600052601160045260246000fd5b6000600182016112845761128461125c565b5060010190565b8181038181111561129e5761129e61125c565b92915050565b6020808252600f908201526e1499595b9d1c985b98de51dd585c99608a1b604082015260600190565b6020808252600b908201526a16995c9bc8185b5bdd5b9d60aa1b604082015260600190565b6020808252600f908201526e151c985b9cd9995c8819985a5b1959608a1b604082015260600190565b8082018082111561129e5761129e61125c565b60006020828403121561134057600080fd5b505191905056fea2646970667358221220076fd03326a7e93673933c602e50e48ec6a059fc6169fecbf5880d73d150b0c064736f6c63430008140033",
  "linkReferences": {},
  "deployedLinkReferences": {}
}