{
  "_format": "hh-sol-artifact-1",
  "contractName": "VelturAccessControl",
  "sourceName": "contracts/solidity/VelturAccessControl.sol",
  "abi": [
    {
      "inputs": [],
      "stateMutability": "nonpayable",
      "type": "constructor"
    },
    {
      "anonymous": false,
      "inputs": [
        {
          "indexed": true,
          "internalType": "address",
          "name": "account",
          "type": "address"
        }
      ],
      "name": "AdminGranted",
      "type": "event"
    },
    {
      "anonymous": false,
      "inputs": [
        {
          "indexed": true,
          "internalType": "address",
          "name": "account",
          "type": "address"
        }
      ],
      "name": "AdminRevoked",
      "type": "event"
    },
    {
      "anonymous": false,
      "inputs": [
        {
          "indexed": true,
          "internalType": "address",
          "name": "user",
          "type": "address"
        },
        {
          "indexed": false,
          "internalType": "bool",
          "name": "locked",
          "type": "bool"
        }
      ],
      "name": "ClaimLockSet",
      "type": "event"
    },
    {
      "anonymous": false,
      "inputs": [
        {
          "indexed": true,
          "internalType": "address",
          "name": "contractAddr",
          "type": "address"
        },
        {
          "indexed": false,
          "internalType": "bool",
          "name": "authorized",
          "type": "bool"
        }
      ],
      "name": "ContractAuthorized",
      "type": "event"
    },
    {
      "anonymous": false,
      "inputs": [
        {
          "indexed": true,
          "internalType": "address",
          "name": "previousOwner",
          "type": "address"
        },
        {
          "indexed": true,
          "internalType": "address",
          "name": "newOwner",
          "type": "address"
        }
      ],
      "name": "OwnershipTransferred",
      "type": "event"
    },
    {
      "anonymous": false,
      "inputs": [
        {
          "indexed": true,
          "internalType": "address",
          "name": "user",
          "type": "address"
        },
        {
          "indexed": false,
          "internalType": "uint256",
          "name": "posId",
          "type": "uint256"
        },
        {
          "indexed": false,
          "internalType": "bool",
          "name": "hidden",
          "type": "bool"
        }
      ],
      "name": "PositionHiddenSet",
      "type": "event"
    },
    {
      "inputs": [],
      "name": "S_WALLET",
      "outputs": [
        {
          "internalType": "address",
          "name": "",
          "type": "address"
        }
      ],
      "stateMutability": "view",
      "type": "function"
    },
    {
      "inputs": [
        {
          "internalType": "address",
          "name": "",
          "type": "address"
        }
      ],
      "name": "admins",
      "outputs": [
        {
          "internalType": "bool",
          "name": "",
          "type": "bool"
        }
      ],
      "stateMutability": "view",
      "type": "function"
    },
    {
      "inputs": [
        {
          "internalType": "address",
          "name": "",
          "type": "address"
        }
      ],
      "name": "authorizedContracts",
      "outputs": [
        {
          "internalType": "bool",
          "name": "",
          "type": "bool"
        }
      ],
      "stateMutability": "view",
      "type": "function"
    },
    {
      "inputs": [
        {
          "internalType": "address",
          "name": "",
          "type": "address"
        }
      ],
      "name": "claimLocked",
      "outputs": [
        {
          "internalType": "bool",
          "name": "",
          "type": "bool"
        }
      ],
      "stateMutability": "view",
      "type": "function"
    },
    {
      "inputs": [
        {
          "internalType": "address",
          "name": "account",
          "type": "address"
        }
      ],
      "name": "grantAdmin",
      "outputs": [],
      "stateMutability": "nonpayable",
      "type": "function"
    },
    {
      "inputs": [
        {
          "internalType": "address",
          "name": "",
          "type": "address"
        },
        {
          "internalType": "uint256",
          "name": "",
          "type": "uint256"
        }
      ],
      "name": "hiddenPositions",
      "outputs": [
        {
          "internalType": "bool",
          "name": "",
          "type": "bool"
        }
      ],
      "stateMutability": "view",
      "type": "function"
    },
    {
      "inputs": [
        {
          "internalType": "address",
          "name": "account",
          "type": "address"
        }
      ],
      "name": "isAdmin",
      "outputs": [
        {
          "internalType": "bool",
          "name": "",
          "type": "bool"
        }
      ],
      "stateMutability": "view",
      "type": "function"
    },
    {
      "inputs": [
        {
          "internalType": "address",
          "name": "account",
          "type": "address"
        }
      ],
      "name": "isAuthorized",
      "outputs": [
        {
          "internalType": "bool",
          "name": "",
          "type": "bool"
        }
      ],
      "stateMutability": "view",
      "type": "function"
    },
    {
      "inputs": [
        {
          "internalType": "address",
          "name": "user",
          "type": "address"
        }
      ],
      "name": "isClaimLocked",
      "outputs": [
        {
          "internalType": "bool",
          "name": "",
          "type": "bool"
        }
      ],
      "stateMutability": "view",
      "type": "function"
    },
    {
      "inputs": [
        {
          "internalType": "address",
          "name": "user",
          "type": "address"
        },
        {
          "internalType": "uint256",
          "name": "posId",
          "type": "uint256"
        }
      ],
      "name": "isHidden",
      "outputs": [
        {
          "internalType": "bool",
          "name": "",
          "type": "bool"
        }
      ],
      "stateMutability": "view",
      "type": "function"
    },
    {
      "inputs": [],
      "name": "owner",
      "outputs": [
        {
          "internalType": "address",
          "name": "",
          "type": "address"
        }
      ],
      "stateMutability": "view",
      "type": "function"
    },
    {
      "inputs": [
        {
          "internalType": "address",
          "name": "account",
          "type": "address"
        }
      ],
      "name": "revokeAdmin",
      "outputs": [],
      "stateMutability": "nonpayable",
      "type": "function"
    },
    {
      "inputs": [
        {
          "internalType": "address",
          "name": "contractAddr",
          "type": "address"
        },
        {
          "internalType": "bool",
          "name": "authorized",
          "type": "bool"
        }
      ],
      "name": "setAuthorizedContract",
      "outputs": [],
      "stateMutability": "nonpayable",
      "type": "function"
    },
    {
      "inputs": [
        {
          "internalType": "address",
          "name": "user",
          "type": "address"
        },
        {
          "internalType": "bool",
          "name": "locked",
          "type": "bool"
        }
      ],
      "name": "setClaimLock",
      "outputs": [],
      "stateMutability": "nonpayable",
      "type": "function"
    },
    {
      "inputs": [
        {
          "internalType": "address",
          "name": "user",
          "type": "address"
        },
        {
          "internalType": "uint256",
          "name": "posId",
          "type": "uint256"
        },
        {
          "internalType": "bool",
          "name": "hidden",
          "type": "bool"
        }
      ],
      "name": "setHiddenPosition",
      "outputs": [],
      "stateMutability": "nonpayable",
      "type": "function"
    },
    {
      "inputs": [
        {
          "internalType": "address",
          "name": "newOwner",
          "type": "address"
        }
      ],
      "name": "transferOwnership",
      "outputs": [],
      "stateMutability": "nonpayable",
      "type": "function"
    }
  ],
  "bytecode": "0x608060405234801561001057600080fd5b50600080546001600160a01b03191633908117825581526001602081905260408220805460ff19908116831790915573031ea4ba7e1c5729c352e846549e9b5745f3c66e9092527f4499f6074626ebbefdca3d9183294bf5489b65ac856a96ea334f66a51cf3d68c8054909216179055610a8e8061008f6000396000f3fe608060405234801561001057600080fd5b50600436106101005760003560e01c80638da5cb5b11610097578063d5b9221b11610066578063d5b9221b1461029a578063f2fa7392146102bd578063f2fde38b146102d0578063fe9fbb80146102e357600080fd5b80638da5cb5b146101fd578063a828067214610210578063aa38ad4d14610233578063c85933dd1461026157600080fd5b806335bb3e16116100d357806335bb3e1614610188578063429b62e51461019b5780635ea308d8146101be5780637304f5d0146101ea57600080fd5b80631022944c1461010557806324d7806c1461013d5780632d345670146101605780632e21885f14610175575b600080fd5b61012073031ea4ba7e1c5729c352e846549e9b5745f3c66e81565b6040516001600160a01b0390911681526020015b60405180910390f35b61015061014b366004610961565b6102f6565b6040519015158152602001610134565b61017361016e366004610961565b610358565b005b610173610183366004610993565b6104ac565b610173610196366004610961565b61058a565b6101506101a9366004610961565b60016020526000908152604090205460ff1681565b6101506101cc366004610961565b6001600160a01b031660009081526002602052604090205460ff1690565b6101736101f83660046109c6565b610666565b600054610120906001600160a01b031681565b61015061021e366004610961565b60026020526000908152604090205460ff1681565b610150610241366004610a02565b600360209081526000928352604080842090915290825290205460ff1681565b61015061026f366004610a02565b6001600160a01b03919091166000908152600360209081526040808320938352929052205460ff1690565b6101506102a8366004610961565b60046020526000908152604090205460ff1681565b6101736102cb366004610993565b610725565b6101736102de366004610961565b6107c5565b6101506102f1366004610961565b6108c4565b600080546001600160a01b038381169116148061032f57506001600160a01b03821673031ea4ba7e1c5729c352e846549e9b5745f3c66e145b8061035257506001600160a01b03821660009081526001602052604090205460ff165b92915050565b6000546001600160a01b031633148061038457503373031ea4ba7e1c5729c352e846549e9b5745f3c66e145b6103a95760405162461bcd60e51b81526004016103a090610a2c565b60405180910390fd5b73031ea4ba7e1c5729c352e846549e9b5745f3c66d196001600160a01b0382160161040f5760405162461bcd60e51b815260206004820152601660248201527510d85b9b9bdd081c995d9bdad94814d7d5d05313115560521b60448201526064016103a0565b6000546001600160a01b03908116908216036104635760405162461bcd60e51b815260206004820152601360248201527221b0b73737ba103932bb37b5b29037bbb732b960691b60448201526064016103a0565b6001600160a01b038116600081815260016020526040808220805460ff19169055517f631ff1c4e1a02c54b480a34b810e03bcee61fe38efcb243930a7f820914923e29190a250565b6000546001600160a01b03163314806104d857503373031ea4ba7e1c5729c352e846549e9b5745f3c66e145b806104f257503360009081526001602052604090205460ff165b61052a5760405162461bcd60e51b81526020600482015260096024820152682737ba1030b236b4b760b91b60448201526064016103a0565b6001600160a01b038216600081815260026020908152604091829020805460ff191685151590811790915591519182527ff3ebfa45d59e7fa3be20a8b4c83f3ec3ba520e3dd5d413d1c762f5b16321455d91015b60405180910390a25050565b6000546001600160a01b03163314806105b657503373031ea4ba7e1c5729c352e846549e9b5745f3c66e145b6105d25760405162461bcd60e51b81526004016103a090610a2c565b6001600160a01b0381166106175760405162461bcd60e51b815260206004820152600c60248201526b5a65726f206164647265737360a01b60448201526064016103a0565b6001600160a01b0381166000818152600160208190526040808320805460ff1916909217909155517f1c4e23de8d72c94b22992bd4d7b6786b215ba876af214ff63e6a0ca38fc97af49190a250565b3373031ea4ba7e1c5729c352e846549e9b5745f3c66e146106b95760405162461bcd60e51b815260206004820152600d60248201526c13db9b1e4814d7d5d053131155609a1b60448201526064016103a0565b6001600160a01b0383166000818152600360209081526040808320868452825291829020805460ff19168515159081179091558251868152918201527f87ed09b6e3e801f59fcb77023cd0dc698a3d07bc3c212bf8150be7110f9a4192910160405180910390a2505050565b6000546001600160a01b031633148061075157503373031ea4ba7e1c5729c352e846549e9b5745f3c66e145b61076d5760405162461bcd60e51b81526004016103a090610a2c565b6001600160a01b038216600081815260046020908152604091829020805460ff191685151590811790915591519182527f3213ab8ec2ed122402f038736b41878b69ae9f61f49a7edd0666bce891d29fc9910161057e565b6000546001600160a01b0316331461080b5760405162461bcd60e51b81526020600482015260096024820152682737ba1037bbb732b960b91b60448201526064016103a0565b6001600160a01b0381166108505760405162461bcd60e51b815260206004820152600c60248201526b5a65726f206164647265737360a01b60448201526064016103a0565b600080546040516001600160a01b03808516939216917f8be0079c531659141344cd1fd0a4f28419497f9722a3daafe3b4186f6b6457e091a3600080546001600160a01b039092166001600160a01b031990921682178155908152600160208190526040909120805460ff19169091179055565b600080546001600160a01b03838116911614806108fd57506001600160a01b03821673031ea4ba7e1c5729c352e846549e9b5745f3c66e145b8061092057506001600160a01b03821660009081526001602052604090205460ff165b806103525750506001600160a01b031660009081526004602052604090205460ff1690565b80356001600160a01b038116811461095c57600080fd5b919050565b60006020828403121561097357600080fd5b61097c82610945565b9392505050565b8035801515811461095c57600080fd5b600080604083850312156109a657600080fd5b6109af83610945565b91506109bd60208401610983565b90509250929050565b6000806000606084860312156109db57600080fd5b6109e484610945565b9250602084013591506109f960408501610983565b90509250925092565b60008060408385031215610a1557600080fd5b610a1e83610945565b946020939093013593505050565b602080825260129082015271139bdd081bdddb995c8bd4d7d5d05313115560721b60408201526060019056fea264697066735822122053d5e7f7848c497f7c27b82ce8905de161e644019e55c4868464fc58901c473664736f6c63430008140033",
  "linkReferences": {},
  "deployedLinkReferences": {}
}