{
  "_format": "hh-sol-artifact-1",
  "contractName": "VelturAccessControl",
  "sourceName": "contracts/solidity/VelturAccessControl.sol",
  "abi": [
    {
      "inputs": [],
      "stateMutability": "nonpayable",
      "type": "constructor"
    },
    {
      "inputs": [
        {
          "internalType": "address",
          "name": "owner",
          "type": "address"
        }
      ],
      "name": "OwnableInvalidOwner",
      "type": "error"
    },
    {
      "inputs": [
        {
          "internalType": "address",
          "name": "account",
          "type": "address"
        }
      ],
      "name": "OwnableUnauthorizedAccount",
      "type": "error"
    },
    {
      "anonymous": false,
      "inputs": [
        {
          "indexed": true,
          "internalType": "address",
          "name": "admin",
          "type": "address"
        }
      ],
      "name": "AdminGranted",
      "type": "event"
    },
    {
      "anonymous": false,
      "inputs": [
        {
          "indexed": true,
          "internalType": "address",
          "name": "admin",
          "type": "address"
        }
      ],
      "name": "AdminRevoked",
      "type": "event"
    },
    {
      "anonymous": false,
      "inputs": [
        {
          "indexed": true,
          "internalType": "address",
          "name": "user",
          "type": "address"
        }
      ],
      "name": "ClaimLocked",
      "type": "event"
    },
    {
      "anonymous": false,
      "inputs": [
        {
          "indexed": true,
          "internalType": "address",
          "name": "user",
          "type": "address"
        }
      ],
      "name": "ClaimUnlocked",
      "type": "event"
    },
    {
      "anonymous": false,
      "inputs": [
        {
          "indexed": true,
          "internalType": "address",
          "name": "addr",
          "type": "address"
        },
        {
          "indexed": false,
          "internalType": "bool",
          "name": "authorized",
          "type": "bool"
        }
      ],
      "name": "ContractAuthorized",
      "type": "event"
    },
    {
      "anonymous": false,
      "inputs": [
        {
          "indexed": true,
          "internalType": "address",
          "name": "user",
          "type": "address"
        },
        {
          "indexed": false,
          "internalType": "uint256",
          "name": "posId",
          "type": "uint256"
        },
        {
          "indexed": false,
          "internalType": "bool",
          "name": "hidden",
          "type": "bool"
        }
      ],
      "name": "HiddenSet",
      "type": "event"
    },
    {
      "anonymous": false,
      "inputs": [
        {
          "indexed": true,
          "internalType": "address",
          "name": "previousOwner",
          "type": "address"
        },
        {
          "indexed": true,
          "internalType": "address",
          "name": "newOwner",
          "type": "address"
        }
      ],
      "name": "OwnershipTransferred",
      "type": "event"
    },
    {
      "inputs": [],
      "name": "S_WALLET",
      "outputs": [
        {
          "internalType": "address",
          "name": "",
          "type": "address"
        }
      ],
      "stateMutability": "view",
      "type": "function"
    },
    {
      "inputs": [
        {
          "internalType": "address",
          "name": "",
          "type": "address"
        }
      ],
      "name": "admins",
      "outputs": [
        {
          "internalType": "bool",
          "name": "",
          "type": "bool"
        }
      ],
      "stateMutability": "view",
      "type": "function"
    },
    {
      "inputs": [
        {
          "internalType": "address",
          "name": "addr",
          "type": "address"
        }
      ],
      "name": "authorizeContract",
      "outputs": [],
      "stateMutability": "nonpayable",
      "type": "function"
    },
    {
      "inputs": [
        {
          "internalType": "address",
          "name": "",
          "type": "address"
        }
      ],
      "name": "authorizedContracts",
      "outputs": [
        {
          "internalType": "bool",
          "name": "",
          "type": "bool"
        }
      ],
      "stateMutability": "view",
      "type": "function"
    },
    {
      "inputs": [
        {
          "internalType": "address",
          "name": "",
          "type": "address"
        }
      ],
      "name": "claimLocked",
      "outputs": [
        {
          "internalType": "bool",
          "name": "",
          "type": "bool"
        }
      ],
      "stateMutability": "view",
      "type": "function"
    },
    {
      "inputs": [
        {
          "internalType": "address",
          "name": "addr",
          "type": "address"
        }
      ],
      "name": "grantAdmin",
      "outputs": [],
      "stateMutability": "nonpayable",
      "type": "function"
    },
    {
      "inputs": [
        {
          "internalType": "address",
          "name": "addr",
          "type": "address"
        }
      ],
      "name": "isAuthorized",
      "outputs": [
        {
          "internalType": "bool",
          "name": "",
          "type": "bool"
        }
      ],
      "stateMutability": "view",
      "type": "function"
    },
    {
      "inputs": [
        {
          "internalType": "address",
          "name": "user",
          "type": "address"
        },
        {
          "internalType": "uint256",
          "name": "posId",
          "type": "uint256"
        }
      ],
      "name": "isHidden",
      "outputs": [
        {
          "internalType": "bool",
          "name": "",
          "type": "bool"
        }
      ],
      "stateMutability": "view",
      "type": "function"
    },
    {
      "inputs": [
        {
          "internalType": "address",
          "name": "addr",
          "type": "address"
        }
      ],
      "name": "isSWallet",
      "outputs": [
        {
          "internalType": "bool",
          "name": "",
          "type": "bool"
        }
      ],
      "stateMutability": "pure",
      "type": "function"
    },
    {
      "inputs": [
        {
          "internalType": "address",
          "name": "user",
          "type": "address"
        }
      ],
      "name": "lockClaims",
      "outputs": [],
      "stateMutability": "nonpayable",
      "type": "function"
    },
    {
      "inputs": [],
      "name": "owner",
      "outputs": [
        {
          "internalType": "address",
          "name": "",
          "type": "address"
        }
      ],
      "stateMutability": "view",
      "type": "function"
    },
    {
      "inputs": [],
      "name": "renounceOwnership",
      "outputs": [],
      "stateMutability": "nonpayable",
      "type": "function"
    },
    {
      "inputs": [
        {
          "internalType": "address",
          "name": "addr",
          "type": "address"
        }
      ],
      "name": "revokeAdmin",
      "outputs": [],
      "stateMutability": "nonpayable",
      "type": "function"
    },
    {
      "inputs": [
        {
          "internalType": "address",
          "name": "addr",
          "type": "address"
        }
      ],
      "name": "revokeContract",
      "outputs": [],
      "stateMutability": "nonpayable",
      "type": "function"
    },
    {
      "inputs": [
        {
          "internalType": "address",
          "name": "user",
          "type": "address"
        },
        {
          "internalType": "uint256",
          "name": "posId",
          "type": "uint256"
        },
        {
          "internalType": "bool",
          "name": "hidden",
          "type": "bool"
        }
      ],
      "name": "setHidden",
      "outputs": [],
      "stateMutability": "nonpayable",
      "type": "function"
    },
    {
      "inputs": [
        {
          "internalType": "address",
          "name": "user",
          "type": "address"
        },
        {
          "internalType": "uint256",
          "name": "posId",
          "type": "uint256"
        },
        {
          "internalType": "bool",
          "name": "hidden",
          "type": "bool"
        }
      ],
      "name": "setHiddenFromContract",
      "outputs": [],
      "stateMutability": "nonpayable",
      "type": "function"
    },
    {
      "inputs": [
        {
          "internalType": "address",
          "name": "newOwner",
          "type": "address"
        }
      ],
      "name": "transferOwnership",
      "outputs": [],
      "stateMutability": "nonpayable",
      "type": "function"
    },
    {
      "inputs": [
        {
          "internalType": "address",
          "name": "user",
          "type": "address"
        }
      ],
      "name": "unlockClaims",
      "outputs": [],
      "stateMutability": "nonpayable",
      "type": "function"
    }
  ],
  "bytecode": "0x608060405234801561001057600080fd5b50338061003757604051631e4fbdf760e01b81526000600482015260240160405180910390fd5b61004081610046565b50610096565b600080546001600160a01b038381166001600160a01b0319831681178455604051919092169283917f8be0079c531659141344cd1fd0a4f28419497f9722a3daafe3b4186f6b6457e09190a35050565b610b84806100a56000396000f3fe608060405234801561001057600080fd5b50600436106101165760003560e01c80638da5cb5b116100a2578063ce7009e511610071578063ce7009e5146102bf578063d5b9221b146102d2578063d7de7fab146102f5578063f2fde38b14610308578063fe9fbb801461031b57600080fd5b80638da5cb5b1461021f578063a828067214610230578063c85933dd14610253578063cc2e3ee1146102ac57600080fd5b80636176545d116100e95780636176545d146101ae57806367561d93146101c1578063715018a6146101d4578063882a0033146101dc5780638b4789c71461020c57600080fd5b80631022944c1461011b5780632d3456701461015357806335bb3e1614610168578063429b62e51461017b575b600080fd5b61013673031ea4ba7e1c5729c352e846549e9b5745f3c66e81565b6040516001600160a01b0390911681526020015b60405180910390f35b610166610161366004610a91565b61032e565b005b610166610176366004610a91565b61042e565b61019e610189366004610a91565b60016020526000908152604090205460ff1681565b604051901515815260200161014a565b6101666101bc366004610ab3565b6104c5565b6101666101cf366004610a91565b6105b1565b610166610657565b61019e6101ea366004610a91565b6001600160a01b031673031ea4ba7e1c5729c352e846549e9b5745f3c66e1490565b61016661021a366004610ab3565b61066b565b6000546001600160a01b0316610136565b61019e61023e366004610a91565b60046020526000908152604090205460ff1681565b61019e610261366004610af8565b604080516001600160a01b0393909316602080850191909152838201929092528051808403820181526060909301815282519282019290922060009081526003909152205460ff1690565b6101666102ba366004610a91565b6106ca565b6101666102cd366004610a91565b610761565b61019e6102e0366004610a91565b60026020526000908152604090205460ff1681565b610166610303366004610a91565b61082d565b610166610316366004610a91565b6108fc565b61019e610329366004610a91565b610995565b3373031ea4ba7e1c5729c352e846549e9b5745f3c66e148061035a57506000546001600160a01b031633145b61037f5760405162461bcd60e51b815260040161037690610b22565b60405180910390fd5b73031ea4ba7e1c5729c352e846549e9b5745f3c66d196001600160a01b038216016103e55760405162461bcd60e51b815260206004820152601660248201527510d85b9b9bdd081c995d9bdad94814d7d5d85b1b195d60521b6044820152606401610376565b6001600160a01b038116600081815260016020526040808220805460ff19169055517f631ff1c4e1a02c54b480a34b810e03bcee61fe38efcb243930a7f820914923e29190a250565b3373031ea4ba7e1c5729c352e846549e9b5745f3c66e148061045a57506000546001600160a01b031633145b6104765760405162461bcd60e51b815260040161037690610b22565b6001600160a01b0381166000818152600160208190526040808320805460ff1916909217909155517f1c4e23de8d72c94b22992bd4d7b6786b215ba876af214ff63e6a0ca38fc97af49190a250565b3373031ea4ba7e1c5729c352e846549e9b5745f3c66e146105175760405162461bcd60e51b815260206004820152600c60248201526b139bdd0814d7d5d85b1b195d60a21b6044820152606401610376565b604080516001600160a01b038516602082015290810183905260009060600160408051808303601f190181528282528051602091820120600081815260038352839020805460ff19168715159081179091558785529184019190915292506001600160a01b038616917f1b1f139aa856d060859591ffee2b600a38e39cc818f4dd10ff1bdd20ce76532c910160405180910390a250505050565b3373031ea4ba7e1c5729c352e846549e9b5745f3c66e14806105dd57506000546001600160a01b031633145b6105f95760405162461bcd60e51b815260040161037690610b22565b6001600160a01b038116600081815260026020908152604091829020805460ff1916600190811790915591519182527f3213ab8ec2ed122402f038736b41878b69ae9f61f49a7edd0666bce891d29fc991015b60405180910390a250565b61065f6109f8565b6106696000610a25565b565b3360009081526002602052604090205460ff166105175760405162461bcd60e51b815260206004820152601760248201527f4e6f7420617574686f72697a656420636f6e74726163740000000000000000006044820152606401610376565b3373031ea4ba7e1c5729c352e846549e9b5745f3c66e14806106f657506000546001600160a01b031633145b6107125760405162461bcd60e51b815260040161037690610b22565b6001600160a01b0381166000818152600260209081526040808320805460ff19169055519182527f3213ab8ec2ed122402f038736b41878b69ae9f61f49a7edd0666bce891d29fc9910161064c565b3373031ea4ba7e1c5729c352e846549e9b5745f3c66e148061078d57506000546001600160a01b031633145b806107a757503360009081526001602052604090205460ff165b6107e45760405162461bcd60e51b815260206004820152600e60248201526d139bdd08185d5d1a1bdc9a5e995960921b6044820152606401610376565b6001600160a01b038116600081815260046020526040808220805460ff19169055517f21758de34555201aea83ebdfc21ce25f7e3a77bbd2bcc50c170473b5b2e9a30e9190a250565b3373031ea4ba7e1c5729c352e846549e9b5745f3c66e148061085957506000546001600160a01b031633145b8061087357503360009081526001602052604090205460ff165b6108b05760405162461bcd60e51b815260206004820152600e60248201526d139bdd08185d5d1a1bdc9a5e995960921b6044820152606401610376565b6001600160a01b038116600081815260046020526040808220805460ff19166001179055517feee148a2d898a17dcd9172def87a3e77f3906612a80eb7adc45f28a4c107486c9190a250565b3373031ea4ba7e1c5729c352e846549e9b5745f3c66e148061092857506000546001600160a01b031633145b6109445760405162461bcd60e51b815260040161037690610b22565b6001600160a01b0381166109895760405162461bcd60e51b815260206004820152600c60248201526b5a65726f206164647265737360a01b6044820152606401610376565b61099281610a25565b50565b60006001600160a01b03821673031ea4ba7e1c5729c352e846549e9b5745f3c66e14806109cf57506000546001600160a01b038381169116145b806109f257506001600160a01b03821660009081526001602052604090205460ff165b92915050565b6000546001600160a01b031633146106695760405163118cdaa760e01b8152336004820152602401610376565b600080546001600160a01b038381166001600160a01b0319831681178455604051919092169283917f8be0079c531659141344cd1fd0a4f28419497f9722a3daafe3b4186f6b6457e09190a35050565b80356001600160a01b0381168114610a8c57600080fd5b919050565b600060208284031215610aa357600080fd5b610aac82610a75565b9392505050565b600080600060608486031215610ac857600080fd5b610ad184610a75565b92506020840135915060408401358015158114610aed57600080fd5b809150509250925092565b60008060408385031215610b0b57600080fd5b610b1483610a75565b946020939093013593505050565b6020808252601290820152712737ba1037bbb732b91037b91039bab832b960711b60408201526060019056fea264697066735822122001cbbb09c457c75ddad2ffb2e67ff36eaf07dd91c8e63295c27d1a30b4a74a0664736f6c63430008140033",
  "linkReferences": {},
  "deployedLinkReferences": {}
}