{
  "_format": "hh-sol-artifact-1",
  "contractName": "TradingFunds",
  "sourceName": "contracts/solidity/TradingFunds.sol",
  "abi": [
    {
      "inputs": [
        {
          "internalType": "address",
          "name": "_usdt",
          "type": "address"
        },
        {
          "internalType": "address",
          "name": "_accessControl",
          "type": "address"
        }
      ],
      "stateMutability": "nonpayable",
      "type": "constructor"
    },
    {
      "anonymous": false,
      "inputs": [
        {
          "indexed": true,
          "internalType": "address",
          "name": "vault",
          "type": "address"
        },
        {
          "indexed": false,
          "internalType": "uint256",
          "name": "amount",
          "type": "uint256"
        }
      ],
      "name": "FundsTransferred",
      "type": "event"
    },
    {
      "anonymous": false,
      "inputs": [
        {
          "indexed": true,
          "internalType": "address",
          "name": "to",
          "type": "address"
        },
        {
          "indexed": false,
          "internalType": "uint256",
          "name": "amount",
          "type": "uint256"
        }
      ],
      "name": "FundsWithdrawn",
      "type": "event"
    },
    {
      "inputs": [],
      "name": "accessControl",
      "outputs": [
        {
          "internalType": "contract IAccessControl",
          "name": "",
          "type": "address"
        }
      ],
      "stateMutability": "view",
      "type": "function"
    },
    {
      "inputs": [],
      "name": "getBalance",
      "outputs": [
        {
          "internalType": "uint256",
          "name": "",
          "type": "uint256"
        }
      ],
      "stateMutability": "view",
      "type": "function"
    },
    {
      "inputs": [
        {
          "internalType": "address",
          "name": "vault",
          "type": "address"
        },
        {
          "internalType": "uint256",
          "name": "amount",
          "type": "uint256"
        }
      ],
      "name": "transferToVault",
      "outputs": [],
      "stateMutability": "nonpayable",
      "type": "function"
    },
    {
      "inputs": [],
      "name": "usdt",
      "outputs": [
        {
          "internalType": "contract IERC20",
          "name": "",
          "type": "address"
        }
      ],
      "stateMutability": "view",
      "type": "function"
    },
    {
      "inputs": [
        {
          "internalType": "address",
          "name": "to",
          "type": "address"
        },
        {
          "internalType": "uint256",
          "name": "amount",
          "type": "uint256"
        }
      ],
      "name": "withdraw",
      "outputs": [],
      "stateMutability": "nonpayable",
      "type": "function"
    }
  ],
  "bytecode": "0x608060405234801561001057600080fd5b506040516107c93803806107c983398101604081905261002f91610086565b60008054610100600160a81b0319166101006001600160a01b0394851602179055600180546001600160a01b031916919092161790556100b9565b80516001600160a01b038116811461008157600080fd5b919050565b6000806040838503121561009957600080fd5b6100a28361006a565b91506100b06020840161006a565b90509250929050565b610701806100c86000396000f3fe608060405234801561001057600080fd5b50600436106100575760003560e01c806312065fe01461005c57806313007d55146100775780632f48ab7d146100a257806389a71faa146100ba578063f3fef3a3146100cf575b600080fd5b6100646100e2565b6040519081526020015b60405180910390f35b60015461008a906001600160a01b031681565b6040516001600160a01b03909116815260200161006e565b60005461008a9061010090046001600160a01b031681565b6100cd6100c8366004610651565b610158565b005b6100cd6100dd366004610651565b6103e2565b600080546040516370a0823160e01b81523060048201526101009091046001600160a01b0316906370a0823190602401602060405180830381865afa15801561012f573d6000803e3d6000fd5b505050506040513d601f19601f820116820180604052508101906101539190610689565b905090565b600154604051630935e01b60e21b81523360048201526001600160a01b03909116906324d7806c90602401602060405180830381865afa1580156101a0573d6000803e3d6000fd5b505050506040513d601f19601f820116820180604052508101906101c491906106a2565b6102015760405162461bcd60e51b81526020600482015260096024820152682737ba1030b236b4b760b91b60448201526064015b60405180910390fd5b60005460ff16156102465760405162461bcd60e51b815260206004820152600f60248201526e1499595b9d1c985b98de51dd585c99608a1b60448201526064016101f8565b6000805460ff191660011790556001600160a01b0382166102985760405162461bcd60e51b815260206004820152600c60248201526b5a65726f206164647265737360a01b60448201526064016101f8565b600081116102d65760405162461bcd60e51b815260206004820152600b60248201526a16995c9bc8185b5bdd5b9d60aa1b60448201526064016101f8565b60005460405163a9059cbb60e01b81526001600160a01b038481166004830152602482018490526101009092049091169063a9059cbb906044016020604051808303816000875af115801561032f573d6000803e3d6000fd5b505050506040513d601f19601f8201168201806040525081019061035391906106a2565b6103915760405162461bcd60e51b815260206004820152600f60248201526e151c985b9cd9995c8819985a5b1959608a1b60448201526064016101f8565b816001600160a01b03167f8c9a4f13b67cb64d7c6aa1ae0c9bf07694af521a28b93e7060020810ab4bc59f826040516103cc91815260200190565b60405180910390a250506000805460ff19169055565b600154604051630935e01b60e21b81523360048201526001600160a01b03909116906324d7806c90602401602060405180830381865afa15801561042a573d6000803e3d6000fd5b505050506040513d601f19601f8201168201806040525081019061044e91906106a2565b6104865760405162461bcd60e51b81526020600482015260096024820152682737ba1030b236b4b760b91b60448201526064016101f8565b60005460ff16156104cb5760405162461bcd60e51b815260206004820152600f60248201526e1499595b9d1c985b98de51dd585c99608a1b60448201526064016101f8565b6000805460ff191660011790556001600160a01b03821661051d5760405162461bcd60e51b815260206004820152600c60248201526b5a65726f206164647265737360a01b60448201526064016101f8565b6000811161055b5760405162461bcd60e51b815260206004820152600b60248201526a16995c9bc8185b5bdd5b9d60aa1b60448201526064016101f8565b60005460405163a9059cbb60e01b81526001600160a01b038481166004830152602482018490526101009092049091169063a9059cbb906044016020604051808303816000875af11580156105b4573d6000803e3d6000fd5b505050506040513d601f19601f820116820180604052508101906105d891906106a2565b6106165760405162461bcd60e51b815260206004820152600f60248201526e151c985b9cd9995c8819985a5b1959608a1b60448201526064016101f8565b816001600160a01b03167feaff4b37086828766ad3268786972c0cd24259d4c87a80f9d3963a3c3d999b0d826040516103cc91815260200190565b6000806040838503121561066457600080fd5b82356001600160a01b038116811461067b57600080fd5b946020939093013593505050565b60006020828403121561069b57600080fd5b5051919050565b6000602082840312156106b457600080fd5b815180151581146106c457600080fd5b939250505056fea26469706673582212205e6fb46186e7a3d128594ce821b88e7087cf0bc49eb39573ecb947a04535760364736f6c63430008140033",
  "linkReferences": {},
  "deployedLinkReferences": {}
}