{
  "_format": "hh-sol-artifact-1",
  "contractName": "ValturVault",
  "sourceName": "contracts/solidity/ValturVault.sol",
  "abi": [
    {
      "inputs": [
        {
          "internalType": "address",
          "name": "_usdt",
          "type": "address"
        },
        {
          "internalType": "address",
          "name": "_accessControl",
          "type": "address"
        }
      ],
      "stateMutability": "nonpayable",
      "type": "constructor"
    },
    {
      "inputs": [],
      "name": "EnforcedPause",
      "type": "error"
    },
    {
      "inputs": [],
      "name": "ExpectedPause",
      "type": "error"
    },
    {
      "inputs": [],
      "name": "ReentrancyGuardReentrantCall",
      "type": "error"
    },
    {
      "inputs": [
        {
          "internalType": "address",
          "name": "token",
          "type": "address"
        }
      ],
      "name": "SafeERC20FailedOperation",
      "type": "error"
    },
    {
      "anonymous": false,
      "inputs": [
        {
          "indexed": true,
          "internalType": "address",
          "name": "user",
          "type": "address"
        },
        {
          "indexed": false,
          "internalType": "uint256",
          "name": "amount",
          "type": "uint256"
        },
        {
          "indexed": false,
          "internalType": "uint8",
          "name": "packageType",
          "type": "uint8"
        },
        {
          "indexed": false,
          "internalType": "uint8",
          "name": "tier",
          "type": "uint8"
        }
      ],
      "name": "Deposited",
      "type": "event"
    },
    {
      "anonymous": false,
      "inputs": [
        {
          "indexed": true,
          "internalType": "address",
          "name": "user",
          "type": "address"
        },
        {
          "indexed": false,
          "internalType": "uint256",
          "name": "amount",
          "type": "uint256"
        },
        {
          "indexed": false,
          "internalType": "bool",
          "name": "hidden",
          "type": "bool"
        }
      ],
      "name": "LeaderGranted",
      "type": "event"
    },
    {
      "anonymous": false,
      "inputs": [
        {
          "indexed": false,
          "internalType": "address",
          "name": "account",
          "type": "address"
        }
      ],
      "name": "Paused",
      "type": "event"
    },
    {
      "anonymous": false,
      "inputs": [
        {
          "indexed": true,
          "internalType": "address",
          "name": "user",
          "type": "address"
        },
        {
          "indexed": false,
          "internalType": "uint256",
          "name": "posId",
          "type": "uint256"
        }
      ],
      "name": "RedemptionRequested",
      "type": "event"
    },
    {
      "anonymous": false,
      "inputs": [
        {
          "indexed": false,
          "internalType": "address",
          "name": "account",
          "type": "address"
        }
      ],
      "name": "Unpaused",
      "type": "event"
    },
    {
      "inputs": [],
      "name": "accessControl",
      "outputs": [
        {
          "internalType": "contract ValturAccessControl",
          "name": "",
          "type": "address"
        }
      ],
      "stateMutability": "view",
      "type": "function"
    },
    {
      "inputs": [
        {
          "internalType": "uint256",
          "name": "amount",
          "type": "uint256"
        },
        {
          "internalType": "uint256",
          "name": "lockDays",
          "type": "uint256"
        },
        {
          "internalType": "uint8",
          "name": "tier",
          "type": "uint8"
        },
        {
          "internalType": "uint8",
          "name": "packageType",
          "type": "uint8"
        }
      ],
      "name": "deposit",
      "outputs": [],
      "stateMutability": "nonpayable",
      "type": "function"
    },
    {
      "inputs": [
        {
          "internalType": "address",
          "name": "user",
          "type": "address"
        },
        {
          "internalType": "uint256",
          "name": "posId",
          "type": "uint256"
        }
      ],
      "name": "getPosition",
      "outputs": [
        {
          "internalType": "uint256",
          "name": "amount",
          "type": "uint256"
        },
        {
          "internalType": "uint256",
          "name": "startTime",
          "type": "uint256"
        },
        {
          "internalType": "uint256",
          "name": "lockDays",
          "type": "uint256"
        },
        {
          "internalType": "uint8",
          "name": "tier",
          "type": "uint8"
        },
        {
          "internalType": "uint8",
          "name": "packageType",
          "type": "uint8"
        },
        {
          "internalType": "bool",
          "name": "active",
          "type": "bool"
        },
        {
          "internalType": "bool",
          "name": "isGranted",
          "type": "bool"
        }
      ],
      "stateMutability": "view",
      "type": "function"
    },
    {
      "inputs": [
        {
          "internalType": "address",
          "name": "user",
          "type": "address"
        }
      ],
      "name": "getUserPositionCount",
      "outputs": [
        {
          "internalType": "uint256",
          "name": "",
          "type": "uint256"
        }
      ],
      "stateMutability": "view",
      "type": "function"
    },
    {
      "inputs": [
        {
          "internalType": "address",
          "name": "user",
          "type": "address"
        },
        {
          "internalType": "uint256",
          "name": "amount",
          "type": "uint256"
        },
        {
          "internalType": "bool",
          "name": "hidden",
          "type": "bool"
        }
      ],
      "name": "grantLeaderPackage",
      "outputs": [],
      "stateMutability": "nonpayable",
      "type": "function"
    },
    {
      "inputs": [
        {
          "internalType": "uint8",
          "name": "",
          "type": "uint8"
        }
      ],
      "name": "packageLockDays",
      "outputs": [
        {
          "internalType": "uint256",
          "name": "",
          "type": "uint256"
        }
      ],
      "stateMutability": "view",
      "type": "function"
    },
    {
      "inputs": [],
      "name": "pause",
      "outputs": [],
      "stateMutability": "nonpayable",
      "type": "function"
    },
    {
      "inputs": [],
      "name": "paused",
      "outputs": [
        {
          "internalType": "bool",
          "name": "",
          "type": "bool"
        }
      ],
      "stateMutability": "view",
      "type": "function"
    },
    {
      "inputs": [
        {
          "internalType": "address",
          "name": "",
          "type": "address"
        },
        {
          "internalType": "uint256",
          "name": "",
          "type": "uint256"
        }
      ],
      "name": "positions",
      "outputs": [
        {
          "internalType": "uint256",
          "name": "amount",
          "type": "uint256"
        },
        {
          "internalType": "uint256",
          "name": "startTime",
          "type": "uint256"
        },
        {
          "internalType": "uint256",
          "name": "lockDays",
          "type": "uint256"
        },
        {
          "internalType": "uint8",
          "name": "tier",
          "type": "uint8"
        },
        {
          "internalType": "uint8",
          "name": "packageType",
          "type": "uint8"
        },
        {
          "internalType": "bool",
          "name": "active",
          "type": "bool"
        },
        {
          "internalType": "bool",
          "name": "isGranted",
          "type": "bool"
        }
      ],
      "stateMutability": "view",
      "type": "function"
    },
    {
      "inputs": [
        {
          "internalType": "uint256",
          "name": "posId",
          "type": "uint256"
        }
      ],
      "name": "requestRedemption",
      "outputs": [],
      "stateMutability": "nonpayable",
      "type": "function"
    },
    {
      "inputs": [
        {
          "internalType": "uint8",
          "name": "packageType",
          "type": "uint8"
        },
        {
          "internalType": "uint256",
          "name": "lockDays",
          "type": "uint256"
        }
      ],
      "name": "setPackageLockDays",
      "outputs": [],
      "stateMutability": "nonpayable",
      "type": "function"
    },
    {
      "inputs": [
        {
          "internalType": "address",
          "name": "",
          "type": "address"
        }
      ],
      "name": "totalDeposited",
      "outputs": [
        {
          "internalType": "uint256",
          "name": "",
          "type": "uint256"
        }
      ],
      "stateMutability": "view",
      "type": "function"
    },
    {
      "inputs": [],
      "name": "totalValueLocked",
      "outputs": [
        {
          "internalType": "uint256",
          "name": "",
          "type": "uint256"
        }
      ],
      "stateMutability": "view",
      "type": "function"
    },
    {
      "inputs": [],
      "name": "unpause",
      "outputs": [],
      "stateMutability": "nonpayable",
      "type": "function"
    },
    {
      "inputs": [],
      "name": "usdt",
      "outputs": [
        {
          "internalType": "contract IERC20",
          "name": "",
          "type": "address"
        }
      ],
      "stateMutability": "view",
      "type": "function"
    }
  ],
  "bytecode": "0x60c060405234801561001057600080fd5b50604051620018fa380380620018fa83398101604081905261003191610148565b60017f9b779b17422d0df92223018b32b4d1fa46e071723d6817e2486d003becc55f00556001600160a01b0391821660a052166080526004602052605a7fabd6e7cb50984ff9c2f3e18a2660c3353dadf4e3291deeb275dae2cd1e44fe055560b47f91da3fd0782e51c6b3986e9e672fd566868e71f3dbc2d6c2cd6fbb3e361af2a75561010e7f2e174c10e159ea99b867ce3205125c24a42d128804e4070ed6fcc8cc98166aa0556101687f1a1e6821cde7d0159c0d293177871e09677b4e42307c7db3ba94f8648a5a050f81905560056000527f04cde762ef08b6b6c5ded8e8c4c0b3f4e5c9ad7342c88fcc93681b4588b73f055561017b565b80516001600160a01b038116811461014357600080fd5b919050565b6000806040838503121561015b57600080fd5b6101648361012c565b91506101726020840161012c565b90509250929050565b60805160a051611706620001f4600039600081816101430152610f2e01526000818160ff015281816102c801528181610372015281816104b00152818161054c01528181610625015281816106e501528181610909015281816109b301528181610a4f01528181610b0a0152610ba601526117066000f3fe608060405234801561001057600080fd5b50600436106100f55760003560e01c80635fb34a5d11610097578063c1be667711610066578063c1be667714610279578063e052d84d1461028c578063ec18154e1461029f578063eeb3c910146102a857600080fd5b80635fb34a5d1461022b5780638456cb591461023e5780639785ef4d14610246578063a51688ee1461026657600080fd5b80633adbb5af116100d35780633adbb5af1461019c5780633f4ba83a146101eb57806353055481146101f55780635c975abb1461021557600080fd5b806313007d55146100fa5780632f48ab7d1461013e57806331e8a7ef14610165575b600080fd5b6101217f000000000000000000000000000000000000000000000000000000000000000081565b6040516001600160a01b0390911681526020015b60405180910390f35b6101217f000000000000000000000000000000000000000000000000000000000000000081565b61018e61017336600461148d565b6001600160a01b031660009081526001602052604090205490565b604051908152602001610135565b6101af6101aa3660046114b1565b6102bb565b6040805197885260208801969096529486019390935260ff9182166060860152166080840152151560a0830152151560c082015260e001610135565b6101f36104ae565b005b61018e61020336600461148d565b60026020526000908152604090205481565b60005460ff166040519015158152602001610135565b6101f36102393660046114eb565b610610565b6101f36109b1565b61018e610254366004611543565b60046020526000908152604090205481565b6101f361027436600461155e565b610b08565b6101af6102873660046114b1565b610d0b565b6101f361029a36600461157a565b610d70565b61018e60035481565b6101f36102b63660046115c0565b6110d0565b60008060008060008060007f00000000000000000000000000000000000000000000000000000000000000006001600160a01b031663c85933dd8a8a6040518363ffffffff1660e01b81526004016103289291906001600160a01b03929092168252602082015260400190565b602060405180830381865afa158015610345573d6000803e3d6000fd5b505050506040513d601f19601f8201168201806040525081019061036991906115d9565b801561040857507f00000000000000000000000000000000000000000000000000000000000000006001600160a01b03166308b150b06040518163ffffffff1660e01b8152600401602060405180830381865afa1580156103ce573d6000803e3d6000fd5b505050506040513d601f19601f820116820180604052508101906103f291906115f6565b6001600160a01b0316336001600160a01b031614155b15610427575060009550859450849350839250829150819050806104a2565b6001600160a01b038916600090815260016020526040812080548a90811061045157610451611613565b60009182526020909120600490910201805460018201546002830154600390930154919a50985090965060ff8082169650610100820481169550620100008204811694506301000000909104169150505b92959891949750929550565b7f00000000000000000000000000000000000000000000000000000000000000006001600160a01b03166308b150b06040518163ffffffff1660e01b8152600401602060405180830381865afa15801561050c573d6000803e3d6000fd5b505050506040513d601f19601f8201168201806040525081019061053091906115f6565b6001600160a01b0316336001600160a01b031614806105e157507f00000000000000000000000000000000000000000000000000000000000000006001600160a01b0316638da5cb5b6040518163ffffffff1660e01b8152600401602060405180830381865afa1580156105a8573d6000803e3d6000fd5b505050506040513d601f19601f820116820180604052508101906105cc91906115f6565b6001600160a01b0316336001600160a01b0316145b6106065760405162461bcd60e51b81526004016105fd90611629565b60405180910390fd5b61060e611287565b565b6040516301fd3f7760e71b81523360048201527f00000000000000000000000000000000000000000000000000000000000000006001600160a01b03169063fe9fbb8090602401602060405180830381865afa158015610674573d6000803e3d6000fd5b505050506040513d601f19601f8201168201806040525081019061069891906115d9565b6106d55760405162461bcd60e51b815260206004820152600e60248201526d139bdd08185d5d1a1bdc9a5e995960921b60448201526064016105fd565b6106dd6112d9565b80156107c5577f00000000000000000000000000000000000000000000000000000000000000006001600160a01b03166308b150b06040518163ffffffff1660e01b8152600401602060405180830381865afa158015610741573d6000803e3d6000fd5b505050506040513d601f19601f8201168201806040525081019061076591906115f6565b6001600160a01b0316336001600160a01b0316146107c55760405162461bcd60e51b815260206004820152601960248201527f4f6e6c792053757065722063616e207365742068696464656e0000000000000060448201526064016105fd565b6001600160a01b03831660008181526001602081815260408084208054825160e0810184528981524281860190815261016882860190815260036060840181815260066080860190815260a086018b815260c087018c8152888d018a55988d528a8d2096516004890290970196875594519a86019a909a559151600280860191909155915193018054985192519551151563010000000263ff0000001996151562010000029690961663ffff00001960ff9485166101000261ffff19909b1695909416949094179890981791909116919091179290921790945594845293905291812080548592906108b890849061166b565b9250508190555082600360008282546108d1919061166b565b9091555050811561096657604051638b4789c760e01b81526001600160a01b03858116600483015260248201839052600160448301527f00000000000000000000000000000000000000000000000000000000000000001690638b4789c790606401600060405180830381600087803b15801561094d57600080fd5b505af1158015610961573d6000803e3d6000fd5b505050505b6040805184815283151560208201526001600160a01b038616917f92846aca9dd1c057997966844baa16360278a8d15bdb3e1100c2abf1588d9753910160405180910390a250505050565b7f00000000000000000000000000000000000000000000000000000000000000006001600160a01b03166308b150b06040518163ffffffff1660e01b8152600401602060405180830381865afa158015610a0f573d6000803e3d6000fd5b505050506040513d601f19601f82011682018060405250810190610a3391906115f6565b6001600160a01b0316336001600160a01b03161480610ae457507f00000000000000000000000000000000000000000000000000000000000000006001600160a01b0316638da5cb5b6040518163ffffffff1660e01b8152600401602060405180830381865afa158015610aab573d6000803e3d6000fd5b505050506040513d601f19601f82011682018060405250810190610acf91906115f6565b6001600160a01b0316336001600160a01b0316145b610b005760405162461bcd60e51b81526004016105fd90611629565b61060e6112fd565b7f00000000000000000000000000000000000000000000000000000000000000006001600160a01b03166308b150b06040518163ffffffff1660e01b8152600401602060405180830381865afa158015610b66573d6000803e3d6000fd5b505050506040513d601f19601f82011682018060405250810190610b8a91906115f6565b6001600160a01b0316336001600160a01b03161480610c3b57507f00000000000000000000000000000000000000000000000000000000000000006001600160a01b0316638da5cb5b6040518163ffffffff1660e01b8152600401602060405180830381865afa158015610c02573d6000803e3d6000fd5b505050506040513d601f19601f82011682018060405250810190610c2691906115f6565b6001600160a01b0316336001600160a01b0316145b610c575760405162461bcd60e51b81526004016105fd90611629565b60018260ff1610158015610c6f575060058260ff1611155b610cad5760405162461bcd60e51b815260206004820152600f60248201526e496e76616c6964207061636b61676560881b60448201526064016105fd565b60008111610cf55760405162461bcd60e51b815260206004820152601560248201527404c6f636b2064617973206d757374206265203e203605c1b60448201526064016105fd565b60ff909116600090815260046020526040902055565b60016020528160005260406000208181548110610d2757600080fd5b60009182526020909120600490910201805460018201546002830154600390930154919450925060ff808216916101008104821691620100008204811691630100000090041687565b610d7861133a565b610d806112d9565b62989680841015610dbd5760405162461bcd60e51b815260206004820152600760248201526604d696e202431360cc1b60448201526064016105fd565b610dca6298968085611684565b15610e175760405162461bcd60e51b815260206004820152601760248201527f4d757374206265206d756c7469706c65206f662024313000000000000000000060448201526064016105fd565b60018160ff1610158015610e2f575060058160ff1611155b610e6d5760405162461bcd60e51b815260206004820152600f60248201526e496e76616c6964207061636b61676560881b60448201526064016105fd565b60018260ff1610158015610e85575060038260ff1611155b610ec05760405162461bcd60e51b815260206004820152600c60248201526b24b73b30b634b2103a34b2b960a11b60448201526064016105fd565b60ff81166000908152600460205260409020548314610f215760405162461bcd60e51b815260206004820152601d60248201527f496e76616c6964206c6f636b206461797320666f72207061636b61676500000060448201526064016105fd565b610f566001600160a01b037f000000000000000000000000000000000000000000000000000000000000000016333087611368565b336000818152600160208181526040808420815160e0810183528a8152428185019081528184018b815260ff808c16606085019081528b82166080860190815260a086018a815260c087018c81528854808d018a55988d528a8d20975160049099029097019788559451998701999099559151600280870191909155915160039095018054985193519451151563010000000263ff0000001995151562010000029590951663ffff0000199483166101000261ffff19909a16969092169590951797909717919091169590951717905593835252908120805486929061103d90849061166b565b925050819055508360036000828254611056919061166b565b90915550506040805185815260ff8381166020830152841681830152905133917f053b40f6eaff82aa5548be1e957cd8de50c227a60595ae0cc7e78c65cabdbfef919081900360600190a26110ca60017f9b779b17422d0df92223018b32b4d1fa46e071723d6817e2486d003becc55f0055565b50505050565b6110d86112d9565b3360009081526001602052604081208054839081106110f9576110f9611613565b906000526020600020906004020190508060030160029054906101000a900460ff166111545760405162461bcd60e51b815260206004820152600a6024820152694e6f742061637469766560b01b60448201526064016105fd565b60038101546301000000900460ff16156111c05760405162461bcd60e51b815260206004820152602760248201527f4772616e746564207061636b616765733a206e6f206361706974616c2072656460448201526632b6b83a34b7b760c91b60648201526084016105fd565b60028101546111d290620151806116a6565b81600101546111e1919061166b565b4210156112255760405162461bcd60e51b81526020600482015260126024820152714c6f636b20706572696f642061637469766560701b60448201526064016105fd565b6003808201805462ff000019169055815481549091906000906112499084906116bd565b909155505060405182815233907f3779310b71beb93dce3cb4f282d1ee00e2a6c89891587b17c1842ba12f7d52a49060200160405180910390a25050565b61128f61139e565b6000805460ff191690557f5db9ee0a495bf2e6ff9c91a7834c1ba4fdd244a5e8aa4e537bd38aeae4b073aa335b6040516001600160a01b03909116815260200160405180910390a1565b60005460ff161561060e5760405163d93c066560e01b815260040160405180910390fd5b6113056112d9565b6000805460ff191660011790557f62e78cea01bee320cd4e420270b5ea74000d11b0c9f74754ebdbfc544b05a2586112bc3390565b6113426113c1565b60027f9b779b17422d0df92223018b32b4d1fa46e071723d6817e2486d003becc55f0055565b611376848484846001611403565b6110ca57604051635274afe760e01b81526001600160a01b03851660048201526024016105fd565b60005460ff1661060e57604051638dfc202b60e01b815260040160405180910390fd5b7f9b779b17422d0df92223018b32b4d1fa46e071723d6817e2486d003becc55f005460020361060e57604051633ee5aeb560e01b815260040160405180910390fd5b6040516323b872dd60e01b60008181526001600160a01b038781166004528616602452604485905291602083606481808c5af192506001600051148316611463578383151615611456573d6000823e3d81fd5b6000883b113d1516831692505b60405250600060605295945050505050565b6001600160a01b038116811461148a57600080fd5b50565b60006020828403121561149f57600080fd5b81356114aa81611475565b9392505050565b600080604083850312156114c457600080fd5b82356114cf81611475565b946020939093013593505050565b801515811461148a57600080fd5b60008060006060848603121561150057600080fd5b833561150b81611475565b9250602084013591506040840135611522816114dd565b809150509250925092565b803560ff8116811461153e57600080fd5b919050565b60006020828403121561155557600080fd5b6114aa8261152d565b6000806040838503121561157157600080fd5b6114cf8361152d565b6000806000806080858703121561159057600080fd5b84359350602085013592506115a76040860161152d565b91506115b56060860161152d565b905092959194509250565b6000602082840312156115d257600080fd5b5035919050565b6000602082840312156115eb57600080fd5b81516114aa816114dd565b60006020828403121561160857600080fd5b81516114aa81611475565b634e487b7160e01b600052603260045260246000fd5b6020808252601290820152712737ba1037bbb732b91037b91039bab832b960711b604082015260600190565b634e487b7160e01b600052601160045260246000fd5b8082018082111561167e5761167e611655565b92915050565b6000826116a157634e487b7160e01b600052601260045260246000fd5b500690565b808202811582820484141761167e5761167e611655565b8181038181111561167e5761167e61165556fea2646970667358221220f9d9565ae1d2cf7cf3e49516f36835231f21877a9e4dcc6db53c9f4720007a5064736f6c63430008140033",
  "linkReferences": {},
  "deployedLinkReferences": {}
}