{
  "_format": "hh-sol-artifact-1",
  "contractName": "ROIDistributor",
  "sourceName": "contracts/solidity/ROIDistributor.sol",
  "abi": [
    {
      "inputs": [
        {
          "internalType": "address",
          "name": "_usdt",
          "type": "address"
        },
        {
          "internalType": "address",
          "name": "_accessControl",
          "type": "address"
        }
      ],
      "stateMutability": "nonpayable",
      "type": "constructor"
    },
    {
      "inputs": [],
      "name": "EnforcedPause",
      "type": "error"
    },
    {
      "inputs": [],
      "name": "ExpectedPause",
      "type": "error"
    },
    {
      "inputs": [],
      "name": "ReentrancyGuardReentrantCall",
      "type": "error"
    },
    {
      "inputs": [
        {
          "internalType": "address",
          "name": "token",
          "type": "address"
        }
      ],
      "name": "SafeERC20FailedOperation",
      "type": "error"
    },
    {
      "anonymous": false,
      "inputs": [
        {
          "indexed": false,
          "internalType": "uint256",
          "name": "newBps",
          "type": "uint256"
        }
      ],
      "name": "ClaimFeeUpdated",
      "type": "event"
    },
    {
      "anonymous": false,
      "inputs": [
        {
          "indexed": false,
          "internalType": "address",
          "name": "account",
          "type": "address"
        }
      ],
      "name": "Paused",
      "type": "event"
    },
    {
      "anonymous": false,
      "inputs": [
        {
          "indexed": true,
          "internalType": "address",
          "name": "user",
          "type": "address"
        },
        {
          "indexed": false,
          "internalType": "uint256",
          "name": "net",
          "type": "uint256"
        },
        {
          "indexed": false,
          "internalType": "uint256",
          "name": "fee",
          "type": "uint256"
        }
      ],
      "name": "ROIClaimed",
      "type": "event"
    },
    {
      "anonymous": false,
      "inputs": [
        {
          "indexed": true,
          "internalType": "address",
          "name": "user",
          "type": "address"
        },
        {
          "indexed": false,
          "internalType": "uint256",
          "name": "amount",
          "type": "uint256"
        }
      ],
      "name": "ROIDistributed",
      "type": "event"
    },
    {
      "anonymous": false,
      "inputs": [
        {
          "indexed": false,
          "internalType": "address",
          "name": "account",
          "type": "address"
        }
      ],
      "name": "Unpaused",
      "type": "event"
    },
    {
      "inputs": [],
      "name": "MAX_BATCH",
      "outputs": [
        {
          "internalType": "uint256",
          "name": "",
          "type": "uint256"
        }
      ],
      "stateMutability": "view",
      "type": "function"
    },
    {
      "inputs": [],
      "name": "accessControl",
      "outputs": [
        {
          "internalType": "contract ValturAccessControl",
          "name": "",
          "type": "address"
        }
      ],
      "stateMutability": "view",
      "type": "function"
    },
    {
      "inputs": [],
      "name": "claimFeeBps",
      "outputs": [
        {
          "internalType": "uint256",
          "name": "",
          "type": "uint256"
        }
      ],
      "stateMutability": "view",
      "type": "function"
    },
    {
      "inputs": [],
      "name": "claimROI",
      "outputs": [],
      "stateMutability": "nonpayable",
      "type": "function"
    },
    {
      "inputs": [
        {
          "internalType": "address[]",
          "name": "users",
          "type": "address[]"
        },
        {
          "internalType": "uint256[]",
          "name": "amounts",
          "type": "uint256[]"
        },
        {
          "internalType": "uint256",
          "name": "epoch",
          "type": "uint256"
        }
      ],
      "name": "distributeROI",
      "outputs": [],
      "stateMutability": "nonpayable",
      "type": "function"
    },
    {
      "inputs": [
        {
          "internalType": "uint256",
          "name": "",
          "type": "uint256"
        }
      ],
      "name": "distributedEpochs",
      "outputs": [
        {
          "internalType": "bool",
          "name": "",
          "type": "bool"
        }
      ],
      "stateMutability": "view",
      "type": "function"
    },
    {
      "inputs": [
        {
          "internalType": "address",
          "name": "user",
          "type": "address"
        }
      ],
      "name": "getPendingROI",
      "outputs": [
        {
          "internalType": "uint256",
          "name": "",
          "type": "uint256"
        }
      ],
      "stateMutability": "view",
      "type": "function"
    },
    {
      "inputs": [],
      "name": "pause",
      "outputs": [],
      "stateMutability": "nonpayable",
      "type": "function"
    },
    {
      "inputs": [],
      "name": "paused",
      "outputs": [
        {
          "internalType": "bool",
          "name": "",
          "type": "bool"
        }
      ],
      "stateMutability": "view",
      "type": "function"
    },
    {
      "inputs": [
        {
          "internalType": "address",
          "name": "",
          "type": "address"
        }
      ],
      "name": "pendingROI",
      "outputs": [
        {
          "internalType": "uint256",
          "name": "",
          "type": "uint256"
        }
      ],
      "stateMutability": "view",
      "type": "function"
    },
    {
      "inputs": [
        {
          "internalType": "uint256",
          "name": "bps",
          "type": "uint256"
        }
      ],
      "name": "setClaimFee",
      "outputs": [],
      "stateMutability": "nonpayable",
      "type": "function"
    },
    {
      "inputs": [],
      "name": "totalDistributed",
      "outputs": [
        {
          "internalType": "uint256",
          "name": "",
          "type": "uint256"
        }
      ],
      "stateMutability": "view",
      "type": "function"
    },
    {
      "inputs": [],
      "name": "unpause",
      "outputs": [],
      "stateMutability": "nonpayable",
      "type": "function"
    },
    {
      "inputs": [],
      "name": "usdt",
      "outputs": [
        {
          "internalType": "contract IERC20",
          "name": "",
          "type": "address"
        }
      ],
      "stateMutability": "view",
      "type": "function"
    },
    {
      "inputs": [
        {
          "internalType": "address",
          "name": "to",
          "type": "address"
        },
        {
          "internalType": "uint256",
          "name": "amount",
          "type": "uint256"
        }
      ],
      "name": "withdrawFees",
      "outputs": [],
      "stateMutability": "nonpayable",
      "type": "function"
    }
  ],
  "bytecode": "0x60c060405260fa60035534801561001557600080fd5b5060405161145e38038061145e8339810160408190526100349161008b565b60017f9b779b17422d0df92223018b32b4d1fa46e071723d6817e2486d003becc55f00556001600160a01b0391821660a052166080526100be565b80516001600160a01b038116811461008657600080fd5b919050565b6000806040838503121561009e57600080fd5b6100a78361006f565b91506100b56020840161006f565b90509250929050565b60805160a05161132061013e600039600081816101a201528181610a1601528181610adc0152610e6a0152600081816101500152818161027801528181610587015281816106230152818161074d015281816107e9015281816108c901528181610b7401528181610c1001528181610ccb0152610d6701526113206000f3fe608060405234801561001057600080fd5b50600436106100f55760003560e01c80636661e31611610097578063950bff9f11610066578063950bff9f1461021c578063ad3b1b4714610224578063efca2eed14610237578063fb833da31461024057600080fd5b80636661e316146101e35780636c4fea7b146102035780637a526f4e1461020b5780638456cb591461021457600080fd5b80632e75ab50116100d35780632e75ab501461018a5780632f48ab7d1461019d5780633f4ba83a146101c45780635c975abb146101cc57600080fd5b8063011116c1146100fa578063076575b01461010f57806313007d551461014b575b600080fd5b61010d6101083660046110c7565b610263565b005b61013861011d366004611153565b6001600160a01b031660009081526001602052604090205490565b6040519081526020015b60405180910390f35b6101727f000000000000000000000000000000000000000000000000000000000000000081565b6040516001600160a01b039091168152602001610142565b61010d610198366004611177565b610585565b6101727f000000000000000000000000000000000000000000000000000000000000000081565b61010d61074b565b60005460ff165b6040519015158152602001610142565b6101386101f1366004611153565b60016020526000908152604090205481565b61010d6108a4565b61013860035481565b61010d610b72565b61013860c881565b61010d610232366004611190565b610cc9565b61013860025481565b6101d361024e366004611177565b60046020526000908152604090205460ff1681565b6040516301fd3f7760e71b81523360048201527f00000000000000000000000000000000000000000000000000000000000000006001600160a01b03169063fe9fbb8090602401602060405180830381865afa1580156102c7573d6000803e3d6000fd5b505050506040513d601f19601f820116820180604052508101906102eb91906111bc565b61032d5760405162461bcd60e51b815260206004820152600e60248201526d139bdd08185d5d1a1bdc9a5e995960921b60448201526064015b60405180910390fd5b610335610e95565b8382146103765760405162461bcd60e51b815260206004820152600f60248201526e098cadccee8d040dad2e6dac2e8c6d608b1b6044820152606401610324565b60c88411156103c05760405162461bcd60e51b815260206004820152601660248201527545786365656473206d61782062617463682073697a6560501b6044820152606401610324565b60008181526004602052604090205460ff161561041f5760405162461bcd60e51b815260206004820152601960248201527f45706f636820616c7265616479206469737472696275746564000000000000006044820152606401610324565b6000818152600460205260408120805460ff191660011790555b8481101561057d57838382818110610453576104536111de565b9050602002013560016000888885818110610470576104706111de565b90506020020160208101906104859190611153565b6001600160a01b03166001600160a01b0316815260200190815260200160002060008282546104b4919061120a565b9091555084905083828181106104cc576104cc6111de565b90506020020135600260008282546104e4919061120a565b9091555086905085828181106104fc576104fc6111de565b90506020020160208101906105119190611153565b6001600160a01b03167f7c34e53f9025eb991c4e8197761c955ee8fa016924692eb804120fd412548f8085858481811061054d5761054d6111de565b9050602002013560405161056391815260200190565b60405180910390a28061057581611223565b915050610439565b505050505050565b7f00000000000000000000000000000000000000000000000000000000000000006001600160a01b03166308b150b06040518163ffffffff1660e01b8152600401602060405180830381865afa1580156105e3573d6000803e3d6000fd5b505050506040513d601f19601f82011682018060405250810190610607919061123c565b6001600160a01b0316336001600160a01b031614806106b857507f00000000000000000000000000000000000000000000000000000000000000006001600160a01b0316638da5cb5b6040518163ffffffff1660e01b8152600401602060405180830381865afa15801561067f573d6000803e3d6000fd5b505050506040513d601f19601f820116820180604052508101906106a3919061123c565b6001600160a01b0316336001600160a01b0316145b6106d45760405162461bcd60e51b815260040161032490611259565b6103e88111156107105760405162461bcd60e51b81526020600482015260076024820152664d61782031302560c81b6044820152606401610324565b60038190556040518181527f64374f1a975abb9bc8e8857d704b9ead41989ff599d90c1e8f7d34bc2ebea92a9060200160405180910390a150565b7f00000000000000000000000000000000000000000000000000000000000000006001600160a01b03166308b150b06040518163ffffffff1660e01b8152600401602060405180830381865afa1580156107a9573d6000803e3d6000fd5b505050506040513d601f19601f820116820180604052508101906107cd919061123c565b6001600160a01b0316336001600160a01b0316148061087e57507f00000000000000000000000000000000000000000000000000000000000000006001600160a01b0316638da5cb5b6040518163ffffffff1660e01b8152600401602060405180830381865afa158015610845573d6000803e3d6000fd5b505050506040513d601f19601f82011682018060405250810190610869919061123c565b6001600160a01b0316336001600160a01b0316145b61089a5760405162461bcd60e51b815260040161032490611259565b6108a2610eb9565b565b6108ac610f0b565b6108b4610e95565b604051635414033960e11b81523360048201527f00000000000000000000000000000000000000000000000000000000000000006001600160a01b03169063a828067290602401602060405180830381865afa158015610918573d6000803e3d6000fd5b505050506040513d601f19601f8201168201806040525081019061093c91906111bc565b156109795760405162461bcd60e51b815260206004820152600d60248201526c10db185a5b5cc81b1bd8dad959609a1b6044820152606401610324565b33600090815260016020526040902054806109c95760405162461bcd60e51b815260206004820152601060248201526f4e6f7468696e6720746f20636c61696d60801b6044820152606401610324565b6000612710600354836109dc9190611285565b6109e6919061129c565b905060006109f482846112be565b6040516370a0823160e01b815230600482015290915081906001600160a01b037f000000000000000000000000000000000000000000000000000000000000000016906370a0823190602401602060405180830381865afa158015610a5d573d6000803e3d6000fd5b505050506040513d601f19601f82011682018060405250810190610a8191906112d1565b1015610ac65760405162461bcd60e51b8152602060048201526014602482015273496e73756666696369656e742062616c616e636560601b6044820152606401610324565b33600081815260016020526040812055610b0b907f00000000000000000000000000000000000000000000000000000000000000006001600160a01b03169083610f39565b604080518281526020810184905233917f84f9704c8e74670ac2a51337bd24d6d70a869b89ffc417c152306f5aa71e5b53910160405180910390a25050506108a260017f9b779b17422d0df92223018b32b4d1fa46e071723d6817e2486d003becc55f0055565b7f00000000000000000000000000000000000000000000000000000000000000006001600160a01b03166308b150b06040518163ffffffff1660e01b8152600401602060405180830381865afa158015610bd0573d6000803e3d6000fd5b505050506040513d601f19601f82011682018060405250810190610bf4919061123c565b6001600160a01b0316336001600160a01b03161480610ca557507f00000000000000000000000000000000000000000000000000000000000000006001600160a01b0316638da5cb5b6040518163ffffffff1660e01b8152600401602060405180830381865afa158015610c6c573d6000803e3d6000fd5b505050506040513d601f19601f82011682018060405250810190610c90919061123c565b6001600160a01b0316336001600160a01b0316145b610cc15760405162461bcd60e51b815260040161032490611259565b6108a2610f73565b7f00000000000000000000000000000000000000000000000000000000000000006001600160a01b03166308b150b06040518163ffffffff1660e01b8152600401602060405180830381865afa158015610d27573d6000803e3d6000fd5b505050506040513d601f19601f82011682018060405250810190610d4b919061123c565b6001600160a01b0316336001600160a01b03161480610dfc57507f00000000000000000000000000000000000000000000000000000000000000006001600160a01b0316638da5cb5b6040518163ffffffff1660e01b8152600401602060405180830381865afa158015610dc3573d6000803e3d6000fd5b505050506040513d601f19601f82011682018060405250810190610de7919061123c565b6001600160a01b0316336001600160a01b0316145b610e185760405162461bcd60e51b815260040161032490611259565b6001600160a01b038216610e5d5760405162461bcd60e51b815260206004820152600c60248201526b5a65726f206164647265737360a01b6044820152606401610324565b610e916001600160a01b037f0000000000000000000000000000000000000000000000000000000000000000168383610f39565b5050565b60005460ff16156108a25760405163d93c066560e01b815260040160405180910390fd5b610ec1610fb0565b6000805460ff191690557f5db9ee0a495bf2e6ff9c91a7834c1ba4fdd244a5e8aa4e537bd38aeae4b073aa335b6040516001600160a01b03909116815260200160405180910390a1565b610f13610fd3565b60027f9b779b17422d0df92223018b32b4d1fa46e071723d6817e2486d003becc55f0055565b610f468383836001611015565b610f6e57604051635274afe760e01b81526001600160a01b0384166004820152602401610324565b505050565b610f7b610e95565b6000805460ff191660011790557f62e78cea01bee320cd4e420270b5ea74000d11b0c9f74754ebdbfc544b05a258610eee3390565b60005460ff166108a257604051638dfc202b60e01b815260040160405180910390fd5b7f9b779b17422d0df92223018b32b4d1fa46e071723d6817e2486d003becc55f00546002036108a257604051633ee5aeb560e01b815260040160405180910390fd5b60405163a9059cbb60e01b60008181526001600160a01b038616600452602485905291602083604481808b5af19250600160005114831661106f578383151615611062573d6000823e3d81fd5b6000873b113d1516831692505b60405250949350505050565b60008083601f84011261108d57600080fd5b50813567ffffffffffffffff8111156110a557600080fd5b6020830191508360208260051b85010111156110c057600080fd5b9250929050565b6000806000806000606086880312156110df57600080fd5b853567ffffffffffffffff808211156110f757600080fd5b61110389838a0161107b565b9097509550602088013591508082111561111c57600080fd5b506111298882890161107b565b96999598509660400135949350505050565b6001600160a01b038116811461115057600080fd5b50565b60006020828403121561116557600080fd5b81356111708161113b565b9392505050565b60006020828403121561118957600080fd5b5035919050565b600080604083850312156111a357600080fd5b82356111ae8161113b565b946020939093013593505050565b6000602082840312156111ce57600080fd5b8151801515811461117057600080fd5b634e487b7160e01b600052603260045260246000fd5b634e487b7160e01b600052601160045260246000fd5b8082018082111561121d5761121d6111f4565b92915050565b600060018201611235576112356111f4565b5060010190565b60006020828403121561124e57600080fd5b81516111708161113b565b6020808252601290820152712737ba1037bbb732b91037b91039bab832b960711b604082015260600190565b808202811582820484141761121d5761121d6111f4565b6000826112b957634e487b7160e01b600052601260045260246000fd5b500490565b8181038181111561121d5761121d6111f4565b6000602082840312156112e357600080fd5b505191905056fea26469706673582212209bc1d1c6bff6aeca647cbd2e8188f59cad3c74e7b8b081b4d287d149ce92631c64736f6c63430008140033",
  "linkReferences": {},
  "deployedLinkReferences": {}
}