{
  "_format": "hh-sol-artifact-1",
  "contractName": "ROIDistributor",
  "sourceName": "contracts/solidity/ROIDistributor.sol",
  "abi": [
    {
      "inputs": [
        {
          "internalType": "address",
          "name": "_usdt",
          "type": "address"
        },
        {
          "internalType": "address",
          "name": "_accessControl",
          "type": "address"
        },
        {
          "internalType": "address",
          "name": "_vault",
          "type": "address"
        }
      ],
      "stateMutability": "nonpayable",
      "type": "constructor"
    },
    {
      "anonymous": false,
      "inputs": [
        {
          "indexed": false,
          "internalType": "uint256",
          "name": "oldBps",
          "type": "uint256"
        },
        {
          "indexed": false,
          "internalType": "uint256",
          "name": "newBps",
          "type": "uint256"
        }
      ],
      "name": "ClaimFeeUpdated",
      "type": "event"
    },
    {
      "anonymous": false,
      "inputs": [
        {
          "indexed": true,
          "internalType": "address",
          "name": "user",
          "type": "address"
        },
        {
          "indexed": false,
          "internalType": "uint256",
          "name": "gross",
          "type": "uint256"
        },
        {
          "indexed": false,
          "internalType": "uint256",
          "name": "fee",
          "type": "uint256"
        },
        {
          "indexed": false,
          "internalType": "uint256",
          "name": "net",
          "type": "uint256"
        }
      ],
      "name": "ROIClaimed",
      "type": "event"
    },
    {
      "anonymous": false,
      "inputs": [
        {
          "indexed": true,
          "internalType": "uint256",
          "name": "epoch",
          "type": "uint256"
        },
        {
          "indexed": false,
          "internalType": "uint256",
          "name": "totalAmount",
          "type": "uint256"
        },
        {
          "indexed": false,
          "internalType": "uint256",
          "name": "userCount",
          "type": "uint256"
        }
      ],
      "name": "ROIDistributed",
      "type": "event"
    },
    {
      "inputs": [],
      "name": "S_WALLET",
      "outputs": [
        {
          "internalType": "address",
          "name": "",
          "type": "address"
        }
      ],
      "stateMutability": "view",
      "type": "function"
    },
    {
      "inputs": [],
      "name": "accessControl",
      "outputs": [
        {
          "internalType": "contract IAccessControl",
          "name": "",
          "type": "address"
        }
      ],
      "stateMutability": "view",
      "type": "function"
    },
    {
      "inputs": [],
      "name": "claimFeeBps",
      "outputs": [
        {
          "internalType": "uint256",
          "name": "",
          "type": "uint256"
        }
      ],
      "stateMutability": "view",
      "type": "function"
    },
    {
      "inputs": [],
      "name": "claimROI",
      "outputs": [],
      "stateMutability": "nonpayable",
      "type": "function"
    },
    {
      "inputs": [
        {
          "internalType": "address[]",
          "name": "users",
          "type": "address[]"
        },
        {
          "internalType": "uint256[]",
          "name": "amounts",
          "type": "uint256[]"
        },
        {
          "internalType": "uint256",
          "name": "epoch",
          "type": "uint256"
        }
      ],
      "name": "distributeROI",
      "outputs": [],
      "stateMutability": "nonpayable",
      "type": "function"
    },
    {
      "inputs": [
        {
          "internalType": "uint256",
          "name": "",
          "type": "uint256"
        }
      ],
      "name": "epochProcessed",
      "outputs": [
        {
          "internalType": "bool",
          "name": "",
          "type": "bool"
        }
      ],
      "stateMutability": "view",
      "type": "function"
    },
    {
      "inputs": [],
      "name": "getContractBalance",
      "outputs": [
        {
          "internalType": "uint256",
          "name": "",
          "type": "uint256"
        }
      ],
      "stateMutability": "view",
      "type": "function"
    },
    {
      "inputs": [
        {
          "internalType": "address",
          "name": "user",
          "type": "address"
        }
      ],
      "name": "getPendingROI",
      "outputs": [
        {
          "internalType": "uint256",
          "name": "",
          "type": "uint256"
        }
      ],
      "stateMutability": "view",
      "type": "function"
    },
    {
      "inputs": [
        {
          "internalType": "address",
          "name": "",
          "type": "address"
        }
      ],
      "name": "pendingROI",
      "outputs": [
        {
          "internalType": "uint256",
          "name": "",
          "type": "uint256"
        }
      ],
      "stateMutability": "view",
      "type": "function"
    },
    {
      "inputs": [
        {
          "internalType": "uint256",
          "name": "_bps",
          "type": "uint256"
        }
      ],
      "name": "setClaimFee",
      "outputs": [],
      "stateMutability": "nonpayable",
      "type": "function"
    },
    {
      "inputs": [
        {
          "internalType": "address",
          "name": "_vault",
          "type": "address"
        }
      ],
      "name": "setVault",
      "outputs": [],
      "stateMutability": "nonpayable",
      "type": "function"
    },
    {
      "inputs": [],
      "name": "totalClaimed",
      "outputs": [
        {
          "internalType": "uint256",
          "name": "",
          "type": "uint256"
        }
      ],
      "stateMutability": "view",
      "type": "function"
    },
    {
      "inputs": [],
      "name": "totalDistributed",
      "outputs": [
        {
          "internalType": "uint256",
          "name": "",
          "type": "uint256"
        }
      ],
      "stateMutability": "view",
      "type": "function"
    },
    {
      "inputs": [],
      "name": "usdt",
      "outputs": [
        {
          "internalType": "contract IERC20",
          "name": "",
          "type": "address"
        }
      ],
      "stateMutability": "view",
      "type": "function"
    },
    {
      "inputs": [],
      "name": "vault",
      "outputs": [
        {
          "internalType": "address",
          "name": "",
          "type": "address"
        }
      ],
      "stateMutability": "view",
      "type": "function"
    }
  ],
  "bytecode": "0x6080604052600060035534801561001557600080fd5b50604051610ecd380380610ecd8339810160408190526100349161009b565b600080546001600160a01b0394851661010002610100600160a81b0319909116179055600180549284166001600160a01b0319938416179055600280549190931691161790556100de565b80516001600160a01b038116811461009657600080fd5b919050565b6000806000606084860312156100b057600080fd5b6100b98461007f565b92506100c76020850161007f565b91506100d56040850161007f565b90509250925092565b610de0806100ed6000396000f3fe608060405234801561001057600080fd5b50600436106100f55760003560e01c80636817031b1161009757806395ddabfa1161006657806395ddabfa14610208578063d54ad2a11461023b578063efca2eed14610244578063fbfa77cf1461024d57600080fd5b80636817031b146101dc5780636c4fea7b146101ef5780636f9fb98a146101f75780637a526f4e146101ff57600080fd5b806313007d55116100d357806313007d551461017e5780632e75ab50146101915780632f48ab7d146101a45780636661e316146101bc57600080fd5b8063011116c1146100fa578063076575b01461010f5780631022944c1461014b575b600080fd5b61010d610108366004610c08565b610260565b005b61013861011d366004610c7c565b6001600160a01b031660009081526005602052604090205490565b6040519081526020015b60405180910390f35b61016673031ea4ba7e1c5729c352e846549e9b5745f3c66e81565b6040516001600160a01b039091168152602001610142565b600154610166906001600160a01b031681565b61010d61019f366004610cac565b610577565b6000546101669061010090046001600160a01b031681565b6101386101ca366004610c7c565b60056020526000908152604090205481565b61010d6101ea366004610c7c565b6106a1565b61010d6107ac565b610138610b46565b61013860035481565b61022b610216366004610cac565b60046020526000908152604090205460ff1681565b6040519015158152602001610142565b61013860075481565b61013860065481565b600254610166906001600160a01b031681565b6001546040516301fd3f7760e71b81523360048201526001600160a01b039091169063fe9fbb8090602401602060405180830381865afa1580156102a8573d6000803e3d6000fd5b505050506040513d601f19601f820116820180604052508101906102cc9190610cc5565b61030e5760405162461bcd60e51b815260206004820152600e60248201526d139bdd08185d5d1a1bdc9a5e995960921b60448201526064015b60405180910390fd5b83821461034f5760405162461bcd60e51b815260206004820152600f60248201526e098cadccee8d040dad2e6dac2e8c6d608b1b6044820152606401610305565b8361038b5760405162461bcd60e51b815260206004820152600c60248201526b456d7074792061727261797360a01b6044820152606401610305565b60008181526004602052604090205460ff16156103ea5760405162461bcd60e51b815260206004820152601760248201527f45706f636820616c72656164792070726f6365737365640000000000000000006044820152606401610305565b6000818152600460205260408120805460ff19166001179055805b8581101561051c57600087878381811061042157610421610ce7565b90506020020160208101906104369190610c7c565b6001600160a01b0316141580156104655750600085858381811061045c5761045c610ce7565b90506020020135115b1561050a5784848281811061047c5761047c610ce7565b905060200201356005600089898581811061049957610499610ce7565b90506020020160208101906104ae9190610c7c565b6001600160a01b03166001600160a01b0316815260200190815260200160002060008282546104dd9190610d13565b9091555085905084828181106104f5576104f5610ce7565b90506020020135826105079190610d13565b91505b8061051481610d2c565b915050610405565b50806006600082825461052f9190610d13565b9091555050604080518281526020810187905283917ff3e940585c816e0674c2afd5c16af46d69dbd3f0b318cb138365dc5e9646fb17910160405180910390a2505050505050565b600154604051630935e01b60e21b81523360048201526001600160a01b03909116906324d7806c90602401602060405180830381865afa1580156105bf573d6000803e3d6000fd5b505050506040513d601f19601f820116820180604052508101906105e39190610cc5565b61061b5760405162461bcd60e51b81526020600482015260096024820152682737ba1030b236b4b760b91b6044820152606401610305565b61138881111561065c5760405162461bcd60e51b815260206004820152600c60248201526b08ccaca40e8dede40d0d2ced60a31b6044820152606401610305565b600380549082905560408051828152602081018490527f3c4e14c3f450a320de9683e5ffeec6e95e4e02755f862e36ff6f8f6c21086f60910160405180910390a15050565b600154604051630935e01b60e21b81523360048201526001600160a01b03909116906324d7806c90602401602060405180830381865afa1580156106e9573d6000803e3d6000fd5b505050506040513d601f19601f8201168201806040525081019061070d9190610cc5565b6107455760405162461bcd60e51b81526020600482015260096024820152682737ba1030b236b4b760b91b6044820152606401610305565b6001600160a01b03811661078a5760405162461bcd60e51b815260206004820152600c60248201526b5a65726f206164647265737360a01b6044820152606401610305565b600280546001600160a01b0319166001600160a01b0392909216919091179055565b60005460ff16156107f15760405162461bcd60e51b815260206004820152600f60248201526e1499595b9d1c985b98de51dd585c99608a1b6044820152606401610305565b6000805460ff1916600190811790915554604051630bd4611b60e31b81523360048201526001600160a01b0390911690635ea308d890602401602060405180830381865afa158015610847573d6000803e3d6000fd5b505050506040513d601f19601f8201168201806040525081019061086b9190610cc5565b156108a85760405162461bcd60e51b815260206004820152600d60248201526c10db185a5b5cc81b1bd8dad959609a1b6044820152606401610305565b33600090815260056020526040902054806108f85760405162461bcd60e51b815260206004820152601060248201526f4e6f7468696e6720746f20636c61696d60801b6044820152606401610305565b3360009081526005602052604081208190556003546127109061091b9084610d45565b6109259190610d5c565b905060006109338284610d7e565b90508115610a15576000546002546040516323b872dd60e01b81526001600160a01b03918216600482015273031ea4ba7e1c5729c352e846549e9b5745f3c66e60248201526044810185905261010090920416906323b872dd906064016020604051808303816000875af11580156109af573d6000803e3d6000fd5b505050506040513d601f19601f820116820180604052508101906109d39190610cc5565b610a155760405162461bcd60e51b8152602060048201526013602482015272119959481d1c985b9cd9995c8819985a5b1959606a1b6044820152606401610305565b6000546002546040516323b872dd60e01b81526001600160a01b0391821660048201523360248201526044810184905261010090920416906323b872dd906064016020604051808303816000875af1158015610a75573d6000803e3d6000fd5b505050506040513d601f19601f82011682018060405250810190610a999190610cc5565b610add5760405162461bcd60e51b815260206004820152601560248201527410db185a5b481d1c985b9cd9995c8819985a5b1959605a1b6044820152606401610305565b8260076000828254610aef9190610d13565b9091555050604080518481526020810184905290810182905233907f3675bf915222443832df3f136b97a58836da037fa8292b861ed85c1f186f728f9060600160405180910390a250506000805460ff1916905550565b600080546040516370a0823160e01b81523060048201526101009091046001600160a01b0316906370a0823190602401602060405180830381865afa158015610b93573d6000803e3d6000fd5b505050506040513d601f19601f82011682018060405250810190610bb79190610d91565b905090565b60008083601f840112610bce57600080fd5b50813567ffffffffffffffff811115610be657600080fd5b6020830191508360208260051b8501011115610c0157600080fd5b9250929050565b600080600080600060608688031215610c2057600080fd5b853567ffffffffffffffff80821115610c3857600080fd5b610c4489838a01610bbc565b90975095506020880135915080821115610c5d57600080fd5b50610c6a88828901610bbc565b96999598509660400135949350505050565b600060208284031215610c8e57600080fd5b81356001600160a01b0381168114610ca557600080fd5b9392505050565b600060208284031215610cbe57600080fd5b5035919050565b600060208284031215610cd757600080fd5b81518015158114610ca557600080fd5b634e487b7160e01b600052603260045260246000fd5b634e487b7160e01b600052601160045260246000fd5b80820180821115610d2657610d26610cfd565b92915050565b600060018201610d3e57610d3e610cfd565b5060010190565b8082028115828204841417610d2657610d26610cfd565b600082610d7957634e487b7160e01b600052601260045260246000fd5b500490565b81810381811115610d2657610d26610cfd565b600060208284031215610da357600080fd5b505191905056fea2646970667358221220a4b76920d89f8ad77ee2f11028965ebc1712d283d5e13409dc52a8f1e2bab0c264736f6c63430008140033",
  "linkReferences": {},
  "deployedLinkReferences": {}
}