{
  "_format": "hh-sol-artifact-1",
  "contractName": "RedemptionManager",
  "sourceName": "contracts/solidity/RedemptionManager.sol",
  "abi": [
    {
      "inputs": [
        {
          "internalType": "address",
          "name": "_usdt",
          "type": "address"
        },
        {
          "internalType": "address",
          "name": "_vault",
          "type": "address"
        },
        {
          "internalType": "address",
          "name": "_accessControl",
          "type": "address"
        }
      ],
      "stateMutability": "nonpayable",
      "type": "constructor"
    },
    {
      "anonymous": false,
      "inputs": [
        {
          "indexed": true,
          "internalType": "uint256",
          "name": "orderId",
          "type": "uint256"
        },
        {
          "indexed": true,
          "internalType": "address",
          "name": "user",
          "type": "address"
        },
        {
          "indexed": false,
          "internalType": "uint256",
          "name": "posId",
          "type": "uint256"
        },
        {
          "indexed": false,
          "internalType": "uint256",
          "name": "amount",
          "type": "uint256"
        }
      ],
      "name": "OrderCreated",
      "type": "event"
    },
    {
      "anonymous": false,
      "inputs": [
        {
          "indexed": true,
          "internalType": "uint256",
          "name": "orderId",
          "type": "uint256"
        },
        {
          "indexed": true,
          "internalType": "address",
          "name": "user",
          "type": "address"
        },
        {
          "indexed": false,
          "internalType": "uint256",
          "name": "gross",
          "type": "uint256"
        },
        {
          "indexed": false,
          "internalType": "uint256",
          "name": "fee",
          "type": "uint256"
        },
        {
          "indexed": false,
          "internalType": "uint256",
          "name": "net",
          "type": "uint256"
        }
      ],
      "name": "RedemptionApproved",
      "type": "event"
    },
    {
      "anonymous": false,
      "inputs": [
        {
          "indexed": false,
          "internalType": "uint256",
          "name": "oldBps",
          "type": "uint256"
        },
        {
          "indexed": false,
          "internalType": "uint256",
          "name": "newBps",
          "type": "uint256"
        }
      ],
      "name": "RedemptionFeeUpdated",
      "type": "event"
    },
    {
      "anonymous": false,
      "inputs": [
        {
          "indexed": true,
          "internalType": "uint256",
          "name": "orderId",
          "type": "uint256"
        },
        {
          "indexed": true,
          "internalType": "address",
          "name": "user",
          "type": "address"
        },
        {
          "indexed": false,
          "internalType": "uint8",
          "name": "reason",
          "type": "uint8"
        }
      ],
      "name": "RedemptionRejected",
      "type": "event"
    },
    {
      "inputs": [],
      "name": "STATUS_APPROVED",
      "outputs": [
        {
          "internalType": "uint8",
          "name": "",
          "type": "uint8"
        }
      ],
      "stateMutability": "view",
      "type": "function"
    },
    {
      "inputs": [],
      "name": "STATUS_PENDING",
      "outputs": [
        {
          "internalType": "uint8",
          "name": "",
          "type": "uint8"
        }
      ],
      "stateMutability": "view",
      "type": "function"
    },
    {
      "inputs": [],
      "name": "STATUS_REJECTED",
      "outputs": [
        {
          "internalType": "uint8",
          "name": "",
          "type": "uint8"
        }
      ],
      "stateMutability": "view",
      "type": "function"
    },
    {
      "inputs": [],
      "name": "S_WALLET",
      "outputs": [
        {
          "internalType": "address",
          "name": "",
          "type": "address"
        }
      ],
      "stateMutability": "view",
      "type": "function"
    },
    {
      "inputs": [],
      "name": "accessControl",
      "outputs": [
        {
          "internalType": "contract IAccessControl",
          "name": "",
          "type": "address"
        }
      ],
      "stateMutability": "view",
      "type": "function"
    },
    {
      "inputs": [
        {
          "internalType": "uint256",
          "name": "orderId",
          "type": "uint256"
        }
      ],
      "name": "approveRedemption",
      "outputs": [],
      "stateMutability": "nonpayable",
      "type": "function"
    },
    {
      "inputs": [
        {
          "internalType": "address",
          "name": "user",
          "type": "address"
        },
        {
          "internalType": "uint256",
          "name": "posId",
          "type": "uint256"
        },
        {
          "internalType": "uint256",
          "name": "amount",
          "type": "uint256"
        }
      ],
      "name": "createOrder",
      "outputs": [],
      "stateMutability": "nonpayable",
      "type": "function"
    },
    {
      "inputs": [],
      "name": "getContractBalance",
      "outputs": [
        {
          "internalType": "uint256",
          "name": "",
          "type": "uint256"
        }
      ],
      "stateMutability": "view",
      "type": "function"
    },
    {
      "inputs": [
        {
          "internalType": "uint256",
          "name": "orderId",
          "type": "uint256"
        }
      ],
      "name": "getOrder",
      "outputs": [
        {
          "internalType": "address",
          "name": "user",
          "type": "address"
        },
        {
          "internalType": "uint256",
          "name": "posId",
          "type": "uint256"
        },
        {
          "internalType": "uint256",
          "name": "amount",
          "type": "uint256"
        },
        {
          "internalType": "uint256",
          "name": "createdAt",
          "type": "uint256"
        },
        {
          "internalType": "uint8",
          "name": "status",
          "type": "uint8"
        },
        {
          "internalType": "uint8",
          "name": "rejectReason",
          "type": "uint8"
        }
      ],
      "stateMutability": "view",
      "type": "function"
    },
    {
      "inputs": [],
      "name": "orderCount",
      "outputs": [
        {
          "internalType": "uint256",
          "name": "",
          "type": "uint256"
        }
      ],
      "stateMutability": "view",
      "type": "function"
    },
    {
      "inputs": [
        {
          "internalType": "uint256",
          "name": "",
          "type": "uint256"
        }
      ],
      "name": "orders",
      "outputs": [
        {
          "internalType": "address",
          "name": "user",
          "type": "address"
        },
        {
          "internalType": "uint256",
          "name": "posId",
          "type": "uint256"
        },
        {
          "internalType": "uint256",
          "name": "amount",
          "type": "uint256"
        },
        {
          "internalType": "uint256",
          "name": "createdAt",
          "type": "uint256"
        },
        {
          "internalType": "uint8",
          "name": "status",
          "type": "uint8"
        },
        {
          "internalType": "uint8",
          "name": "rejectReason",
          "type": "uint8"
        }
      ],
      "stateMutability": "view",
      "type": "function"
    },
    {
      "inputs": [],
      "name": "redemptionFeeBps",
      "outputs": [
        {
          "internalType": "uint256",
          "name": "",
          "type": "uint256"
        }
      ],
      "stateMutability": "view",
      "type": "function"
    },
    {
      "inputs": [
        {
          "internalType": "uint256",
          "name": "orderId",
          "type": "uint256"
        },
        {
          "internalType": "uint8",
          "name": "reason",
          "type": "uint8"
        }
      ],
      "name": "rejectRedemption",
      "outputs": [],
      "stateMutability": "nonpayable",
      "type": "function"
    },
    {
      "inputs": [
        {
          "internalType": "uint256",
          "name": "_bps",
          "type": "uint256"
        }
      ],
      "name": "setRedemptionFee",
      "outputs": [],
      "stateMutability": "nonpayable",
      "type": "function"
    },
    {
      "inputs": [],
      "name": "usdt",
      "outputs": [
        {
          "internalType": "contract IERC20",
          "name": "",
          "type": "address"
        }
      ],
      "stateMutability": "view",
      "type": "function"
    },
    {
      "inputs": [],
      "name": "vault",
      "outputs": [
        {
          "internalType": "contract IVault",
          "name": "",
          "type": "address"
        }
      ],
      "stateMutability": "view",
      "type": "function"
    }
  ],
  "bytecode": "0x60806040526101f460035534801561001657600080fd5b50604051610fec380380610fec8339810160408190526100359161009c565b600080546001600160a01b0394851661010002610100600160a81b0319909116179055600280549284166001600160a01b0319938416179055600180549190931691161790556100df565b80516001600160a01b038116811461009757600080fd5b919050565b6000806000606084860312156100b157600080fd5b6100ba84610080565b92506100c860208501610080565b91506100d660408501610080565b90509250925092565b610efe806100ee6000396000f3fe608060405234801561001057600080fd5b50600436106101005760003560e01c80637004792411610097578063b996de6611610066578063b996de6614610287578063d09ef2411461028f578063d68002f3146102e3578063fbfa77cf146102ec57600080fd5b806370047924146101be5780637dbc1df0146101d1578063a85c38ef146101e4578063acfee8ed1461027457600080fd5b8063343bf7e3116100d3578063343bf7e31461017f5780633a6c660414610194578063423d487c146101ae5780636f9fb98a146101b657600080fd5b80631022944c1461010557806313007d551461013d5780632453ffa8146101505780632f48ab7d14610167575b600080fd5b61012073031ea4ba7e1c5729c352e846549e9b5745f3c66e81565b6040516001600160a01b0390911681526020015b60405180910390f35b600154610120906001600160a01b031681565b61015960045481565b604051908152602001610134565b6000546101209061010090046001600160a01b031681565b61019261018d366004610cd4565b6102ff565b005b61019c600281565b60405160ff9091168152602001610134565b61019c600081565b610159610490565b6101926101cc366004610d04565b610506565b6101926101df366004610d04565b6108c9565b6102376101f2366004610d04565b600560205260009081526040902080546001820154600283015460038401546004909401546001600160a01b0390931693919290919060ff8082169161010090041686565b604080516001600160a01b039097168752602087019590955293850192909252606084015260ff90811660808401521660a082015260c001610134565b610192610282366004610d1d565b6109d7565b61019c600181565b61023761029d366004610d04565b600090815260056020526040902080546001820154600283015460038401546004909401546001600160a01b039093169491939092909160ff8083169261010090041690565b61015960035481565b600254610120906001600160a01b031681565b600154604051630935e01b60e21b81523360048201526001600160a01b03909116906324d7806c90602401602060405180830381865afa158015610347573d6000803e3d6000fd5b505050506040513d601f19601f8201168201806040525081019061036b9190610d73565b6103905760405162461bcd60e51b815260040161038790610d95565b60405180910390fd5b600082815260056020526040902080546001600160a01b03166103e75760405162461bcd60e51b815260206004820152600f60248201526e13dc99195c881b9bdd08199bdd5b99608a1b6044820152606401610387565b600481015460ff161561042a5760405162461bcd60e51b815260206004820152600b60248201526a4e6f742070656e64696e6760a81b6044820152606401610387565b60048101805460ff8416610100810261ffff199092169190911760021790915581546040519182526001600160a01b03169084907fd311a2ebfef8692078a65c0e1f1f30d51dcdf2ddf2339c951f253279e6c3ad5b9060200160405180910390a3505050565b600080546040516370a0823160e01b81523060048201526101009091046001600160a01b0316906370a0823190602401602060405180830381865afa1580156104dd573d6000803e3d6000fd5b505050506040513d601f19601f820116820180604052508101906105019190610db8565b905090565b600154604051630935e01b60e21b81523360048201526001600160a01b03909116906324d7806c90602401602060405180830381865afa15801561054e573d6000803e3d6000fd5b505050506040513d601f19601f820116820180604052508101906105729190610d73565b61058e5760405162461bcd60e51b815260040161038790610d95565b60005460ff16156105d35760405162461bcd60e51b815260206004820152600f60248201526e1499595b9d1c985b98de51dd585c99608a1b6044820152606401610387565b6000805460ff1916600117815581815260056020526040902080546001600160a01b03166106355760405162461bcd60e51b815260206004820152600f60248201526e13dc99195c881b9bdd08199bdd5b99608a1b6044820152606401610387565b600481015460ff16156106785760405162461bcd60e51b815260206004820152600b60248201526a4e6f742070656e64696e6760a81b6044820152606401610387565b60048101805460ff191660011790556002810154600354600090612710906106a09084610de7565b6106aa9190610e04565b905060006106b88284610e26565b9050811561079a576000546002546040516323b872dd60e01b81526001600160a01b03918216600482015273031ea4ba7e1c5729c352e846549e9b5745f3c66e60248201526044810185905261010090920416906323b872dd906064016020604051808303816000875af1158015610734573d6000803e3d6000fd5b505050506040513d601f19601f820116820180604052508101906107589190610d73565b61079a5760405162461bcd60e51b8152602060048201526013602482015272119959481d1c985b9cd9995c8819985a5b1959606a1b6044820152606401610387565b60005460025485546040516323b872dd60e01b81526001600160a01b03928316600482015290821660248201526044810184905261010090920416906323b872dd906064016020604051808303816000875af11580156107fe573d6000803e3d6000fd5b505050506040513d601f19601f820116820180604052508101906108229190610d73565b6108675760405162461bcd60e51b815260206004820152601660248201527514185e5bdd5d081d1c985b9cd9995c8819985a5b195960521b6044820152606401610387565b835460408051858152602081018590529081018390526001600160a01b039091169086907fac408610dc242e8317d63e6640fcfc66991e30a1180d0ec7d5af82404265694d9060600160405180910390a350506000805460ff19169055505050565b600154604051630935e01b60e21b81523360048201526001600160a01b03909116906324d7806c90602401602060405180830381865afa158015610911573d6000803e3d6000fd5b505050506040513d601f19601f820116820180604052508101906109359190610d73565b6109515760405162461bcd60e51b815260040161038790610d95565b6113888111156109925760405162461bcd60e51b815260206004820152600c60248201526b08ccaca40e8dede40d0d2ced60a31b6044820152606401610387565b600380549082905560408051828152602081018490527f29d267206cc390476fabb3dc6614699c5ba02d804a1bffdf8f46e3aa72c737df910160405180910390a15050565b6001546040516301fd3f7760e71b81523360048201526001600160a01b039091169063fe9fbb8090602401602060405180830381865afa158015610a1f573d6000803e3d6000fd5b505050506040513d601f19601f82011682018060405250810190610a439190610d73565b610a805760405162461bcd60e51b815260206004820152600e60248201526d139bdd08185d5d1a1bdc9a5e995960921b6044820152606401610387565b6001600160a01b038316610ac55760405162461bcd60e51b815260206004820152600c60248201526b5a65726f206164647265737360a01b6044820152606401610387565b60008111610b035760405162461bcd60e51b815260206004820152600b60248201526a16995c9bc8185b5bdd5b9d60aa1b6044820152606401610387565b600254604051633adbb5af60e01b81526001600160a01b038581166004830152602482018590526000921690633adbb5af9060440160e060405180830381865afa158015610b55573d6000803e3d6000fd5b505050506040513d601f19601f82011682018060405250810190610b799190610e39565b505050505050905060008111610bc65760405162461bcd60e51b8152602060048201526012602482015271141bdcda5d1a5bdb881b9bdd08199bdd5b9960721b6044820152606401610387565b600480546040805160c0810182526001600160a01b0380891682526020808301898152838501898152426060860190815260006080870181815260a088018281528a835260059096529781209651875496166001600160a01b03199096169590951786559151600186015551600285015551600384015592519185018054935160ff9081166101000261ffff199095169316929092179290921790558254919290610c7083610eaf565b909155505060408051858152602081018590526001600160a01b0387169183917ff7c110a6973307f2bc91245c2c06344ada13add2c1741e83ac5c0bb332bc85d5910160405180910390a35050505050565b60ff81168114610cd157600080fd5b50565b60008060408385031215610ce757600080fd5b823591506020830135610cf981610cc2565b809150509250929050565b600060208284031215610d1657600080fd5b5035919050565b600080600060608486031215610d3257600080fd5b83356001600160a01b0381168114610d4957600080fd5b95602085013595506040909401359392505050565b80518015158114610d6e57600080fd5b919050565b600060208284031215610d8557600080fd5b610d8e82610d5e565b9392505050565b6020808252600990820152682737ba1030b236b4b760b91b604082015260600190565b600060208284031215610dca57600080fd5b5051919050565b634e487b7160e01b600052601160045260246000fd5b8082028115828204841417610dfe57610dfe610dd1565b92915050565b600082610e2157634e487b7160e01b600052601260045260246000fd5b500490565b81810381811115610dfe57610dfe610dd1565b600080600080600080600060e0888a031215610e5457600080fd5b8751965060208801519550604088015194506060880151610e7481610cc2565b6080890151909450610e8581610cc2565b9250610e9360a08901610d5e565b9150610ea160c08901610d5e565b905092959891949750929550565b600060018201610ec157610ec1610dd1565b506001019056fea26469706673582212203120759325ffb5b94087681e64297f6c00551f1a804d64cbf3d0c2eb355477f764736f6c63430008140033",
  "linkReferences": {},
  "deployedLinkReferences": {}
}