{
  "_format": "hh-sol-artifact-1",
  "contractName": "RedemptionManager",
  "sourceName": "contracts/solidity/RedemptionManager.sol",
  "abi": [
    {
      "inputs": [
        {
          "internalType": "address",
          "name": "_usdt",
          "type": "address"
        },
        {
          "internalType": "address",
          "name": "_vault",
          "type": "address"
        },
        {
          "internalType": "address",
          "name": "_accessControl",
          "type": "address"
        }
      ],
      "stateMutability": "nonpayable",
      "type": "constructor"
    },
    {
      "inputs": [],
      "name": "EnforcedPause",
      "type": "error"
    },
    {
      "inputs": [],
      "name": "ExpectedPause",
      "type": "error"
    },
    {
      "inputs": [],
      "name": "ReentrancyGuardReentrantCall",
      "type": "error"
    },
    {
      "inputs": [
        {
          "internalType": "address",
          "name": "token",
          "type": "address"
        }
      ],
      "name": "SafeERC20FailedOperation",
      "type": "error"
    },
    {
      "anonymous": false,
      "inputs": [
        {
          "indexed": false,
          "internalType": "address",
          "name": "account",
          "type": "address"
        }
      ],
      "name": "Paused",
      "type": "event"
    },
    {
      "anonymous": false,
      "inputs": [
        {
          "indexed": true,
          "internalType": "uint256",
          "name": "orderId",
          "type": "uint256"
        },
        {
          "indexed": true,
          "internalType": "address",
          "name": "user",
          "type": "address"
        },
        {
          "indexed": false,
          "internalType": "uint256",
          "name": "net",
          "type": "uint256"
        }
      ],
      "name": "RedemptionApproved",
      "type": "event"
    },
    {
      "anonymous": false,
      "inputs": [
        {
          "indexed": true,
          "internalType": "uint256",
          "name": "orderId",
          "type": "uint256"
        },
        {
          "indexed": true,
          "internalType": "address",
          "name": "user",
          "type": "address"
        },
        {
          "indexed": false,
          "internalType": "uint256",
          "name": "amount",
          "type": "uint256"
        }
      ],
      "name": "RedemptionCreated",
      "type": "event"
    },
    {
      "anonymous": false,
      "inputs": [
        {
          "indexed": true,
          "internalType": "uint256",
          "name": "orderId",
          "type": "uint256"
        },
        {
          "indexed": false,
          "internalType": "uint8",
          "name": "reason",
          "type": "uint8"
        }
      ],
      "name": "RedemptionRejected",
      "type": "event"
    },
    {
      "anonymous": false,
      "inputs": [
        {
          "indexed": false,
          "internalType": "address",
          "name": "account",
          "type": "address"
        }
      ],
      "name": "Unpaused",
      "type": "event"
    },
    {
      "inputs": [],
      "name": "MAX_BATCH",
      "outputs": [
        {
          "internalType": "uint256",
          "name": "",
          "type": "uint256"
        }
      ],
      "stateMutability": "view",
      "type": "function"
    },
    {
      "inputs": [],
      "name": "accessControl",
      "outputs": [
        {
          "internalType": "contract ValturAccessControl",
          "name": "",
          "type": "address"
        }
      ],
      "stateMutability": "view",
      "type": "function"
    },
    {
      "inputs": [
        {
          "internalType": "uint256",
          "name": "orderId",
          "type": "uint256"
        }
      ],
      "name": "approveRedemption",
      "outputs": [],
      "stateMutability": "nonpayable",
      "type": "function"
    },
    {
      "inputs": [
        {
          "internalType": "uint256[]",
          "name": "orderIds",
          "type": "uint256[]"
        }
      ],
      "name": "batchApproveRedemptions",
      "outputs": [],
      "stateMutability": "nonpayable",
      "type": "function"
    },
    {
      "inputs": [
        {
          "internalType": "address",
          "name": "user",
          "type": "address"
        },
        {
          "internalType": "uint256",
          "name": "posId",
          "type": "uint256"
        },
        {
          "internalType": "uint256",
          "name": "amount",
          "type": "uint256"
        }
      ],
      "name": "createOrder",
      "outputs": [],
      "stateMutability": "nonpayable",
      "type": "function"
    },
    {
      "inputs": [
        {
          "internalType": "uint256",
          "name": "orderId",
          "type": "uint256"
        }
      ],
      "name": "getOrder",
      "outputs": [
        {
          "internalType": "address",
          "name": "user",
          "type": "address"
        },
        {
          "internalType": "uint256",
          "name": "posId",
          "type": "uint256"
        },
        {
          "internalType": "uint256",
          "name": "amount",
          "type": "uint256"
        },
        {
          "internalType": "uint256",
          "name": "createdAt",
          "type": "uint256"
        },
        {
          "internalType": "uint8",
          "name": "status",
          "type": "uint8"
        }
      ],
      "stateMutability": "view",
      "type": "function"
    },
    {
      "inputs": [],
      "name": "getPendingOrderCount",
      "outputs": [
        {
          "internalType": "uint256",
          "name": "count",
          "type": "uint256"
        }
      ],
      "stateMutability": "view",
      "type": "function"
    },
    {
      "inputs": [
        {
          "internalType": "uint256",
          "name": "",
          "type": "uint256"
        }
      ],
      "name": "orders",
      "outputs": [
        {
          "internalType": "address",
          "name": "user",
          "type": "address"
        },
        {
          "internalType": "uint256",
          "name": "posId",
          "type": "uint256"
        },
        {
          "internalType": "uint256",
          "name": "amount",
          "type": "uint256"
        },
        {
          "internalType": "uint256",
          "name": "createdAt",
          "type": "uint256"
        },
        {
          "internalType": "uint8",
          "name": "status",
          "type": "uint8"
        },
        {
          "internalType": "uint8",
          "name": "rejectReason",
          "type": "uint8"
        }
      ],
      "stateMutability": "view",
      "type": "function"
    },
    {
      "inputs": [],
      "name": "pause",
      "outputs": [],
      "stateMutability": "nonpayable",
      "type": "function"
    },
    {
      "inputs": [],
      "name": "paused",
      "outputs": [
        {
          "internalType": "bool",
          "name": "",
          "type": "bool"
        }
      ],
      "stateMutability": "view",
      "type": "function"
    },
    {
      "inputs": [],
      "name": "redemptionFeeBps",
      "outputs": [
        {
          "internalType": "uint256",
          "name": "",
          "type": "uint256"
        }
      ],
      "stateMutability": "view",
      "type": "function"
    },
    {
      "inputs": [
        {
          "internalType": "uint256",
          "name": "orderId",
          "type": "uint256"
        },
        {
          "internalType": "uint8",
          "name": "reason",
          "type": "uint8"
        }
      ],
      "name": "rejectRedemption",
      "outputs": [],
      "stateMutability": "nonpayable",
      "type": "function"
    },
    {
      "inputs": [
        {
          "internalType": "uint256",
          "name": "bps",
          "type": "uint256"
        }
      ],
      "name": "setRedemptionFee",
      "outputs": [],
      "stateMutability": "nonpayable",
      "type": "function"
    },
    {
      "inputs": [],
      "name": "totalOrders",
      "outputs": [
        {
          "internalType": "uint256",
          "name": "",
          "type": "uint256"
        }
      ],
      "stateMutability": "view",
      "type": "function"
    },
    {
      "inputs": [],
      "name": "unpause",
      "outputs": [],
      "stateMutability": "nonpayable",
      "type": "function"
    },
    {
      "inputs": [],
      "name": "usdt",
      "outputs": [
        {
          "internalType": "contract IERC20",
          "name": "",
          "type": "address"
        }
      ],
      "stateMutability": "view",
      "type": "function"
    },
    {
      "inputs": [],
      "name": "vault",
      "outputs": [
        {
          "internalType": "contract ValturVault",
          "name": "",
          "type": "address"
        }
      ],
      "stateMutability": "view",
      "type": "function"
    },
    {
      "inputs": [
        {
          "internalType": "address",
          "name": "to",
          "type": "address"
        },
        {
          "internalType": "uint256",
          "name": "amount",
          "type": "uint256"
        }
      ],
      "name": "withdrawFees",
      "outputs": [],
      "stateMutability": "nonpayable",
      "type": "function"
    }
  ],
  "bytecode": "0x60e06040526101f46002553480156200001757600080fd5b5060405162001eea38038062001eea8339810160408190526200003a9162000099565b60017f9b779b17422d0df92223018b32b4d1fa46e071723d6817e2486d003becc55f00556001600160a01b0392831660c05290821660a05216608052620000e3565b80516001600160a01b03811681146200009457600080fd5b919050565b600080600060608486031215620000af57600080fd5b620000ba846200007c565b9250620000ca602085016200007c565b9150620000da604085016200007c565b90509250925092565b60805160a05160c051611d3d620001ad6000396000818161017601528181610718015281816107df01528181610d1d01528181610de401526114110152600081816102e80152610fd30152600081816101200152818161031f0152818161046901528181610505015281816105d5015281816108730152818161090f01528181610a0301528181610a9f01528181610b6d01528181610f11015281816112720152818161130e01528181611477015281816115720152818161168d01526117010152611d3d6000f3fe608060405234801561001057600080fd5b50600436106101165760003560e01c80638b18d34c116100a2578063ad3b1b4711610071578063ad3b1b4714610277578063c706bd821461028a578063d09ef24114610292578063d68002f3146102da578063fbfa77cf146102e357600080fd5b80638b18d34c146101f9578063950bff9f1461020c578063a85c38ef14610214578063acfee8ed1461026457600080fd5b80633f4ba83a116100e95780633f4ba83a146101ad5780635c975abb146101b557806370047924146101cb5780637dbc1df0146101de5780638456cb59146101f157600080fd5b806313007d551461011b5780631d8344091461015f5780632f48ab7d14610171578063343bf7e314610198575b600080fd5b6101427f000000000000000000000000000000000000000000000000000000000000000081565b6040516001600160a01b0390911681526020015b60405180910390f35b6001545b604051908152602001610156565b6101427f000000000000000000000000000000000000000000000000000000000000000081565b6101ab6101a63660046119c0565b61030a565b005b6101ab610467565b60005460ff166040519015158152602001610156565b6101ab6101d93660046119f0565b6105c0565b6101ab6101ec3660046119f0565b610871565b6101ab610a01565b6101ab610207366004611a09565b610b58565b61016360c881565b6102276102223660046119f0565b610ea5565b604080516001600160a01b039097168752602087019590955293850192909252606084015260ff90811660808401521660a082015260c001610156565b6101ab610272366004611a93565b610efc565b6101ab610285366004611ac8565b611270565b610163611438565b6102a56102a03660046119f0565b611630565b604080516001600160a01b039096168652602086019490945292840191909152606083015260ff16608082015260a001610156565b61016360025481565b6101427f000000000000000000000000000000000000000000000000000000000000000081565b6040516301fd3f7760e71b81523360048201527f00000000000000000000000000000000000000000000000000000000000000006001600160a01b03169063fe9fbb8090602401602060405180830381865afa15801561036e573d6000803e3d6000fd5b505050506040513d601f19601f820116820180604052508101906103929190611b09565b6103b75760405162461bcd60e51b81526004016103ae90611b2b565b60405180910390fd5b6000600183815481106103cc576103cc611b53565b60009182526020909120600590910201600481015490915060ff16156104045760405162461bcd60e51b81526004016103ae90611b69565b60048101805460ff84166101000261ffff1990911617600217905560405183907f27724a34d8edb327b1f57f8a7973b9984efe394e9ab11e4e74e6668043a786fc9061045a90859060ff91909116815260200190565b60405180910390a2505050565b7f00000000000000000000000000000000000000000000000000000000000000006001600160a01b03166308b150b06040518163ffffffff1660e01b8152600401602060405180830381865afa1580156104c5573d6000803e3d6000fd5b505050506040513d601f19601f820116820180604052508101906104e99190611b8e565b6001600160a01b0316336001600160a01b0316148061059a57507f00000000000000000000000000000000000000000000000000000000000000006001600160a01b0316638da5cb5b6040518163ffffffff1660e01b8152600401602060405180830381865afa158015610561573d6000803e3d6000fd5b505050506040513d601f19601f820116820180604052508101906105859190611b8e565b6001600160a01b0316336001600160a01b0316145b6105b65760405162461bcd60e51b81526004016103ae90611bab565b6105be6117ef565b565b6040516301fd3f7760e71b81523360048201527f00000000000000000000000000000000000000000000000000000000000000006001600160a01b03169063fe9fbb8090602401602060405180830381865afa158015610624573d6000803e3d6000fd5b505050506040513d601f19601f820116820180604052508101906106489190611b09565b6106645760405162461bcd60e51b81526004016103ae90611b2b565b61066c611841565b61067461185d565b60006001828154811061068957610689611b53565b60009182526020909120600590910201600481015490915060ff16156106c15760405162461bcd60e51b81526004016103ae90611b69565b600061271060025483600201546106d89190611bed565b6106e29190611c0a565b905060008183600201546106f69190611c2c565b6040516370a0823160e01b815230600482015290915081906001600160a01b037f000000000000000000000000000000000000000000000000000000000000000016906370a0823190602401602060405180830381865afa15801561075f573d6000803e3d6000fd5b505050506040513d601f19601f820116820180604052508101906107839190611c3f565b10156107c85760405162461bcd60e51b8152602060048201526014602482015273496e73756666696369656e742062616c616e636560601b60448201526064016103ae565b60048301805460ff191660011790558254610811907f00000000000000000000000000000000000000000000000000000000000000006001600160a01b03908116911683611881565b82546040518281526001600160a01b039091169085907f288f9db7e88c4c42745cefe885caf627c052a2826a041773a1808a89e637b0d79060200160405180910390a350505061086e6001600080516020611ce883398151915255565b50565b7f00000000000000000000000000000000000000000000000000000000000000006001600160a01b03166308b150b06040518163ffffffff1660e01b8152600401602060405180830381865afa1580156108cf573d6000803e3d6000fd5b505050506040513d601f19601f820116820180604052508101906108f39190611b8e565b6001600160a01b0316336001600160a01b031614806109a457507f00000000000000000000000000000000000000000000000000000000000000006001600160a01b0316638da5cb5b6040518163ffffffff1660e01b8152600401602060405180830381865afa15801561096b573d6000803e3d6000fd5b505050506040513d601f19601f8201168201806040525081019061098f9190611b8e565b6001600160a01b0316336001600160a01b0316145b6109c05760405162461bcd60e51b81526004016103ae90611bab565b6103e88111156109fc5760405162461bcd60e51b81526020600482015260076024820152664d61782031302560c81b60448201526064016103ae565b600255565b7f00000000000000000000000000000000000000000000000000000000000000006001600160a01b03166308b150b06040518163ffffffff1660e01b8152600401602060405180830381865afa158015610a5f573d6000803e3d6000fd5b505050506040513d601f19601f82011682018060405250810190610a839190611b8e565b6001600160a01b0316336001600160a01b03161480610b3457507f00000000000000000000000000000000000000000000000000000000000000006001600160a01b0316638da5cb5b6040518163ffffffff1660e01b8152600401602060405180830381865afa158015610afb573d6000803e3d6000fd5b505050506040513d601f19601f82011682018060405250810190610b1f9190611b8e565b6001600160a01b0316336001600160a01b0316145b610b505760405162461bcd60e51b81526004016103ae90611bab565b6105be6118bb565b6040516301fd3f7760e71b81523360048201527f00000000000000000000000000000000000000000000000000000000000000006001600160a01b03169063fe9fbb8090602401602060405180830381865afa158015610bbc573d6000803e3d6000fd5b505050506040513d601f19601f82011682018060405250810190610be09190611b09565b610bfc5760405162461bcd60e51b81526004016103ae90611b2b565b610c04611841565b610c0c61185d565b60c8811115610c565760405162461bcd60e51b815260206004820152601660248201527545786365656473206d61782062617463682073697a6560501b60448201526064016103ae565b60005b81811015610e895760006001848484818110610c7757610c77611b53565b9050602002013581548110610c8e57610c8e611b53565b60009182526020909120600590910201600481015490915060ff1615610cc65760405162461bcd60e51b81526004016103ae90611b69565b60006127106002548360020154610cdd9190611bed565b610ce79190611c0a565b90506000818360020154610cfb9190611c2c565b6040516370a0823160e01b815230600482015290915081906001600160a01b037f000000000000000000000000000000000000000000000000000000000000000016906370a0823190602401602060405180830381865afa158015610d64573d6000803e3d6000fd5b505050506040513d601f19601f82011682018060405250810190610d889190611c3f565b1015610dcd5760405162461bcd60e51b8152602060048201526014602482015273496e73756666696369656e742062616c616e636560601b60448201526064016103ae565b60048301805460ff191660011790558254610e16907f00000000000000000000000000000000000000000000000000000000000000006001600160a01b03908116911683611881565b82546001600160a01b0316868686818110610e3357610e33611b53565b905060200201357f288f9db7e88c4c42745cefe885caf627c052a2826a041773a1808a89e637b0d783604051610e6b91815260200190565b60405180910390a35050508080610e8190611c58565b915050610c59565b50610ea16001600080516020611ce883398151915255565b5050565b60018181548110610eb557600080fd5b6000918252602090912060059091020180546001820154600283015460038401546004909401546001600160a01b0390931694509092909160ff8082169161010090041686565b6040516301fd3f7760e71b81523360048201527f00000000000000000000000000000000000000000000000000000000000000006001600160a01b03169063fe9fbb8090602401602060405180830381865afa158015610f60573d6000803e3d6000fd5b505050506040513d601f19601f82011682018060405250810190610f849190611b09565b610fa05760405162461bcd60e51b81526004016103ae90611b2b565b610fa861185d565b604051633adbb5af60e01b81526001600160a01b0384811660048301526024820184905260009182917f00000000000000000000000000000000000000000000000000000000000000001690633adbb5af9060440160e060405180830381865afa15801561101a573d6000803e3d6000fd5b505050506040513d601f19601f8201168201806040525081019061103e9190611c71565b5094965093945050831592506110999150505760405162461bcd60e51b815260206004820152601e60248201527f506f736974696f6e207374696c6c2061637469766520696e207661756c74000060448201526064016103ae565b8282146110e85760405162461bcd60e51b815260206004820152601d60248201527f416d6f756e74206d69736d61746368207769746820706f736974696f6e00000060448201526064016103ae565b600180546040805160c0810182526001600160a01b03808a16808352602083018a81528385018a8152426060860190815260006080870181815260a088018281528a8c018c559a9091529551600589027fb10e2d527612073b26eecdfd717e6a320cf44b4afac2b0732d9fcbe2b7fa0cf681018054929097166001600160a01b03199092169190911790955591517fb10e2d527612073b26eecdfd717e6a320cf44b4afac2b0732d9fcbe2b7fa0cf7850155517fb10e2d527612073b26eecdfd717e6a320cf44b4afac2b0732d9fcbe2b7fa0cf8840155517fb10e2d527612073b26eecdfd717e6a320cf44b4afac2b0732d9fcbe2b7fa0cf983015591517fb10e2d527612073b26eecdfd717e6a320cf44b4afac2b0732d9fcbe2b7fa0cfa9091018054955160ff9081166101000261ffff19909716921691909117949094179093555190919082907f4eb4c6aa0de7a0245823272962138b09185bd0f725c40a4a4e23d47691800d44906112609088815260200190565b60405180910390a3505050505050565b7f00000000000000000000000000000000000000000000000000000000000000006001600160a01b03166308b150b06040518163ffffffff1660e01b8152600401602060405180830381865afa1580156112ce573d6000803e3d6000fd5b505050506040513d601f19601f820116820180604052508101906112f29190611b8e565b6001600160a01b0316336001600160a01b031614806113a357507f00000000000000000000000000000000000000000000000000000000000000006001600160a01b0316638da5cb5b6040518163ffffffff1660e01b8152600401602060405180830381865afa15801561136a573d6000803e3d6000fd5b505050506040513d601f19601f8201168201806040525081019061138e9190611b8e565b6001600160a01b0316336001600160a01b0316145b6113bf5760405162461bcd60e51b81526004016103ae90611bab565b6001600160a01b0382166114045760405162461bcd60e51b815260206004820152600c60248201526b5a65726f206164647265737360a01b60448201526064016103ae565b610ea16001600160a01b037f0000000000000000000000000000000000000000000000000000000000000000168383611881565b6000805b60015481101561162c576001818154811061145957611459611b53565b6000918252602082206004600590920201015460ff16900361161a577f00000000000000000000000000000000000000000000000000000000000000006001600160a01b031663c85933dd600183815481106114b7576114b7611b53565b6000918252602090912060059091020154600180546001600160a01b0390921691859081106114e8576114e8611b53565b60009182526020909120600160059092020101546040516001600160e01b031960e085901b1681526001600160a01b0390921660048301526024820152604401602060405180830381865afa158015611545573d6000803e3d6000fd5b505050506040513d601f19601f820116820180604052508101906115699190611b09565b801561160857507f00000000000000000000000000000000000000000000000000000000000000006001600160a01b03166308b150b06040518163ffffffff1660e01b8152600401602060405180830381865afa1580156115ce573d6000803e3d6000fd5b505050506040513d601f19601f820116820180604052508101906115f29190611b8e565b6001600160a01b0316336001600160a01b031614155b61161a578161161681611c58565b9250505b8061162481611c58565b91505061143c565b5090565b6000806000806000806001878154811061164c5761164c611b53565b600091825260209091206005909102018054600182015460405163c85933dd60e01b81526001600160a01b03928316600482015260248101919091529192507f0000000000000000000000000000000000000000000000000000000000000000169063c85933dd90604401602060405180830381865afa1580156116d4573d6000803e3d6000fd5b505050506040513d601f19601f820116820180604052508101906116f89190611b09565b801561179757507f00000000000000000000000000000000000000000000000000000000000000006001600160a01b03166308b150b06040518163ffffffff1660e01b8152600401602060405180830381865afa15801561175d573d6000803e3d6000fd5b505050506040513d601f19601f820116820180604052508101906117819190611b8e565b6001600160a01b0316336001600160a01b031614155b156117b457600080600080600095509550955095509550506117e6565b80546001820154600283015460038401546004909401546001600160a01b039093169850909650945090925060ff1690505b91939590929450565b6117f76118f8565b6000805460ff191690557f5db9ee0a495bf2e6ff9c91a7834c1ba4fdd244a5e8aa4e537bd38aeae4b073aa335b6040516001600160a01b03909116815260200160405180910390a1565b61184961191b565b6002600080516020611ce883398151915255565b60005460ff16156105be5760405163d93c066560e01b815260040160405180910390fd5b61188e838383600161194b565b6118b657604051635274afe760e01b81526001600160a01b03841660048201526024016103ae565b505050565b6118c361185d565b6000805460ff191660011790557f62e78cea01bee320cd4e420270b5ea74000d11b0c9f74754ebdbfc544b05a2586118243390565b60005460ff166105be57604051638dfc202b60e01b815260040160405180910390fd5b600080516020611ce8833981519152546002036105be57604051633ee5aeb560e01b815260040160405180910390fd5b60405163a9059cbb60e01b60008181526001600160a01b038616600452602485905291602083604481808b5af1925060016000511483166119a5578383151615611998573d6000823e3d81fd5b6000873b113d1516831692505b60405250949350505050565b60ff8116811461086e57600080fd5b600080604083850312156119d357600080fd5b8235915060208301356119e5816119b1565b809150509250929050565b600060208284031215611a0257600080fd5b5035919050565b60008060208385031215611a1c57600080fd5b823567ffffffffffffffff80821115611a3457600080fd5b818501915085601f830112611a4857600080fd5b813581811115611a5757600080fd5b8660208260051b8501011115611a6c57600080fd5b60209290920196919550909350505050565b6001600160a01b038116811461086e57600080fd5b600080600060608486031215611aa857600080fd5b8335611ab381611a7e565b95602085013595506040909401359392505050565b60008060408385031215611adb57600080fd5b8235611ae681611a7e565b946020939093013593505050565b80518015158114611b0457600080fd5b919050565b600060208284031215611b1b57600080fd5b611b2482611af4565b9392505050565b6020808252600e908201526d139bdd08185d5d1a1bdc9a5e995960921b604082015260600190565b634e487b7160e01b600052603260045260246000fd5b6020808252600b908201526a4e6f742070656e64696e6760a81b604082015260600190565b600060208284031215611ba057600080fd5b8151611b2481611a7e565b6020808252601290820152712737ba1037bbb732b91037b91039bab832b960711b604082015260600190565b634e487b7160e01b600052601160045260246000fd5b8082028115828204841417611c0457611c04611bd7565b92915050565b600082611c2757634e487b7160e01b600052601260045260246000fd5b500490565b81810381811115611c0457611c04611bd7565b600060208284031215611c5157600080fd5b5051919050565b600060018201611c6a57611c6a611bd7565b5060010190565b600080600080600080600060e0888a031215611c8c57600080fd5b8751965060208801519550604088015194506060880151611cac816119b1565b6080890151909450611cbd816119b1565b9250611ccb60a08901611af4565b9150611cd960c08901611af4565b90509295989194975092955056fe9b779b17422d0df92223018b32b4d1fa46e071723d6817e2486d003becc55f00a2646970667358221220c23e9c3494243e6567fc4bad0d832e2c0bc53a416e8f41303ba65f2c61c547e864736f6c63430008140033",
  "linkReferences": {},
  "deployedLinkReferences": {}
}